{
  "contractName": "Arbiter",
  "abi": [
    {
      "constant": true,
      "inputs": [],
      "name": "db",
      "outputs": [
        {
          "name": "",
          "type": "address"
        }
      ],
      "payable": false,
      "stateMutability": "view",
      "type": "function"
    },
    {
      "constant": false,
      "inputs": [],
      "name": "updateDependencies",
      "outputs": [],
      "payable": false,
      "stateMutability": "nonpayable",
      "type": "function"
    },
    {
      "constant": true,
      "inputs": [],
      "name": "owner",
      "outputs": [
        {
          "name": "",
          "type": "address"
        }
      ],
      "payable": false,
      "stateMutability": "view",
      "type": "function"
    },
    {
      "constant": false,
      "inputs": [],
      "name": "selfDestruct",
      "outputs": [],
      "payable": false,
      "stateMutability": "nonpayable",
      "type": "function"
    },
    {
      "constant": true,
      "inputs": [],
      "name": "bondageAddress",
      "outputs": [
        {
          "name": "",
          "type": "address"
        }
      ],
      "payable": false,
      "stateMutability": "view",
      "type": "function"
    },
    {
      "constant": false,
      "inputs": [
        {
          "name": "newOwner",
          "type": "address"
        }
      ],
      "name": "transferOwnership",
      "outputs": [],
      "payable": false,
      "stateMutability": "nonpayable",
      "type": "function"
    },
    {
      "inputs": [
        {
          "name": "c",
          "type": "address"
        }
      ],
      "payable": false,
      "stateMutability": "nonpayable",
      "type": "constructor"
    },
    {
      "anonymous": false,
      "inputs": [
        {
          "indexed": true,
          "name": "provider",
          "type": "address"
        },
        {
          "indexed": true,
          "name": "subscriber",
          "type": "address"
        },
        {
          "indexed": false,
          "name": "publicKey",
          "type": "uint256"
        },
        {
          "indexed": true,
          "name": "amount",
          "type": "uint256"
        },
        {
          "indexed": false,
          "name": "endpointParams",
          "type": "bytes32[]"
        },
        {
          "indexed": false,
          "name": "endpoint",
          "type": "bytes32"
        }
      ],
      "name": "DataPurchase",
      "type": "event"
    },
    {
      "anonymous": false,
      "inputs": [
        {
          "indexed": true,
          "name": "provider",
          "type": "address"
        },
        {
          "indexed": true,
          "name": "subscriber",
          "type": "address"
        },
        {
          "indexed": true,
          "name": "terminator",
          "type": "uint8"
        }
      ],
      "name": "DataSubscriptionEnd",
      "type": "event"
    },
    {
      "anonymous": false,
      "inputs": [
        {
          "indexed": true,
          "name": "sender",
          "type": "address"
        },
        {
          "indexed": true,
          "name": "receiver",
          "type": "address"
        },
        {
          "indexed": false,
          "name": "endpoint",
          "type": "bytes32"
        },
        {
          "indexed": false,
          "name": "params",
          "type": "bytes32[]"
        }
      ],
      "name": "ParamsPassed",
      "type": "event"
    },
    {
      "anonymous": false,
      "inputs": [
        {
          "indexed": true,
          "name": "previousOwner",
          "type": "address"
        },
        {
          "indexed": true,
          "name": "newOwner",
          "type": "address"
        }
      ],
      "name": "OwnershipTransferred",
      "type": "event"
    },
    {
      "constant": false,
      "inputs": [
        {
          "name": "receiver",
          "type": "address"
        },
        {
          "name": "endpoint",
          "type": "bytes32"
        },
        {
          "name": "params",
          "type": "bytes32[]"
        }
      ],
      "name": "passParams",
      "outputs": [],
      "payable": false,
      "stateMutability": "nonpayable",
      "type": "function"
    },
    {
      "constant": false,
      "inputs": [
        {
          "name": "providerAddress",
          "type": "address"
        },
        {
          "name": "endpoint",
          "type": "bytes32"
        },
        {
          "name": "endpointParams",
          "type": "bytes32[]"
        },
        {
          "name": "publicKey",
          "type": "uint256"
        },
        {
          "name": "blocks",
          "type": "uint64"
        }
      ],
      "name": "initiateSubscription",
      "outputs": [],
      "payable": false,
      "stateMutability": "nonpayable",
      "type": "function"
    },
    {
      "constant": true,
      "inputs": [
        {
          "name": "providerAddress",
          "type": "address"
        },
        {
          "name": "subscriberAddress",
          "type": "address"
        },
        {
          "name": "endpoint",
          "type": "bytes32"
        }
      ],
      "name": "getSubscription",
      "outputs": [
        {
          "name": "dots",
          "type": "uint64"
        },
        {
          "name": "blockStart",
          "type": "uint96"
        },
        {
          "name": "preBlockEnd",
          "type": "uint96"
        }
      ],
      "payable": false,
      "stateMutability": "view",
      "type": "function"
    },
    {
      "constant": false,
      "inputs": [
        {
          "name": "subscriberAddress",
          "type": "address"
        },
        {
          "name": "endpoint",
          "type": "bytes32"
        }
      ],
      "name": "endSubscriptionProvider",
      "outputs": [],
      "payable": false,
      "stateMutability": "nonpayable",
      "type": "function"
    },
    {
      "constant": false,
      "inputs": [
        {
          "name": "providerAddress",
          "type": "address"
        },
        {
          "name": "endpoint",
          "type": "bytes32"
        }
      ],
      "name": "endSubscriptionSubscriber",
      "outputs": [],
      "payable": false,
      "stateMutability": "nonpayable",
      "type": "function"
    },
    {
      "constant": true,
      "inputs": [
        {
          "name": "providerAddress",
          "type": "address"
        },
        {
          "name": "subscriberAddress",
          "type": "address"
        },
        {
          "name": "endpoint",
          "type": "bytes32"
        }
      ],
      "name": "getDots",
      "outputs": [
        {
          "name": "",
          "type": "uint64"
        }
      ],
      "payable": false,
      "stateMutability": "view",
      "type": "function"
    },
    {
      "constant": true,
      "inputs": [
        {
          "name": "providerAddress",
          "type": "address"
        },
        {
          "name": "subscriberAddress",
          "type": "address"
        },
        {
          "name": "endpoint",
          "type": "bytes32"
        }
      ],
      "name": "getBlockStart",
      "outputs": [
        {
          "name": "",
          "type": "uint96"
        }
      ],
      "payable": false,
      "stateMutability": "view",
      "type": "function"
    },
    {
      "constant": true,
      "inputs": [
        {
          "name": "providerAddress",
          "type": "address"
        },
        {
          "name": "subscriberAddress",
          "type": "address"
        },
        {
          "name": "endpoint",
          "type": "bytes32"
        }
      ],
      "name": "getPreBlockEnd",
      "outputs": [
        {
          "name": "",
          "type": "uint96"
        }
      ],
      "payable": false,
      "stateMutability": "view",
      "type": "function"
    }
  ],
  "bytecode": "0x60806040523480156200001157600080fd5b5060405160208062002f278339810180604052810190808051906020019092919050505080336000806101000a81548173ffffffffffffffffffffffffffffffffffffffff021916908373ffffffffffffffffffffffffffffffffffffffff16021790555080600160006101000a81548173ffffffffffffffffffffffffffffffffffffffff021916908373ffffffffffffffffffffffffffffffffffffffff16021790555080600260006101000a81548173ffffffffffffffffffffffffffffffffffffffff021916908373ffffffffffffffffffffffffffffffffffffffff160217905550506200011262000119640100000000026401000000009004565b5062000404565b6000600260009054906101000a900473ffffffffffffffffffffffffffffffffffffffff1673ffffffffffffffffffffffffffffffffffffffff1663358177736040518163ffffffff167c01000000000000000000000000000000000000000000000000000000000281526004018080602001828103825260078152602001807f424f4e4441474500000000000000000000000000000000000000000000000000815250602001915050602060405180830381600087803b158015620001de57600080fd5b505af1158015620001f3573d6000803e3d6000fd5b505050506040513d60208110156200020a57600080fd5b8101908080519060200190929190505050600460006101000a81548173ffffffffffffffffffffffffffffffffffffffff021916908373ffffffffffffffffffffffffffffffffffffffff160217905550600460009054906101000a900473ffffffffffffffffffffffffffffffffffffffff16600360006101000a81548173ffffffffffffffffffffffffffffffffffffffff021916908373ffffffffffffffffffffffffffffffffffffffff160217905550600260009054906101000a900473ffffffffffffffffffffffffffffffffffffffff1673ffffffffffffffffffffffffffffffffffffffff1663358177736040518163ffffffff167c01000000000000000000000000000000000000000000000000000000000281526004018080602001828103825260088152602001807f4441544142415345000000000000000000000000000000000000000000000000815250602001915050602060405180830381600087803b1580156200038157600080fd5b505af115801562000396573d6000803e3d6000fd5b505050506040513d6020811015620003ad57600080fd5b8101908080519060200190929190505050905080600560006101000a81548173ffffffffffffffffffffffffffffffffffffffff021916908373ffffffffffffffffffffffffffffffffffffffff16021790555050565b612b1380620004146000396000f3006080604052600436106100d0576000357c0100000000000000000000000000000000000000000000000000000000900463ffffffff1680633e24a696146100d55780634d655aff1461017657806362800bd8146101cd5780636c526d851461021e5780636dbe08df146102fd5780636e5ecdff146103915780638da5cb5b146103a85780639c87920a146103ff5780639cb8a26a146104b1578063dbe74364146104c8578063e00dbb4114610561578063e87e69fe146105b8578063f2fde38b14610659578063fb8846301461069c575b600080fd5b3480156100e157600080fd5b50610144600480360381019080803573ffffffffffffffffffffffffffffffffffffffff169060200190929190803573ffffffffffffffffffffffffffffffffffffffff16906020019092919080356000191690602001909291905050506106ed565b60405180826bffffffffffffffffffffffff166bffffffffffffffffffffffff16815260200191505060405180910390f35b34801561018257600080fd5b5061018b61092b565b604051808273ffffffffffffffffffffffffffffffffffffffff1673ffffffffffffffffffffffffffffffffffffffff16815260200191505060405180910390f35b3480156101d957600080fd5b5061021c600480360381019080803573ffffffffffffffffffffffffffffffffffffffff1690602001909291908035600019169060200190929190505050610951565b005b34801561022a57600080fd5b5061028d600480360381019080803573ffffffffffffffffffffffffffffffffffffffff169060200190929190803573ffffffffffffffffffffffffffffffffffffffff16906020019092919080356000191690602001909291905050506109cc565b604051808467ffffffffffffffff1667ffffffffffffffff168152602001836bffffffffffffffffffffffff166bffffffffffffffffffffffff168152602001826bffffffffffffffffffffffff166bffffffffffffffffffffffff168152602001935050505060405180910390f35b34801561030957600080fd5b5061038f600480360381019080803573ffffffffffffffffffffffffffffffffffffffff169060200190929190803560001916906020019092919080359060200190820180359060200190808060200260200160405190810160405280939291908181526020018383602002808284378201915050505050509192919290505050610a01565b005b34801561039d57600080fd5b506103a6610abc565b005b3480156103b457600080fd5b506103bd610b8b565b604051808273ffffffffffffffffffffffffffffffffffffffff1673ffffffffffffffffffffffffffffffffffffffff16815260200191505060405180910390f35b34801561040b57600080fd5b506104af600480360381019080803573ffffffffffffffffffffffffffffffffffffffff16906020019092919080356000191690602001909291908035906020019082018035906020019080806020026020016040519081016040528093929190818152602001838360200280828437820191505050505050919291929080359060200190929190803567ffffffffffffffff169060200190929190505050610bb0565b005b3480156104bd57600080fd5b506104c6610f43565b005b3480156104d457600080fd5b50610537600480360381019080803573ffffffffffffffffffffffffffffffffffffffff169060200190929190803573ffffffffffffffffffffffffffffffffffffffff1690602001909291908035600019169060200190929190505050610fd8565b604051808267ffffffffffffffff1667ffffffffffffffff16815260200191505060405180910390f35b34801561056d57600080fd5b50610576611216565b604051808273ffffffffffffffffffffffffffffffffffffffff1673ffffffffffffffffffffffffffffffffffffffff16815260200191505060405180910390f35b3480156105c457600080fd5b50610627600480360381019080803573ffffffffffffffffffffffffffffffffffffffff169060200190929190803573ffffffffffffffffffffffffffffffffffffffff169060200190929190803560001916906020019092919050505061123c565b60405180826bffffffffffffffffffffffff166bffffffffffffffffffffffff16815260200191505060405180910390f35b34801561066557600080fd5b5061069a600480360381019080803573ffffffffffffffffffffffffffffffffffffffff16906020019092919050505061147a565b005b3480156106a857600080fd5b506106eb600480360381019080803573ffffffffffffffffffffffffffffffffffffffff16906020019092919080356000191690602001909291905050506115cf565b005b6000600560009054906101000a900473ffffffffffffffffffffffffffffffffffffffff1673ffffffffffffffffffffffffffffffffffffffff16632ecb0d6485858560405160200180807f737562736372697074696f6e7300000000000000000000000000000000000000815250600d018473ffffffffffffffffffffffffffffffffffffffff1673ffffffffffffffffffffffffffffffffffffffff166c010000000000000000000000000281526014018373ffffffffffffffffffffffffffffffffffffffff1673ffffffffffffffffffffffffffffffffffffffff166c010000000000000000000000000281526014018260001916600019168152602001807f626c6f636b537461727400000000000000000000000000000000000000000000815250600a0193505050506040516020818303038152906040526040518082805190602001908083835b602083101515610860578051825260208201915060208101905060208303925061083b565b6001836020036101000a03801982511681845116808217855250505050505090500191505060405180910390206040518263ffffffff167c0100000000000000000000000000000000000000000000000000000000028152600401808260001916600019168152602001915050602060405180830381600087803b1580156108e757600080fd5b505af11580156108fb573d6000803e3d6000fd5b505050506040513d602081101561091157600080fd5b810190808051906020019092919050505090509392505050565b600560009054906101000a900473ffffffffffffffffffffffffffffffffffffffff1681565b61095c82338361164b565b156109c85760018081111561096d57fe5b3373ffffffffffffffffffffffffffffffffffffffff168373ffffffffffffffffffffffffffffffffffffffff167fe27dcf9b3b50e7d3af96f88c64ebd7307cdef3359182881bfe7210b42433a44960405160405180910390a45b5050565b60008060006109dc868686610fd8565b6109e78787876106ed565b6109f288888861123c565b92509250925093509350939050565b8273ffffffffffffffffffffffffffffffffffffffff163373ffffffffffffffffffffffffffffffffffffffff167fd31e849abbddf4d7669b530a73ab91262191fb280906f73316d4830f67f10d7d848460405180836000191660001916815260200180602001828103825283818151815260200191508051906020019060200280838360005b83811015610aa3578082015181840152602081019050610a88565b50505050905001935050505060405180910390a3505050565b600160009054906101000a900473ffffffffffffffffffffffffffffffffffffffff1673ffffffffffffffffffffffffffffffffffffffff163373ffffffffffffffffffffffffffffffffffffffff16141515610b81576040517f08c379a00000000000000000000000000000000000000000000000000000000081526004018080602001828103825260208152602001807f4572726f723a20436f6f7264696e61746f72204f6e6c792046756e6374696f6e81525060200191505060405180910390fd5b610b89611b3c565b565b6000809054906101000a900473ffffffffffffffffffffffffffffffffffffffff1681565b60008167ffffffffffffffff16111515610c58576040517f08c379a00000000000000000000000000000000000000000000000000000000081526004018080602001828103825260218152602001807f4572726f723a204d757374206265206174206c65617374206f6e6520626c6f6381526020017f6b0000000000000000000000000000000000000000000000000000000000000081525060400191505060405180910390fd5b6000610c65863387610fd8565b67ffffffffffffffff16141515610d0a576040517f08c379a00000000000000000000000000000000000000000000000000000000081526004018080602001828103825260378152602001807f4572726f723a2043616e6e6f74207265696e7374616e7469617465206120637581526020017f7272656e746c792061637469766520636f6e747261637400000000000000000081525060400191505060405180910390fd5b600360009054906101000a900473ffffffffffffffffffffffffffffffffffffffff1673ffffffffffffffffffffffffffffffffffffffff166316614c98338787856040518563ffffffff167c0100000000000000000000000000000000000000000000000000000000028152600401808573ffffffffffffffffffffffffffffffffffffffff1673ffffffffffffffffffffffffffffffffffffffff1681526020018473ffffffffffffffffffffffffffffffffffffffff1673ffffffffffffffffffffffffffffffffffffffff16815260200183600019166000191681526020018267ffffffffffffffff168152602001945050505050602060405180830381600087803b158015610e1d57600080fd5b505af1158015610e31573d6000803e3d6000fd5b505050506040513d6020811015610e4757600080fd5b810190808051906020019092919050505050610e7385338684438667ffffffffffffffff164301611e21565b8067ffffffffffffffff163373ffffffffffffffffffffffffffffffffffffffff168673ffffffffffffffffffffffffffffffffffffffff167f10cd0837c48b7daca59ad3bbdbdc193ea84eea36bfde21b4c4b0960ab41b9f2f85878960405180848152602001806020018360001916600019168152602001828103825284818151815260200191508051906020019060200280838360005b83811015610f27578082015181840152602081019050610f0c565b5050505090500194505050505060405180910390a45050505050565b6000809054906101000a900473ffffffffffffffffffffffffffffffffffffffff1673ffffffffffffffffffffffffffffffffffffffff163373ffffffffffffffffffffffffffffffffffffffff16141515610f9e57600080fd5b6000809054906101000a900473ffffffffffffffffffffffffffffffffffffffff1673ffffffffffffffffffffffffffffffffffffffff16ff5b6000600560009054906101000a900473ffffffffffffffffffffffffffffffffffffffff1673ffffffffffffffffffffffffffffffffffffffff16632ecb0d6485858560405160200180807f737562736372697074696f6e7300000000000000000000000000000000000000815250600d018473ffffffffffffffffffffffffffffffffffffffff1673ffffffffffffffffffffffffffffffffffffffff166c010000000000000000000000000281526014018373ffffffffffffffffffffffffffffffffffffffff1673ffffffffffffffffffffffffffffffffffffffff166c010000000000000000000000000281526014018260001916600019168152602001807f646f74730000000000000000000000000000000000000000000000000000000081525060040193505050506040516020818303038152906040526040518082805190602001908083835b60208310151561114b5780518252602082019150602081019050602083039250611126565b6001836020036101000a03801982511681845116808217855250505050505090500191505060405180910390206040518263ffffffff167c0100000000000000000000000000000000000000000000000000000000028152600401808260001916600019168152602001915050602060405180830381600087803b1580156111d257600080fd5b505af11580156111e6573d6000803e3d6000fd5b505050506040513d60208110156111fc57600080fd5b810190808051906020019092919050505090509392505050565b600460009054906101000a900473ffffffffffffffffffffffffffffffffffffffff1681565b6000600560009054906101000a900473ffffffffffffffffffffffffffffffffffffffff1673ffffffffffffffffffffffffffffffffffffffff16632ecb0d6485858560405160200180807f737562736372697074696f6e7300000000000000000000000000000000000000815250600d018473ffffffffffffffffffffffffffffffffffffffff1673ffffffffffffffffffffffffffffffffffffffff166c010000000000000000000000000281526014018373ffffffffffffffffffffffffffffffffffffffff1673ffffffffffffffffffffffffffffffffffffffff166c010000000000000000000000000281526014018260001916600019168152602001807f707265426c6f636b456e64000000000000000000000000000000000000000000815250600b0193505050506040516020818303038152906040526040518082805190602001908083835b6020831015156113af578051825260208201915060208101905060208303925061138a565b6001836020036101000a03801982511681845116808217855250505050505090500191505060405180910390206040518263ffffffff167c0100000000000000000000000000000000000000000000000000000000028152600401808260001916600019168152602001915050602060405180830381600087803b15801561143657600080fd5b505af115801561144a573d6000803e3d6000fd5b505050506040513d602081101561146057600080fd5b810190808051906020019092919050505090509392505050565b6000809054906101000a900473ffffffffffffffffffffffffffffffffffffffff1673ffffffffffffffffffffffffffffffffffffffff163373ffffffffffffffffffffffffffffffffffffffff161415156114d557600080fd5b600073ffffffffffffffffffffffffffffffffffffffff168173ffffffffffffffffffffffffffffffffffffffff161415151561151157600080fd5b8073ffffffffffffffffffffffffffffffffffffffff166000809054906101000a900473ffffffffffffffffffffffffffffffffffffffff1673ffffffffffffffffffffffffffffffffffffffff167f8be0079c531659141344cd1fd0a4f28419497f9722a3daafe3b4186f6b6457e060405160405180910390a3806000806101000a81548173ffffffffffffffffffffffffffffffffffffffff021916908373ffffffffffffffffffffffffffffffffffffffff16021790555050565b6115da33838361164b565b1561164757600060018111156115ec57fe5b8273ffffffffffffffffffffffffffffffffffffffff163373ffffffffffffffffffffffffffffffffffffffff167fe27dcf9b3b50e7d3af96f88c64ebd7307cdef3359182881bfe7210b42433a44960405160405180910390a45b5050565b600080600080600061165e888888610fd8565b67ffffffffffffffff16935061167588888861123c565b6bffffffffffffffffffffffff169250600084111515611723576040517f08c379a000000000000000000000000000000000000000000000000000000000815260040180806020018281038252602a8152602001807f4572726f723a2053756273637269626572206d7573742068617665206120737581526020017f62736372697074696f6e0000000000000000000000000000000000000000000081525060400191505060405180910390fd5b824310156119dc576117368888886106ed565b6bffffffffffffffffffffffff16430391508184039050600360009054906101000a900473ffffffffffffffffffffffffffffffffffffffff1673ffffffffffffffffffffffffffffffffffffffff16633b058aa7888a89866040518563ffffffff167c0100000000000000000000000000000000000000000000000000000000028152600401808573ffffffffffffffffffffffffffffffffffffffff1673ffffffffffffffffffffffffffffffffffffffff1681526020018473ffffffffffffffffffffffffffffffffffffffff1673ffffffffffffffffffffffffffffffffffffffff1681526020018360001916600019168152602001828152602001945050505050602060405180830381600087803b15801561185657600080fd5b505af115801561186a573d6000803e3d6000fd5b505050506040513d602081101561188057600080fd5b810190808051906020019092919050505050600360009054906101000a900473ffffffffffffffffffffffffffffffffffffffff1673ffffffffffffffffffffffffffffffffffffffff1663f6dfac25888a89856040518563ffffffff167c0100000000000000000000000000000000000000000000000000000000028152600401808573ffffffffffffffffffffffffffffffffffffffff1673ffffffffffffffffffffffffffffffffffffffff1681526020018473ffffffffffffffffffffffffffffffffffffffff1673ffffffffffffffffffffffffffffffffffffffff1681526020018360001916600019168152602001828152602001945050505050602060405180830381600087803b15801561199b57600080fd5b505af11580156119af573d6000803e3d6000fd5b505050506040513d60208110156119c557600080fd5b810190808051906020019092919050505050611b22565b600360009054906101000a900473ffffffffffffffffffffffffffffffffffffffff1673ffffffffffffffffffffffffffffffffffffffff16633b058aa7888a89886040518563ffffffff167c0100000000000000000000000000000000000000000000000000000000028152600401808573ffffffffffffffffffffffffffffffffffffffff1673ffffffffffffffffffffffffffffffffffffffff1681526020018473ffffffffffffffffffffffffffffffffffffffff1673ffffffffffffffffffffffffffffffffffffffff1681526020018360001916600019168152602001828152602001945050505050602060405180830381600087803b158015611ae557600080fd5b505af1158015611af9573d6000803e3d6000fd5b505050506040513d6020811015611b0f57600080fd5b8101908080519060200190929190505050505b611b2d888888612497565b60019450505050509392505050565b6000600260009054906101000a900473ffffffffffffffffffffffffffffffffffffffff1673ffffffffffffffffffffffffffffffffffffffff1663358177736040518163ffffffff167c01000000000000000000000000000000000000000000000000000000000281526004018080602001828103825260078152602001807f424f4e4441474500000000000000000000000000000000000000000000000000815250602001915050602060405180830381600087803b158015611c0057600080fd5b505af1158015611c14573d6000803e3d6000fd5b505050506040513d6020811015611c2a57600080fd5b8101908080519060200190929190505050600460006101000a81548173ffffffffffffffffffffffffffffffffffffffff021916908373ffffffffffffffffffffffffffffffffffffffff160217905550600460009054906101000a900473ffffffffffffffffffffffffffffffffffffffff16600360006101000a81548173ffffffffffffffffffffffffffffffffffffffff021916908373ffffffffffffffffffffffffffffffffffffffff160217905550600260009054906101000a900473ffffffffffffffffffffffffffffffffffffffff1673ffffffffffffffffffffffffffffffffffffffff1663358177736040518163ffffffff167c01000000000000000000000000000000000000000000000000000000000281526004018080602001828103825260088152602001807f4441544142415345000000000000000000000000000000000000000000000000815250602001915050602060405180830381600087803b158015611da057600080fd5b505af1158015611db4573d6000803e3d6000fd5b505050506040513d6020811015611dca57600080fd5b8101908080519060200190929190505050905080600560006101000a81548173ffffffffffffffffffffffffffffffffffffffff021916908373ffffffffffffffffffffffffffffffffffffffff16021790555050565b600560009054906101000a900473ffffffffffffffffffffffffffffffffffffffff1673ffffffffffffffffffffffffffffffffffffffff166354c552db87878760405160200180807f737562736372697074696f6e7300000000000000000000000000000000000000815250600d018473ffffffffffffffffffffffffffffffffffffffff1673ffffffffffffffffffffffffffffffffffffffff166c010000000000000000000000000281526014018373ffffffffffffffffffffffffffffffffffffffff1673ffffffffffffffffffffffffffffffffffffffff166c010000000000000000000000000281526014018260001916600019168152602001807f646f74730000000000000000000000000000000000000000000000000000000081525060040193505050506040516020818303038152906040526040518082805190602001908083835b602083101515611f925780518252602082019150602081019050602083039250611f6d565b6001836020036101000a0380198251168184511680821785525050505050509050019150506040518091039020856040518363ffffffff167c01000000000000000000000000000000000000000000000000000000000281526004018083600019166000191681526020018267ffffffffffffffff16815260200192505050600060405180830381600087803b15801561202b57600080fd5b505af115801561203f573d6000803e3d6000fd5b50505050600560009054906101000a900473ffffffffffffffffffffffffffffffffffffffff1673ffffffffffffffffffffffffffffffffffffffff166354c552db87878760405160200180807f737562736372697074696f6e7300000000000000000000000000000000000000815250600d018473ffffffffffffffffffffffffffffffffffffffff1673ffffffffffffffffffffffffffffffffffffffff166c010000000000000000000000000281526014018373ffffffffffffffffffffffffffffffffffffffff1673ffffffffffffffffffffffffffffffffffffffff166c010000000000000000000000000281526014018260001916600019168152602001807f626c6f636b537461727400000000000000000000000000000000000000000000815250600a0193505050506040516020818303038152906040526040518082805190602001908083835b6020831015156121b4578051825260208201915060208101905060208303925061218f565b6001836020036101000a0380198251168184511680821785525050505050509050019150506040518091039020846bffffffffffffffffffffffff166040518363ffffffff167c010000000000000000000000000000000000000000000000000000000002815260040180836000191660001916815260200182815260200192505050600060405180830381600087803b15801561225157600080fd5b505af1158015612265573d6000803e3d6000fd5b50505050600560009054906101000a900473ffffffffffffffffffffffffffffffffffffffff1673ffffffffffffffffffffffffffffffffffffffff166354c552db87878760405160200180807f737562736372697074696f6e7300000000000000000000000000000000000000815250600d018473ffffffffffffffffffffffffffffffffffffffff1673ffffffffffffffffffffffffffffffffffffffff166c010000000000000000000000000281526014018373ffffffffffffffffffffffffffffffffffffffff1673ffffffffffffffffffffffffffffffffffffffff166c010000000000000000000000000281526014018260001916600019168152602001807f707265426c6f636b456e64000000000000000000000000000000000000000000815250600b0193505050506040516020818303038152906040526040518082805190602001908083835b6020831015156123da57805182526020820191506020810190506020830392506123b5565b6001836020036101000a0380198251168184511680821785525050505050509050019150506040518091039020836bffffffffffffffffffffffff166040518363ffffffff167c010000000000000000000000000000000000000000000000000000000002815260040180836000191660001916815260200182815260200192505050600060405180830381600087803b15801561247757600080fd5b505af115801561248b573d6000803e3d6000fd5b50505050505050505050565b600560009054906101000a900473ffffffffffffffffffffffffffffffffffffffff1673ffffffffffffffffffffffffffffffffffffffff166354c552db84848460405160200180807f737562736372697074696f6e7300000000000000000000000000000000000000815250600d018473ffffffffffffffffffffffffffffffffffffffff1673ffffffffffffffffffffffffffffffffffffffff166c010000000000000000000000000281526014018373ffffffffffffffffffffffffffffffffffffffff1673ffffffffffffffffffffffffffffffffffffffff166c010000000000000000000000000281526014018260001916600019168152602001807f646f74730000000000000000000000000000000000000000000000000000000081525060040193505050506040516020818303038152906040526040518082805190602001908083835b60208310151561260857805182526020820191506020810190506020830392506125e3565b6001836020036101000a038019825116818451168082178552505050505050905001915050604051809103902060006040518363ffffffff167c010000000000000000000000000000000000000000000000000000000002815260040180836000191660001916815260200182815260200192505050600060405180830381600087803b15801561269857600080fd5b505af11580156126ac573d6000803e3d6000fd5b50505050600560009054906101000a900473ffffffffffffffffffffffffffffffffffffffff1673ffffffffffffffffffffffffffffffffffffffff166354c552db84848460405160200180807f737562736372697074696f6e7300000000000000000000000000000000000000815250600d018473ffffffffffffffffffffffffffffffffffffffff1673ffffffffffffffffffffffffffffffffffffffff166c010000000000000000000000000281526014018373ffffffffffffffffffffffffffffffffffffffff1673ffffffffffffffffffffffffffffffffffffffff166c010000000000000000000000000281526014018260001916600019168152602001807f626c6f636b537461727400000000000000000000000000000000000000000000815250600a0193505050506040516020818303038152906040526040518082805190602001908083835b60208310151561282157805182526020820191506020810190506020830392506127fc565b6001836020036101000a038019825116818451168082178552505050505050905001915050604051809103902060006040518363ffffffff167c010000000000000000000000000000000000000000000000000000000002815260040180836000191660001916815260200182815260200192505050600060405180830381600087803b1580156128b157600080fd5b505af11580156128c5573d6000803e3d6000fd5b50505050600560009054906101000a900473ffffffffffffffffffffffffffffffffffffffff1673ffffffffffffffffffffffffffffffffffffffff166354c552db84848460405160200180807f737562736372697074696f6e7300000000000000000000000000000000000000815250600d018473ffffffffffffffffffffffffffffffffffffffff1673ffffffffffffffffffffffffffffffffffffffff166c010000000000000000000000000281526014018373ffffffffffffffffffffffffffffffffffffffff1673ffffffffffffffffffffffffffffffffffffffff166c010000000000000000000000000281526014018260001916600019168152602001807f707265426c6f636b456e64000000000000000000000000000000000000000000815250600b0193505050506040516020818303038152906040526040518082805190602001908083835b602083101515612a3a5780518252602082019150602081019050602083039250612a15565b6001836020036101000a038019825116818451168082178552505050505050905001915050604051809103902060006040518363ffffffff167c010000000000000000000000000000000000000000000000000000000002815260040180836000191660001916815260200182815260200192505050600060405180830381600087803b158015612aca57600080fd5b505af1158015612ade573d6000803e3d6000fd5b505050505050505600a165627a7a72305820336262f5eb558ac644f9eb646627c7596b966aad52bf04b79cc877d38a0754580029",
  "source": "pragma solidity ^0.4.24;\n// v1.0\n\nimport \"../../lib/ownership/Upgradable.sol\";\nimport \"../../lib/lifecycle/Destructible.sol\";\nimport \"../bondage/BondageInterface.sol\";\nimport \"./ArbiterInterface.sol\";\nimport \"../database/DatabaseInterface.sol\";\n\n\ncontract Arbiter is Destructible, ArbiterInterface, Upgradable {\n    // Called when a data purchase is initiated\n    event DataPurchase(\n        address indexed provider,          // Etheruem address of the provider\n        address indexed subscriber,        // Ethereum address of the subscriber\n        uint256 publicKey,                 // Public key of the subscriber\n        uint256 indexed amount,            // Amount (in 1/100 ZAP) of ethereum sent\n        bytes32[] endpointParams,          // Endpoint specific(nonce,encrypted_uuid),\n        bytes32 endpoint                   // Endpoint specifier\n    );\n\n    // Called when a data subscription is ended by either provider or terminator\n    event DataSubscriptionEnd(\n        address indexed provider,                      // Provider from the subscription\n        address indexed subscriber,                    // Subscriber from the subscription\n        SubscriptionTerminator indexed terminator      // Which terminated the contract\n    );\n\n    // Called when party passes arguments to another party\n    event ParamsPassed(\n        address indexed sender,\n        address indexed receiver,\n        bytes32 endpoint,\n        bytes32[] params\n    );\n\n    // Used to specify who is the terminator of a contract\n    enum SubscriptionTerminator { Provider, Subscriber }\n\n    BondageInterface bondage;\n    address public bondageAddress;\n\n    // database address and reference\n    DatabaseInterface public db;\n\n    constructor(address c) Upgradable(c) public {\n        _updateDependencies();\n    }\n\n    function _updateDependencies() internal {\n        bondageAddress = coordinator.getContract(\"BONDAGE\");\n        bondage = BondageInterface(bondageAddress);\n\n        address databaseAddress = coordinator.getContract(\"DATABASE\");\n        db = DatabaseInterface(databaseAddress);\n    }\n\n    //@dev broadcast parameters from sender to offchain receiver\n    /// @param receiver address\n    /// @param endpoint Endpoint specifier\n    /// @param params arbitrary params to be passed\n    function passParams(address receiver, bytes32 endpoint, bytes32[] params) public {\n        emit ParamsPassed(msg.sender, receiver, endpoint, params);\n    }\n\n    /// @dev subscribe to specified number of blocks of provider\n    /// @param providerAddress Provider address\n    /// @param endpoint Endpoint specifier\n    /// @param endpointParams Endpoint specific params\n    /// @param publicKey Public key of the purchaser\n    /// @param blocks Number of blocks subscribed, 1block=1dot\n    function initiateSubscription(\n        address providerAddress,   //\n        bytes32 endpoint,          //\n        bytes32[] endpointParams,  //\n        uint256 publicKey,         // Public key of the purchaser\n        uint64 blocks              //\n    )\n        public\n    {\n        // Must be atleast one block\n        require(blocks > 0, \"Error: Must be at least one block\");\n\n        // Can't reinitiate a currently active contract\n        require(getDots(providerAddress, msg.sender, endpoint) == 0, \"Error: Cannot reinstantiate a currently active contract\");\n\n        // Escrow the necessary amount of dots\n        bondage.escrowDots(msg.sender, providerAddress, endpoint, blocks);\n\n        // Initiate the subscription struct\n        setSubscription(\n            providerAddress,\n            msg.sender,\n            endpoint,\n            blocks,\n            uint96(block.number),\n            uint96(block.number) + uint96(blocks)\n        );\n\n        emit DataPurchase(\n            providerAddress,\n            msg.sender,\n            publicKey,\n            blocks,\n            endpointParams,\n            endpoint\n        );\n    }\n\n    /// @dev get subscription info\n    function getSubscription(address providerAddress, address subscriberAddress, bytes32 endpoint)\n        public\n        view\n        returns (uint64 dots, uint96 blockStart, uint96 preBlockEnd)\n    {\n        return (\n            getDots(providerAddress, subscriberAddress, endpoint),\n            getBlockStart(providerAddress, subscriberAddress, endpoint),\n            getPreBlockEnd(providerAddress, subscriberAddress, endpoint)\n        );\n    }\n\n    /// @dev Finish the data feed from the provider\n    function endSubscriptionProvider(\n        address subscriberAddress,\n        bytes32 endpoint\n    )\n        public\n    {\n        // Emit an event on success about who ended the contract\n        if (endSubscription(msg.sender, subscriberAddress, endpoint))\n            emit DataSubscriptionEnd(\n                msg.sender,\n                subscriberAddress,\n                SubscriptionTerminator.Provider\n            );\n    }\n\n    /// @dev Finish the data feed from the subscriber\n    function endSubscriptionSubscriber(\n        address providerAddress,\n        bytes32 endpoint\n    )\n        public\n    {\n        // Emit an event on success about who ended the contract\n        if (endSubscription(providerAddress, msg.sender, endpoint))\n            emit DataSubscriptionEnd(\n                providerAddress,\n                msg.sender,\n                SubscriptionTerminator.Subscriber\n            );\n    }\n\n    /// @dev Finish the data feed\n    function endSubscription(\n        address providerAddress,\n        address subscriberAddress,\n        bytes32 endpoint\n    )\n        private\n        returns (bool)\n    {\n        // get the total value/block length of this subscription\n        uint256 dots = getDots(providerAddress, subscriberAddress, endpoint);\n        uint256 preblockend = getPreBlockEnd(providerAddress, subscriberAddress, endpoint);\n        // Make sure the subscriber has a subscription\n        require(dots > 0, \"Error: Subscriber must have a subscription\");\n\n        if (block.number < preblockend) {\n            // Subscription ended early\n            uint256 earnedDots = block.number - getBlockStart(providerAddress, subscriberAddress, endpoint);\n            uint256 returnedDots = dots - earnedDots;\n\n            // Transfer the earned dots to the provider\n            bondage.releaseDots(\n                subscriberAddress,\n                providerAddress,\n                endpoint,\n                earnedDots\n            );\n            //  Transfer the returned dots to the subscriber\n            bondage.returnDots(\n                subscriberAddress,\n                providerAddress,\n                endpoint,\n                returnedDots\n            );\n        } else {\n            // Transfer all the dots\n            bondage.releaseDots(\n                subscriberAddress,\n                providerAddress,\n                endpoint,\n                dots\n            );\n        }\n        // Kill the subscription\n        deleteSubscription(providerAddress, subscriberAddress, endpoint);\n        return true;\n    }\n\n\n    /*** --- *** STORAGE METHODS *** --- ***/\n\n    /// @dev get subscriber dots remaining for specified provider endpoint\n    function getDots(\n        address providerAddress,\n        address subscriberAddress,\n        bytes32 endpoint\n    )\n        public\n        view\n        returns (uint64)\n    {\n        return uint64(db.getNumber(keccak256(abi.encodePacked('subscriptions', providerAddress, subscriberAddress, endpoint, 'dots'))));\n    }\n\n    /// @dev get first subscription block number\n    function getBlockStart(\n        address providerAddress,\n        address subscriberAddress,\n        bytes32 endpoint\n    )\n        public\n        view\n        returns (uint96)\n    {\n        return uint96(db.getNumber(keccak256(abi.encodePacked('subscriptions', providerAddress, subscriberAddress, endpoint, 'blockStart'))));\n    }\n\n    /// @dev get last subscription block number\n    function getPreBlockEnd(\n        address providerAddress,\n        address subscriberAddress,\n        bytes32 endpoint\n    )\n        public\n        view\n        returns (uint96)\n    {\n        return uint96(db.getNumber(keccak256(abi.encodePacked('subscriptions', providerAddress, subscriberAddress, endpoint, 'preBlockEnd'))));\n    }\n\n    /**** Set Methods ****/\n\n    /// @dev store new subscription\n    function setSubscription(\n        address providerAddress,\n        address subscriberAddress,\n        bytes32 endpoint,\n        uint64 dots,\n        uint96 blockStart,\n        uint96 preBlockEnd\n    )\n        private\n    {\n        db.setNumber(keccak256(abi.encodePacked('subscriptions', providerAddress, subscriberAddress, endpoint, 'dots')), dots);\n        db.setNumber(keccak256(abi.encodePacked('subscriptions', providerAddress, subscriberAddress, endpoint, 'blockStart')), uint256(blockStart));\n        db.setNumber(keccak256(abi.encodePacked('subscriptions', providerAddress, subscriberAddress, endpoint, 'preBlockEnd')), uint256(preBlockEnd));\n    }\n\n    /**** Delete Methods ****/\n\n    /// @dev remove subscription\n    function deleteSubscription(\n        address providerAddress,\n        address subscriberAddress,\n        bytes32 endpoint\n    )\n        private\n    {\n        db.setNumber(keccak256(abi.encodePacked('subscriptions', providerAddress, subscriberAddress, endpoint, 'dots')), 0);\n        db.setNumber(keccak256(abi.encodePacked('subscriptions', providerAddress, subscriberAddress, endpoint, 'blockStart')), uint256(0));\n        db.setNumber(keccak256(abi.encodePacked('subscriptions', providerAddress, subscriberAddress, endpoint, 'preBlockEnd')), uint256(0));\n    }\n}\n\n    /*************************************** STORAGE ****************************************\n    * 'holders', holderAddress, 'initialized', oracleAddress => {uint256} 1 -> provider-subscriber initialized, 0 -> not initialized\n    * 'holders', holderAddress, 'bonds', oracleAddress, endpoint => {uint256} number of dots this address has bound to this endpoint\n    * 'oracles', oracleAddress, endpoint, 'broker' => {address} address of endpoint broker, 0 if none\n    * 'escrow', holderAddress, oracleAddress, endpoint => {uint256} amount of Zap that have been escrowed\n    * 'totalBound', oracleAddress, endpoint => {uint256} amount of Zap bound to this endpoint\n    * 'totalIssued', oracleAddress, endpoint => {uint256} number of dots issued by this endpoint\n    * 'holders', holderAddress, 'oracleList' => {address[]} array of oracle addresses associated with this holder\n    ****************************************************************************************/\n",
  "sourcePath": "/Users/samfarber/Desktop/auxmarket-/contracts/platform/arbiter/Arbiter.sol",
  "compiler": {
    "name": "solc",
    "version": "0.4.25+commit.59dbf8f1.Emscripten.clang"
  },
  "schemaVersion": "2.0.2",
  "updatedAt": "2019-07-12T18:45:48.179Z"
}