{
  "contractName": "Dispatch",
  "abi": [
    {
      "constant": true,
      "inputs": [],
      "name": "db",
      "outputs": [
        {
          "name": "",
          "type": "address"
        }
      ],
      "payable": false,
      "stateMutability": "view",
      "type": "function"
    },
    {
      "constant": false,
      "inputs": [],
      "name": "updateDependencies",
      "outputs": [],
      "payable": false,
      "stateMutability": "nonpayable",
      "type": "function"
    },
    {
      "constant": true,
      "inputs": [],
      "name": "owner",
      "outputs": [
        {
          "name": "",
          "type": "address"
        }
      ],
      "payable": false,
      "stateMutability": "view",
      "type": "function"
    },
    {
      "constant": true,
      "inputs": [],
      "name": "bondage",
      "outputs": [
        {
          "name": "",
          "type": "address"
        }
      ],
      "payable": false,
      "stateMutability": "view",
      "type": "function"
    },
    {
      "constant": false,
      "inputs": [],
      "name": "selfDestruct",
      "outputs": [],
      "payable": false,
      "stateMutability": "nonpayable",
      "type": "function"
    },
    {
      "constant": true,
      "inputs": [],
      "name": "bondageAddress",
      "outputs": [
        {
          "name": "",
          "type": "address"
        }
      ],
      "payable": false,
      "stateMutability": "view",
      "type": "function"
    },
    {
      "constant": false,
      "inputs": [
        {
          "name": "newOwner",
          "type": "address"
        }
      ],
      "name": "transferOwnership",
      "outputs": [],
      "payable": false,
      "stateMutability": "nonpayable",
      "type": "function"
    },
    {
      "inputs": [
        {
          "name": "c",
          "type": "address"
        }
      ],
      "payable": false,
      "stateMutability": "nonpayable",
      "type": "constructor"
    },
    {
      "anonymous": false,
      "inputs": [
        {
          "indexed": true,
          "name": "id",
          "type": "uint256"
        },
        {
          "indexed": true,
          "name": "provider",
          "type": "address"
        },
        {
          "indexed": true,
          "name": "subscriber",
          "type": "address"
        },
        {
          "indexed": false,
          "name": "query",
          "type": "string"
        },
        {
          "indexed": false,
          "name": "endpoint",
          "type": "bytes32"
        },
        {
          "indexed": false,
          "name": "endpointParams",
          "type": "bytes32[]"
        },
        {
          "indexed": false,
          "name": "onchainSubscriber",
          "type": "bool"
        }
      ],
      "name": "Incoming",
      "type": "event"
    },
    {
      "anonymous": false,
      "inputs": [
        {
          "indexed": true,
          "name": "subscriber",
          "type": "address"
        },
        {
          "indexed": true,
          "name": "provider",
          "type": "address"
        },
        {
          "indexed": true,
          "name": "endpoint",
          "type": "bytes32"
        }
      ],
      "name": "FulfillQuery",
      "type": "event"
    },
    {
      "anonymous": false,
      "inputs": [
        {
          "indexed": true,
          "name": "id",
          "type": "uint256"
        },
        {
          "indexed": true,
          "name": "subscriber",
          "type": "address"
        },
        {
          "indexed": true,
          "name": "provider",
          "type": "address"
        },
        {
          "indexed": false,
          "name": "response",
          "type": "bytes32[]"
        }
      ],
      "name": "OffchainResponse",
      "type": "event"
    },
    {
      "anonymous": false,
      "inputs": [
        {
          "indexed": true,
          "name": "id",
          "type": "uint256"
        },
        {
          "indexed": true,
          "name": "subscriber",
          "type": "address"
        },
        {
          "indexed": true,
          "name": "provider",
          "type": "address"
        },
        {
          "indexed": false,
          "name": "response",
          "type": "int256[]"
        }
      ],
      "name": "OffchainResponseInt",
      "type": "event"
    },
    {
      "anonymous": false,
      "inputs": [
        {
          "indexed": true,
          "name": "id",
          "type": "uint256"
        },
        {
          "indexed": true,
          "name": "subscriber",
          "type": "address"
        },
        {
          "indexed": true,
          "name": "provider",
          "type": "address"
        },
        {
          "indexed": false,
          "name": "response1",
          "type": "string"
        }
      ],
      "name": "OffchainResult1",
      "type": "event"
    },
    {
      "anonymous": false,
      "inputs": [
        {
          "indexed": true,
          "name": "id",
          "type": "uint256"
        },
        {
          "indexed": true,
          "name": "subscriber",
          "type": "address"
        },
        {
          "indexed": true,
          "name": "provider",
          "type": "address"
        },
        {
          "indexed": false,
          "name": "response1",
          "type": "string"
        },
        {
          "indexed": false,
          "name": "response2",
          "type": "string"
        }
      ],
      "name": "OffchainResult2",
      "type": "event"
    },
    {
      "anonymous": false,
      "inputs": [
        {
          "indexed": true,
          "name": "id",
          "type": "uint256"
        },
        {
          "indexed": true,
          "name": "subscriber",
          "type": "address"
        },
        {
          "indexed": true,
          "name": "provider",
          "type": "address"
        },
        {
          "indexed": false,
          "name": "response1",
          "type": "string"
        },
        {
          "indexed": false,
          "name": "response2",
          "type": "string"
        },
        {
          "indexed": false,
          "name": "response3",
          "type": "string"
        }
      ],
      "name": "OffchainResult3",
      "type": "event"
    },
    {
      "anonymous": false,
      "inputs": [
        {
          "indexed": true,
          "name": "id",
          "type": "uint256"
        },
        {
          "indexed": true,
          "name": "subscriber",
          "type": "address"
        },
        {
          "indexed": true,
          "name": "provider",
          "type": "address"
        },
        {
          "indexed": false,
          "name": "response1",
          "type": "string"
        },
        {
          "indexed": false,
          "name": "response2",
          "type": "string"
        },
        {
          "indexed": false,
          "name": "response3",
          "type": "string"
        },
        {
          "indexed": false,
          "name": "response4",
          "type": "string"
        }
      ],
      "name": "OffchainResult4",
      "type": "event"
    },
    {
      "anonymous": false,
      "inputs": [
        {
          "indexed": true,
          "name": "id",
          "type": "uint256"
        },
        {
          "indexed": true,
          "name": "subscriber",
          "type": "address"
        },
        {
          "indexed": true,
          "name": "provider",
          "type": "address"
        }
      ],
      "name": "CanceledRequest",
      "type": "event"
    },
    {
      "anonymous": false,
      "inputs": [
        {
          "indexed": true,
          "name": "id",
          "type": "uint256"
        },
        {
          "indexed": true,
          "name": "subscriber",
          "type": "address"
        },
        {
          "indexed": true,
          "name": "provider",
          "type": "address"
        }
      ],
      "name": "RevertCancelation",
      "type": "event"
    },
    {
      "anonymous": false,
      "inputs": [
        {
          "indexed": true,
          "name": "previousOwner",
          "type": "address"
        },
        {
          "indexed": true,
          "name": "newOwner",
          "type": "address"
        }
      ],
      "name": "OwnershipTransferred",
      "type": "event"
    },
    {
      "constant": false,
      "inputs": [
        {
          "name": "provider",
          "type": "address"
        },
        {
          "name": "userQuery",
          "type": "string"
        },
        {
          "name": "endpoint",
          "type": "bytes32"
        },
        {
          "name": "endpointParams",
          "type": "bytes32[]"
        }
      ],
      "name": "query",
      "outputs": [
        {
          "name": "id",
          "type": "uint256"
        }
      ],
      "payable": false,
      "stateMutability": "nonpayable",
      "type": "function"
    },
    {
      "constant": false,
      "inputs": [
        {
          "name": "id",
          "type": "uint256"
        }
      ],
      "name": "cancelQuery",
      "outputs": [],
      "payable": false,
      "stateMutability": "nonpayable",
      "type": "function"
    },
    {
      "constant": false,
      "inputs": [
        {
          "name": "id",
          "type": "uint256"
        },
        {
          "name": "response",
          "type": "bytes32[]"
        }
      ],
      "name": "respondBytes32Array",
      "outputs": [
        {
          "name": "",
          "type": "bool"
        }
      ],
      "payable": false,
      "stateMutability": "nonpayable",
      "type": "function"
    },
    {
      "constant": false,
      "inputs": [
        {
          "name": "id",
          "type": "uint256"
        },
        {
          "name": "response",
          "type": "int256[]"
        }
      ],
      "name": "respondIntArray",
      "outputs": [
        {
          "name": "",
          "type": "bool"
        }
      ],
      "payable": false,
      "stateMutability": "nonpayable",
      "type": "function"
    },
    {
      "constant": false,
      "inputs": [
        {
          "name": "id",
          "type": "uint256"
        },
        {
          "name": "response",
          "type": "string"
        }
      ],
      "name": "respond1",
      "outputs": [
        {
          "name": "",
          "type": "bool"
        }
      ],
      "payable": false,
      "stateMutability": "nonpayable",
      "type": "function"
    },
    {
      "constant": false,
      "inputs": [
        {
          "name": "id",
          "type": "uint256"
        },
        {
          "name": "response1",
          "type": "string"
        },
        {
          "name": "response2",
          "type": "string"
        }
      ],
      "name": "respond2",
      "outputs": [
        {
          "name": "",
          "type": "bool"
        }
      ],
      "payable": false,
      "stateMutability": "nonpayable",
      "type": "function"
    },
    {
      "constant": false,
      "inputs": [
        {
          "name": "id",
          "type": "uint256"
        },
        {
          "name": "response1",
          "type": "string"
        },
        {
          "name": "response2",
          "type": "string"
        },
        {
          "name": "response3",
          "type": "string"
        }
      ],
      "name": "respond3",
      "outputs": [
        {
          "name": "",
          "type": "bool"
        }
      ],
      "payable": false,
      "stateMutability": "nonpayable",
      "type": "function"
    },
    {
      "constant": false,
      "inputs": [
        {
          "name": "id",
          "type": "uint256"
        },
        {
          "name": "response1",
          "type": "string"
        },
        {
          "name": "response2",
          "type": "string"
        },
        {
          "name": "response3",
          "type": "string"
        },
        {
          "name": "response4",
          "type": "string"
        }
      ],
      "name": "respond4",
      "outputs": [
        {
          "name": "",
          "type": "bool"
        }
      ],
      "payable": false,
      "stateMutability": "nonpayable",
      "type": "function"
    },
    {
      "constant": true,
      "inputs": [
        {
          "name": "id",
          "type": "uint256"
        }
      ],
      "name": "getProvider",
      "outputs": [
        {
          "name": "",
          "type": "address"
        }
      ],
      "payable": false,
      "stateMutability": "view",
      "type": "function"
    },
    {
      "constant": true,
      "inputs": [
        {
          "name": "id",
          "type": "uint256"
        }
      ],
      "name": "getSubscriber",
      "outputs": [
        {
          "name": "",
          "type": "address"
        }
      ],
      "payable": false,
      "stateMutability": "view",
      "type": "function"
    },
    {
      "constant": true,
      "inputs": [
        {
          "name": "id",
          "type": "uint256"
        }
      ],
      "name": "getEndpoint",
      "outputs": [
        {
          "name": "",
          "type": "bytes32"
        }
      ],
      "payable": false,
      "stateMutability": "view",
      "type": "function"
    },
    {
      "constant": true,
      "inputs": [
        {
          "name": "id",
          "type": "uint256"
        }
      ],
      "name": "getStatus",
      "outputs": [
        {
          "name": "",
          "type": "uint256"
        }
      ],
      "payable": false,
      "stateMutability": "view",
      "type": "function"
    },
    {
      "constant": true,
      "inputs": [
        {
          "name": "id",
          "type": "uint256"
        }
      ],
      "name": "getCancel",
      "outputs": [
        {
          "name": "",
          "type": "uint256"
        }
      ],
      "payable": false,
      "stateMutability": "view",
      "type": "function"
    },
    {
      "constant": true,
      "inputs": [
        {
          "name": "id",
          "type": "uint256"
        }
      ],
      "name": "getUserQuery",
      "outputs": [
        {
          "name": "",
          "type": "string"
        }
      ],
      "payable": false,
      "stateMutability": "view",
      "type": "function"
    },
    {
      "constant": true,
      "inputs": [
        {
          "name": "id",
          "type": "uint256"
        }
      ],
      "name": "getSubscriberOnchain",
      "outputs": [
        {
          "name": "",
          "type": "bool"
        }
      ],
      "payable": false,
      "stateMutability": "view",
      "type": "function"
    }
  ],
  "bytecode": "0x608060405234801561001057600080fd5b506040516020806148c48339810180604052810190808051906020019092919050505080336000806101000a81548173ffffffffffffffffffffffffffffffffffffffff021916908373ffffffffffffffffffffffffffffffffffffffff16021790555080600160006101000a81548173ffffffffffffffffffffffffffffffffffffffff021916908373ffffffffffffffffffffffffffffffffffffffff16021790555080600260006101000a81548173ffffffffffffffffffffffffffffffffffffffff021916908373ffffffffffffffffffffffffffffffffffffffff16021790555050506147bd806101076000396000f300608060405260043610610128576000357c0100000000000000000000000000000000000000000000000000000000900463ffffffff168063027521ce1461012d5780630cbe69a11461016e57806325df1e77146101cb5780633485d34c1461023857806337a8c560146102dd5780633b90dfa8146103225780634d655aff146103af5780635c42d079146104065780635c622a0e146104735780636843581c146104b45780636e5ecdff146105115780637237dc0b146105285780637de7cc66146105555780638da5cb5b146105ea5780638ed2002114610641578063937bbc4a146106985780639cb8a26a146106e1578063dc7317c9146106f8578063e00dbb411461079e578063ef05ab0b146107f5578063f2fde38b14610852578063fedea28814610895575b600080fd5b34801561013957600080fd5b506101586004803603810190808035906020019092919050505061090a565b6040518082815260200191505060405180910390f35b34801561017a57600080fd5b506101b160048036038101908080359060200190929190803590602001908201803590602001919091929391929390505050610ab8565b604051808215151515815260200191505060405180910390f35b3480156101d757600080fd5b506101f660048036038101908080359060200190929190505050610c6b565b604051808273ffffffffffffffffffffffffffffffffffffffff1673ffffffffffffffffffffffffffffffffffffffff16815260200191505060405180910390f35b34801561024457600080fd5b506102c360048036038101908080359060200190929190803590602001908201803590602001919091929391929390803590602001908201803590602001919091929391929390803590602001908201803590602001919091929391929390803590602001908201803590602001919091929391929390505050610e19565b604051808215151515815260200191505060405180910390f35b3480156102e957600080fd5b5061030860048036038101908080359060200190929190505050611098565b604051808215151515815260200191505060405180910390f35b34801561032e57600080fd5b506103956004803603810190808035906020019092919080359060200190820180359060200191909192939192939080359060200190820180359060200191909192939192939080359060200190820180359060200191909192939192939050505061125c565b604051808215151515815260200191505060405180910390f35b3480156103bb57600080fd5b506103c4611495565b604051808273ffffffffffffffffffffffffffffffffffffffff1673ffffffffffffffffffffffffffffffffffffffff16815260200191505060405180910390f35b34801561041257600080fd5b50610431600480360381019080803590602001909291905050506114bb565b604051808273ffffffffffffffffffffffffffffffffffffffff1673ffffffffffffffffffffffffffffffffffffffff16815260200191505060405180910390f35b34801561047f57600080fd5b5061049e60048036038101908080359060200190929190505050611669565b6040518082815260200191505060405180910390f35b3480156104c057600080fd5b506104f760048036038101908080359060200190929190803590602001908201803590602001919091929391929390505050611817565b604051808215151515815260200191505060405180910390f35b34801561051d57600080fd5b506105266119c4565b005b34801561053457600080fd5b5061055360048036038101908080359060200190929190505050611a93565b005b34801561056157600080fd5b506105d4600480360381019080803573ffffffffffffffffffffffffffffffffffffffff1690602001909291908035906020019082018035906020019190919293919293908035600019169060200190929190803590602001908201803590602001919091929391929390505050611dbf565b6040518082815260200191505060405180910390f35b3480156105f657600080fd5b506105ff61242b565b604051808273ffffffffffffffffffffffffffffffffffffffff1673ffffffffffffffffffffffffffffffffffffffff16815260200191505060405180910390f35b34801561064d57600080fd5b50610656612450565b604051808273ffffffffffffffffffffffffffffffffffffffff1673ffffffffffffffffffffffffffffffffffffffff16815260200191505060405180910390f35b3480156106a457600080fd5b506106c360048036038101908080359060200190929190505050612476565b60405180826000191660001916815260200191505060405180910390f35b3480156106ed57600080fd5b506106f6612624565b005b34801561070457600080fd5b50610723600480360381019080803590602001909291905050506126b9565b6040518080602001828103825283818151815260200191508051906020019080838360005b83811015610763578082015181840152602081019050610748565b50505050905090810190601f1680156107905780820380516001836020036101000a031916815260200191505b509250505060405180910390f35b3480156107aa57600080fd5b506107b36128bd565b604051808273ffffffffffffffffffffffffffffffffffffffff1673ffffffffffffffffffffffffffffffffffffffff16815260200191505060405180910390f35b34801561080157600080fd5b50610838600480360381019080803590602001909291908035906020019082018035906020019190919293919293905050506128e3565b604051808215151515815260200191505060405180910390f35b34801561085e57600080fd5b50610893600480360381019080803573ffffffffffffffffffffffffffffffffffffffff169060200190929190505050612a96565b005b3480156108a157600080fd5b506108f060048036038101908080359060200190929190803590602001908201803590602001919091929391929390803590602001908201803590602001919091929391929390505050612beb565b604051808215151515815260200191505060405180910390f35b6000600560009054906101000a900473ffffffffffffffffffffffffffffffffffffffff1673ffffffffffffffffffffffffffffffffffffffff16632ecb0d648360405160200180807f7175657269657300000000000000000000000000000000000000000000000000815250600701828152602001807f63616e63656c426c6f636b000000000000000000000000000000000000000000815250600b019150506040516020818303038152906040526040518082805190602001908083835b6020831015156109ef57805182526020820191506020810190506020830392506109ca565b6001836020036101000a03801982511681845116808217855250505050505090500191505060405180910390206040518263ffffffff167c0100000000000000000000000000000000000000000000000000000000028152600401808260001916600019168152602001915050602060405180830381600087803b158015610a7657600080fd5b505af1158015610a8a573d6000803e3d6000fd5b505050506040513d6020811015610aa057600080fd5b81019080805190602001909291905050509050919050565b60003373ffffffffffffffffffffffffffffffffffffffff16610ada856114bb565b73ffffffffffffffffffffffffffffffffffffffff16141580610b035750610b0184612dde565b155b15610b0d57600080fd5b610b1684611098565b15610bd457610b2484610c6b565b73ffffffffffffffffffffffffffffffffffffffff166363b41fe98585856040518463ffffffff167c0100000000000000000000000000000000000000000000000000000000028152600401808481526020018060200182810382528484828181526020019250602002808284378201915050945050505050600060405180830381600087803b158015610bb757600080fd5b505af1158015610bcb573d6000803e3d6000fd5b50505050610c60565b3373ffffffffffffffffffffffffffffffffffffffff16610bf485610c6b565b73ffffffffffffffffffffffffffffffffffffffff16857f92d44f3550f6aeaab26241971266a417e4385691402c27c5a1bf69b2c19210c68686604051808060200182810382528484828181526020019250602002808284378201915050935050505060405180910390a45b600190509392505050565b6000600560009054906101000a900473ffffffffffffffffffffffffffffffffffffffff1673ffffffffffffffffffffffffffffffffffffffff16632ecb0d648360405160200180807f7175657269657300000000000000000000000000000000000000000000000000815250600701828152602001807f7375627363726962657200000000000000000000000000000000000000000000815250600a019150506040516020818303038152906040526040518082805190602001908083835b602083101515610d505780518252602082019150602081019050602083039250610d2b565b6001836020036101000a03801982511681845116808217855250505050505090500191505060405180910390206040518263ffffffff167c0100000000000000000000000000000000000000000000000000000000028152600401808260001916600019168152602001915050602060405180830381600087803b158015610dd757600080fd5b505af1158015610deb573d6000803e3d6000fd5b505050506040513d6020811015610e0157600080fd5b81019080805190602001909291905050509050919050565b60003373ffffffffffffffffffffffffffffffffffffffff16610e3b8b6114bb565b73ffffffffffffffffffffffffffffffffffffffff16141580610e645750610e628a612dde565b155b15610e6e57600080fd5b610e778a611098565b15610f9857610e858a610c6b565b73ffffffffffffffffffffffffffffffffffffffff1663a267cf078b8b8b8b8b8b8b8b8b6040518a63ffffffff167c0100000000000000000000000000000000000000000000000000000000028152600401808a81526020018060200180602001806020018060200185810385528d8d82818152602001925080828437820191505085810384528b8b82818152602001925080828437820191505085810383528989828181526020019250808284378201915050858103825287878281815260200192508082843782019150509d5050505050505050505050505050600060405180830381600087803b158015610f7b57600080fd5b505af1158015610f8f573d6000803e3d6000fd5b50505050611087565b3373ffffffffffffffffffffffffffffffffffffffff16610fb88b610c6b565b73ffffffffffffffffffffffffffffffffffffffff168b7f5e141f0f2db9b2fa0d44e60384103676292be03cac75671374ea23e719dcd64b8c8c8c8c8c8c8c8c604051808060200180602001806020018060200185810385528d8d82818152602001925080828437820191505085810384528b8b82818152602001925080828437820191505085810383528989828181526020019250808284378201915050858103825287878281815260200192508082843782019150509c5050505050505050505050505060405180910390a45b600190509998505050505050505050565b600080600560009054906101000a900473ffffffffffffffffffffffffffffffffffffffff1673ffffffffffffffffffffffffffffffffffffffff16632ecb0d648460405160200180807f7175657269657300000000000000000000000000000000000000000000000000815250600701828152602001807f6f6e636861696e537562736372696265720000000000000000000000000000008152506011019150506040516020818303038152906040526040518082805190602001908083835b60208310151561117e5780518252602082019150602081019050602083039250611159565b6001836020036101000a03801982511681845116808217855250505050505090500191505060405180910390206040518263ffffffff167c0100000000000000000000000000000000000000000000000000000000028152600401808260001916600019168152602001915050602060405180830381600087803b15801561120557600080fd5b505af1158015611219573d6000803e3d6000fd5b505050506040513d602081101561122f57600080fd5b8101908080519060200190929190505050905060018114611251576000611254565b60015b915050919050565b60003373ffffffffffffffffffffffffffffffffffffffff1661127e896114bb565b73ffffffffffffffffffffffffffffffffffffffff161415806112a757506112a588612dde565b155b156112b157600080fd5b6112ba88611098565b156113b9576112c888610c6b565b73ffffffffffffffffffffffffffffffffffffffff1663d936a327898989898989896040518863ffffffff167c01000000000000000000000000000000000000000000000000000000000281526004018088815260200180602001806020018060200184810384528a8a82818152602001925080828437820191505084810383528888828181526020019250808284378201915050848103825286868281815260200192508082843782019150509a5050505050505050505050600060405180830381600087803b15801561139c57600080fd5b505af11580156113b0573d6000803e3d6000fd5b50505050611486565b3373ffffffffffffffffffffffffffffffffffffffff166113d989610c6b565b73ffffffffffffffffffffffffffffffffffffffff16897f5d15dbf2e2e3132b5a4fa750a08fbdc88bde1149224a6b1de740e50804707ef28a8a8a8a8a8a6040518080602001806020018060200184810384528a8a8281815260200192508082843782019150508481038352888882818152602001925080828437820191505084810382528686828181526020019250808284378201915050995050505050505050505060405180910390a45b60019050979650505050505050565b600560009054906101000a900473ffffffffffffffffffffffffffffffffffffffff1681565b6000600560009054906101000a900473ffffffffffffffffffffffffffffffffffffffff1673ffffffffffffffffffffffffffffffffffffffff16632ecb0d648360405160200180807f7175657269657300000000000000000000000000000000000000000000000000815250600701828152602001807f70726f76696465720000000000000000000000000000000000000000000000008152506008019150506040516020818303038152906040526040518082805190602001908083835b6020831015156115a0578051825260208201915060208101905060208303925061157b565b6001836020036101000a03801982511681845116808217855250505050505090500191505060405180910390206040518263ffffffff167c0100000000000000000000000000000000000000000000000000000000028152600401808260001916600019168152602001915050602060405180830381600087803b15801561162757600080fd5b505af115801561163b573d6000803e3d6000fd5b505050506040513d602081101561165157600080fd5b81019080805190602001909291905050509050919050565b6000600560009054906101000a900473ffffffffffffffffffffffffffffffffffffffff1673ffffffffffffffffffffffffffffffffffffffff16632ecb0d648360405160200180807f7175657269657300000000000000000000000000000000000000000000000000815250600701828152602001807f73746174757300000000000000000000000000000000000000000000000000008152506006019150506040516020818303038152906040526040518082805190602001908083835b60208310151561174e5780518252602082019150602081019050602083039250611729565b6001836020036101000a03801982511681845116808217855250505050505090500191505060405180910390206040518263ffffffff167c0100000000000000000000000000000000000000000000000000000000028152600401808260001916600019168152602001915050602060405180830381600087803b1580156117d557600080fd5b505af11580156117e9573d6000803e3d6000fd5b505050506040513d60208110156117ff57600080fd5b81019080805190602001909291905050509050919050565b60003373ffffffffffffffffffffffffffffffffffffffff16611839856114bb565b73ffffffffffffffffffffffffffffffffffffffff16141580611862575061186084612dde565b155b1561186c57600080fd5b61187584611098565b156119305761188384610c6b565b73ffffffffffffffffffffffffffffffffffffffff1663b69a375d8585856040518463ffffffff167c0100000000000000000000000000000000000000000000000000000000028152600401808481526020018060200182810382528484828181526020019250808284378201915050945050505050600060405180830381600087803b15801561191357600080fd5b505af1158015611927573d6000803e3d6000fd5b505050506119b9565b3373ffffffffffffffffffffffffffffffffffffffff1661195085610c6b565b73ffffffffffffffffffffffffffffffffffffffff16857f61ca5cd516a9a4012e4c147542d38223206ca531953abcb3272f579768d9dfb08686604051808060200182810382528484828181526020019250808284378201915050935050505060405180910390a45b600190509392505050565b600160009054906101000a900473ffffffffffffffffffffffffffffffffffffffff1673ffffffffffffffffffffffffffffffffffffffff163373ffffffffffffffffffffffffffffffffffffffff16141515611a89576040517f08c379a00000000000000000000000000000000000000000000000000000000081526004018080602001828103825260208152602001807f4572726f723a20436f6f7264696e61746f72204f6e6c792046756e6374696f6e81525060200191505060405180910390fd5b611a916132b6565b565b6000806000611aa184610c6b565b9250611aac846114bb565b9150611ab784612476565b90503373ffffffffffffffffffffffffffffffffffffffff168373ffffffffffffffffffffffffffffffffffffffff16141515611b5c576040517f08c379a00000000000000000000000000000000000000000000000000000000081526004018080602001828103825260178152602001807f4572726f723a2057726f6e67207375627363726962657200000000000000000081525060200191505060405180910390fd5b60006002811115611b6957fe5b611b7285611669565b6002811115611b7d57fe5b6002811115611b8857fe5b141515611bfd576040517f08c379a000000000000000000000000000000000000000000000000000000000815260040180806020018281038252601b8152602001807f4572726f723a205175657279206973206e6f742070656e64696e67000000000081525060200191505060405180910390fd5b611c0884600161359b565b600360009054906101000a900473ffffffffffffffffffffffffffffffffffffffff1673ffffffffffffffffffffffffffffffffffffffff1663f6dfac2584848460016040518563ffffffff167c0100000000000000000000000000000000000000000000000000000000028152600401808573ffffffffffffffffffffffffffffffffffffffff1673ffffffffffffffffffffffffffffffffffffffff1681526020018473ffffffffffffffffffffffffffffffffffffffff1673ffffffffffffffffffffffffffffffffffffffff1681526020018360001916600019168152602001828152602001945050505050602060405180830381600087803b158015611d1257600080fd5b505af1158015611d26573d6000803e3d6000fd5b505050506040513d6020811015611d3c57600080fd5b810190808051906020019092919050505050611d57846114bb565b73ffffffffffffffffffffffffffffffffffffffff16611d7685610c6b565b73ffffffffffffffffffffffffffffffffffffffff16857f4030457f4368d74748ca5f9c90692bd6c8a018884ddca38fcbce9e02179e777e60405160405180910390a450505050565b600080600080600360009054906101000a900473ffffffffffffffffffffffffffffffffffffffff1673ffffffffffffffffffffffffffffffffffffffff1663bbee3694338c8a6040518463ffffffff167c0100000000000000000000000000000000000000000000000000000000028152600401808473ffffffffffffffffffffffffffffffffffffffff1673ffffffffffffffffffffffffffffffffffffffff1681526020018373ffffffffffffffffffffffffffffffffffffffff1673ffffffffffffffffffffffffffffffffffffffff16815260200182600019166000191681526020019350505050602060405180830381600087803b158015611ec657600080fd5b505af1158015611eda573d6000803e3d6000fd5b505050506040513d6020811015611ef057600080fd5b81019080805190602001909291905050509250611f0c8a613beb565b9150611f1733613beb565b905060018310151561238a57600360009054906101000a900473ffffffffffffffffffffffffffffffffffffffff1673ffffffffffffffffffffffffffffffffffffffff166316614c98338c8a60016040518563ffffffff167c0100000000000000000000000000000000000000000000000000000000028152600401808573ffffffffffffffffffffffffffffffffffffffff1673ffffffffffffffffffffffffffffffffffffffff1681526020018473ffffffffffffffffffffffffffffffffffffffff1673ffffffffffffffffffffffffffffffffffffffff1681526020018360001916600019168152602001828152602001945050505050602060405180830381600087803b15801561202d57600080fd5b505af1158015612041573d6000803e3d6000fd5b505050506040513d602081101561205757600080fd5b81019080805190602001909291905050505043428a8a338e6040516020018087815260200186815260200185858082843782019150508373ffffffffffffffffffffffffffffffffffffffff1673ffffffffffffffffffffffffffffffffffffffff166c010000000000000000000000000281526014018273ffffffffffffffffffffffffffffffffffffffff1673ffffffffffffffffffffffffffffffffffffffff166c0100000000000000000000000002815260140196505050505050506040516020818303038152906040526040518082805190602001908083835b60208310151561215b5780518252602082019150602081019050602083039250612136565b6001836020036101000a03801982511681845116808217855250505050505090500191505060405180910390206001900493506121ce848b338a8d8d8080601f01602080910402602001604051908101604052809392919081815260200183838082843782019150505050505086613bfe565b81156122c3578973ffffffffffffffffffffffffffffffffffffffff1663de261583858b8b8b8b8b886040518863ffffffff167c010000000000000000000000000000000000000000000000000000000002815260040180888152602001806020018660001916600019168152602001806020018415151515815260200183810383528989828181526020019250808284378201915050838103825286868281815260200192506020028082843782019150509950505050505050505050600060405180830381600087803b1580156122a657600080fd5b505af11580156122ba573d6000803e3d6000fd5b50505050612385565b3373ffffffffffffffffffffffffffffffffffffffff168a73ffffffffffffffffffffffffffffffffffffffff16857f69741cc3ec0270f258feb6b53b42ef1e7d2251a3c8eea4f6ba1f72bd4b7beba78c8c8c8c8c8960405180806020018660001916600019168152602001806020018415151515815260200183810383528989828181526020019250808284378201915050838103825286868281815260200192506020028082843782019150509850505050505050505060405180910390a45b61241e565b6040517f08c379a00000000000000000000000000000000000000000000000000000000081526004018080602001828103825260228152602001807f5375627363726962657220646f6573206e6f74206861766520616e7920646f7481526020017f732e00000000000000000000000000000000000000000000000000000000000081525060400191505060405180910390fd5b5050509695505050505050565b6000809054906101000a900473ffffffffffffffffffffffffffffffffffffffff1681565b600360009054906101000a900473ffffffffffffffffffffffffffffffffffffffff1681565b6000600560009054906101000a900473ffffffffffffffffffffffffffffffffffffffff1673ffffffffffffffffffffffffffffffffffffffff1663a6ed563e8360405160200180807f7175657269657300000000000000000000000000000000000000000000000000815250600701828152602001807f656e64706f696e740000000000000000000000000000000000000000000000008152506008019150506040516020818303038152906040526040518082805190602001908083835b60208310151561255b5780518252602082019150602081019050602083039250612536565b6001836020036101000a03801982511681845116808217855250505050505090500191505060405180910390206040518263ffffffff167c0100000000000000000000000000000000000000000000000000000000028152600401808260001916600019168152602001915050602060405180830381600087803b1580156125e257600080fd5b505af11580156125f6573d6000803e3d6000fd5b505050506040513d602081101561260c57600080fd5b81019080805190602001909291905050509050919050565b6000809054906101000a900473ffffffffffffffffffffffffffffffffffffffff1673ffffffffffffffffffffffffffffffffffffffff163373ffffffffffffffffffffffffffffffffffffffff1614151561267f57600080fd5b6000809054906101000a900473ffffffffffffffffffffffffffffffffffffffff1673ffffffffffffffffffffffffffffffffffffffff16ff5b6060600560009054906101000a900473ffffffffffffffffffffffffffffffffffffffff1673ffffffffffffffffffffffffffffffffffffffff1663986e791a8360405160200180807f7175657269657300000000000000000000000000000000000000000000000000815250600701828152602001807f75736572517565727900000000000000000000000000000000000000000000008152506009019150506040516020818303038152906040526040518082805190602001908083835b60208310151561279e5780518252602082019150602081019050602083039250612779565b6001836020036101000a03801982511681845116808217855250505050505090500191505060405180910390206040518263ffffffff167c0100000000000000000000000000000000000000000000000000000000028152600401808260001916600019168152602001915050600060405180830381600087803b15801561282557600080fd5b505af1158015612839573d6000803e3d6000fd5b505050506040513d6000823e3d601f19601f82011682018060405250602081101561286357600080fd5b81019080805164010000000081111561287b57600080fd5b8281019050602081018481111561289157600080fd5b81518560018202830111640100000000821117156128ae57600080fd5b50509291905050509050919050565b600460009054906101000a900473ffffffffffffffffffffffffffffffffffffffff1681565b60003373ffffffffffffffffffffffffffffffffffffffff16612905856114bb565b73ffffffffffffffffffffffffffffffffffffffff1614158061292e575061292c84612dde565b155b1561293857600080fd5b61294184611098565b156129ff5761294f84610c6b565b73ffffffffffffffffffffffffffffffffffffffff166399ff48af8585856040518463ffffffff167c0100000000000000000000000000000000000000000000000000000000028152600401808481526020018060200182810382528484828181526020019250602002808284378201915050945050505050600060405180830381600087803b1580156129e257600080fd5b505af11580156129f6573d6000803e3d6000fd5b50505050612a8b565b3373ffffffffffffffffffffffffffffffffffffffff16612a1f85610c6b565b73ffffffffffffffffffffffffffffffffffffffff16857f9f77e7a9a5b13a5eb3acd7d32b8bffc55d7eb27f4ac09a5b804feaf2bab4c74d8686604051808060200182810382528484828181526020019250602002808284378201915050935050505060405180910390a45b600190509392505050565b6000809054906101000a900473ffffffffffffffffffffffffffffffffffffffff1673ffffffffffffffffffffffffffffffffffffffff163373ffffffffffffffffffffffffffffffffffffffff16141515612af157600080fd5b600073ffffffffffffffffffffffffffffffffffffffff168173ffffffffffffffffffffffffffffffffffffffff1614151515612b2d57600080fd5b8073ffffffffffffffffffffffffffffffffffffffff166000809054906101000a900473ffffffffffffffffffffffffffffffffffffffff1673ffffffffffffffffffffffffffffffffffffffff167f8be0079c531659141344cd1fd0a4f28419497f9722a3daafe3b4186f6b6457e060405160405180910390a3806000806101000a81548173ffffffffffffffffffffffffffffffffffffffff021916908373ffffffffffffffffffffffffffffffffffffffff16021790555050565b60003373ffffffffffffffffffffffffffffffffffffffff16612c0d876114bb565b73ffffffffffffffffffffffffffffffffffffffff16141580612c365750612c3486612dde565b155b15612c4057600080fd5b612c4986611098565b15612d2657612c5786610c6b565b73ffffffffffffffffffffffffffffffffffffffff1663f5795cd587878787876040518663ffffffff167c01000000000000000000000000000000000000000000000000000000000281526004018086815260200180602001806020018381038352878782818152602001925080828437820191505083810382528585828181526020019250808284378201915050975050505050505050600060405180830381600087803b158015612d0957600080fd5b505af1158015612d1d573d6000803e3d6000fd5b50505050612dd1565b3373ffffffffffffffffffffffffffffffffffffffff16612d4687610c6b565b73ffffffffffffffffffffffffffffffffffffffff16877ff34afe5c6e139b15c1ff3b929a198532242d2d8727db2099925e4e2d8a8fc681888888886040518080602001806020018381038352878782818152602001925080828437820191505083810382528585828181526020019250808284378201915050965050505050505060405180910390a45b6001905095945050505050565b600080600080600080612df087611669565b6002811115612dfb57fe5b945060016002811115612e0a57fe5b856002811115612e1657fe5b14151515612e8c576040517f08c379a000000000000000000000000000000000000000000000000000000000815260040180806020018281038252601f8152602001807f4572726f723a2053746174757320616c72656164792066756c66696c6c65640081525060200191505060405180910390fd5b612e9587610c6b565b9350612ea0876114bb565b9250612eab87612476565b9150600280811115612eb957fe5b856002811115612ec557fe5b14156130fa57612ed48761090a565b90508043141515612f4d576040517f08c379a00000000000000000000000000000000000000000000000000000000081526004018080602001828103825260158152602001807f4572726f723a2043616e63656c2069676e6f726564000000000000000000000081525060200191505060405180910390fd5b612f5887600061359b565b600360009054906101000a900473ffffffffffffffffffffffffffffffffffffffff1673ffffffffffffffffffffffffffffffffffffffff166316614c9885858560016040518563ffffffff167c0100000000000000000000000000000000000000000000000000000000028152600401808573ffffffffffffffffffffffffffffffffffffffff1673ffffffffffffffffffffffffffffffffffffffff1681526020018473ffffffffffffffffffffffffffffffffffffffff1673ffffffffffffffffffffffffffffffffffffffff1681526020018360001916600019168152602001828152602001945050505050602060405180830381600087803b15801561306257600080fd5b505af1158015613076573d6000803e3d6000fd5b505050506040513d602081101561308c57600080fd5b8101908080519060200190929190505050508273ffffffffffffffffffffffffffffffffffffffff168473ffffffffffffffffffffffffffffffffffffffff16887f01aa7d984ab9ef683cf842c6260f8c3d4e2c2c4a32bfa5120bf0f6bcd51225f060405160405180910390a45b613103876145f8565b600360009054906101000a900473ffffffffffffffffffffffffffffffffffffffff1673ffffffffffffffffffffffffffffffffffffffff16633b058aa785858560016040518563ffffffff167c0100000000000000000000000000000000000000000000000000000000028152600401808573ffffffffffffffffffffffffffffffffffffffff1673ffffffffffffffffffffffffffffffffffffffff1681526020018473ffffffffffffffffffffffffffffffffffffffff1673ffffffffffffffffffffffffffffffffffffffff1681526020018360001916600019168152602001828152602001945050505050602060405180830381600087803b15801561320d57600080fd5b505af1158015613221573d6000803e3d6000fd5b505050506040513d602081101561323757600080fd5b81019080805190602001909291905050505081600019168373ffffffffffffffffffffffffffffffffffffffff168573ffffffffffffffffffffffffffffffffffffffff167fd2acd679e4b12e04dac69f514df2934d7bdb622acd5b5ebaea14f3dd70c3d58a60405160405180910390a4600195505050505050919050565b6000600260009054906101000a900473ffffffffffffffffffffffffffffffffffffffff1673ffffffffffffffffffffffffffffffffffffffff1663358177736040518163ffffffff167c01000000000000000000000000000000000000000000000000000000000281526004018080602001828103825260088152602001807f4441544142415345000000000000000000000000000000000000000000000000815250602001915050602060405180830381600087803b15801561337a57600080fd5b505af115801561338e573d6000803e3d6000fd5b505050506040513d60208110156133a457600080fd5b8101908080519060200190929190505050905080600560006101000a81548173ffffffffffffffffffffffffffffffffffffffff021916908373ffffffffffffffffffffffffffffffffffffffff160217905550600260009054906101000a900473ffffffffffffffffffffffffffffffffffffffff1673ffffffffffffffffffffffffffffffffffffffff1663358177736040518163ffffffff167c01000000000000000000000000000000000000000000000000000000000281526004018080602001828103825260078152602001807f424f4e4441474500000000000000000000000000000000000000000000000000815250602001915050602060405180830381600087803b1580156134ba57600080fd5b505af11580156134ce573d6000803e3d6000fd5b505050506040513d60208110156134e457600080fd5b8101908080519060200190929190505050600460006101000a81548173ffffffffffffffffffffffffffffffffffffffff021916908373ffffffffffffffffffffffffffffffffffffffff160217905550600460009054906101000a900473ffffffffffffffffffffffffffffffffffffffff16600360006101000a81548173ffffffffffffffffffffffffffffffffffffffff021916908373ffffffffffffffffffffffffffffffffffffffff16021790555050565b80156138c557600560009054906101000a900473ffffffffffffffffffffffffffffffffffffffff1673ffffffffffffffffffffffffffffffffffffffff166354c552db8360405160200180807f7175657269657300000000000000000000000000000000000000000000000000815250600701828152602001807f63616e63656c426c6f636b000000000000000000000000000000000000000000815250600b019150506040516020818303038152906040526040518082805190602001908083835b602083101515613684578051825260208201915060208101905060208303925061365f565b6001836020036101000a0380198251168184511680821785525050505050509050019150506040518091039020436040518363ffffffff167c010000000000000000000000000000000000000000000000000000000002815260040180836000191660001916815260200182815260200192505050600060405180830381600087803b15801561371357600080fd5b505af1158015613727573d6000803e3d6000fd5b50505050600560009054906101000a900473ffffffffffffffffffffffffffffffffffffffff1673ffffffffffffffffffffffffffffffffffffffff166354c552db8360405160200180807f7175657269657300000000000000000000000000000000000000000000000000815250600701828152602001807f73746174757300000000000000000000000000000000000000000000000000008152506006019150506040516020818303038152906040526040518082805190602001908083835b60208310151561380e57805182526020820191506020810190506020830392506137e9565b6001836020036101000a038019825116818451168082178552505050505050905001915050604051809103902060028081111561384757fe5b6040518363ffffffff167c010000000000000000000000000000000000000000000000000000000002815260040180836000191660001916815260200182815260200192505050600060405180830381600087803b1580156138a857600080fd5b505af11580156138bc573d6000803e3d6000fd5b50505050613be7565b600560009054906101000a900473ffffffffffffffffffffffffffffffffffffffff1673ffffffffffffffffffffffffffffffffffffffff166354c552db8360405160200180807f7175657269657300000000000000000000000000000000000000000000000000815250600701828152602001807f63616e63656c426c6f636b000000000000000000000000000000000000000000815250600b019150506040516020818303038152906040526040518082805190602001908083835b6020831015156139a85780518252602082019150602081019050602083039250613983565b6001836020036101000a038019825116818451168082178552505050505050905001915050604051809103902060006040518363ffffffff167c010000000000000000000000000000000000000000000000000000000002815260040180836000191660001916815260200182815260200192505050600060405180830381600087803b158015613a3857600080fd5b505af1158015613a4c573d6000803e3d6000fd5b50505050600560009054906101000a900473ffffffffffffffffffffffffffffffffffffffff1673ffffffffffffffffffffffffffffffffffffffff166354c552db8360405160200180807f7175657269657300000000000000000000000000000000000000000000000000815250600701828152602001807f73746174757300000000000000000000000000000000000000000000000000008152506006019150506040516020818303038152906040526040518082805190602001908083835b602083101515613b335780518252602082019150602081019050602083039250613b0e565b6001836020036101000a038019825116818451168082178552505050505050905001915050604051809103902060006002811115613b6d57fe5b6040518363ffffffff167c010000000000000000000000000000000000000000000000000000000002815260040180836000191660001916815260200182815260200192505050600060405180830381600087803b158015613bce57600080fd5b505af1158015613be2573d6000803e3d6000fd5b505050505b5050565b600080823b905060008111915050919050565b600560009054906101000a900473ffffffffffffffffffffffffffffffffffffffff1673ffffffffffffffffffffffffffffffffffffffff166354c552db8760405160200180807f7175657269657300000000000000000000000000000000000000000000000000815250600701828152602001807f70726f76696465720000000000000000000000000000000000000000000000008152506008019150506040516020818303038152906040526040518082805190602001908083835b602083101515613ce15780518252602082019150602081019050602083039250613cbc565b6001836020036101000a03801982511681845116808217855250505050505090500191505060405180910390208773ffffffffffffffffffffffffffffffffffffffff166040518363ffffffff167c010000000000000000000000000000000000000000000000000000000002815260040180836000191660001916815260200182815260200192505050600060405180830381600087803b158015613d8657600080fd5b505af1158015613d9a573d6000803e3d6000fd5b50505050600560009054906101000a900473ffffffffffffffffffffffffffffffffffffffff1673ffffffffffffffffffffffffffffffffffffffff166354c552db8760405160200180807f7175657269657300000000000000000000000000000000000000000000000000815250600701828152602001807f7375627363726962657200000000000000000000000000000000000000000000815250600a019150506040516020818303038152906040526040518082805190602001908083835b602083101515613e815780518252602082019150602081019050602083039250613e5c565b6001836020036101000a03801982511681845116808217855250505050505090500191505060405180910390208673ffffffffffffffffffffffffffffffffffffffff166040518363ffffffff167c010000000000000000000000000000000000000000000000000000000002815260040180836000191660001916815260200182815260200192505050600060405180830381600087803b158015613f2657600080fd5b505af1158015613f3a573d6000803e3d6000fd5b50505050600560009054906101000a900473ffffffffffffffffffffffffffffffffffffffff1673ffffffffffffffffffffffffffffffffffffffff16634e91db088760405160200180807f7175657269657300000000000000000000000000000000000000000000000000815250600701828152602001807f656e64706f696e740000000000000000000000000000000000000000000000008152506008019150506040516020818303038152906040526040518082805190602001908083835b6020831015156140215780518252602082019150602081019050602083039250613ffc565b6001836020036101000a0380198251168184511680821785525050505050509050019150506040518091039020856040518363ffffffff167c0100000000000000000000000000000000000000000000000000000000028152600401808360001916600019168152602001826000191660001916815260200192505050600060405180830381600087803b1580156140b857600080fd5b505af11580156140cc573d6000803e3d6000fd5b50505050600560009054906101000a900473ffffffffffffffffffffffffffffffffffffffff1673ffffffffffffffffffffffffffffffffffffffff16636e8995508760405160200180807f7175657269657300000000000000000000000000000000000000000000000000815250600701828152602001807f75736572517565727900000000000000000000000000000000000000000000008152506009019150506040516020818303038152906040526040518082805190602001908083835b6020831015156141b3578051825260208201915060208101905060208303925061418e565b6001836020036101000a0380198251168184511680821785525050505050509050019150506040518091039020846040518363ffffffff167c010000000000000000000000000000000000000000000000000000000002815260040180836000191660001916815260200180602001828103825283818151815260200191508051906020019080838360005b8381101561425a57808201518184015260208101905061423f565b50505050905090810190601f1680156142875780820380516001836020036101000a031916815260200191505b509350505050600060405180830381600087803b1580156142a757600080fd5b505af11580156142bb573d6000803e3d6000fd5b50505050600560009054906101000a900473ffffffffffffffffffffffffffffffffffffffff1673ffffffffffffffffffffffffffffffffffffffff166354c552db8760405160200180807f7175657269657300000000000000000000000000000000000000000000000000815250600701828152602001807f73746174757300000000000000000000000000000000000000000000000000008152506006019150506040516020818303038152906040526040518082805190602001908083835b6020831015156143a2578051825260208201915060208101905060208303925061437d565b6001836020036101000a0380198251168184511680821785525050505050509050019150506040518091039020600060028111156143dc57fe5b6040518363ffffffff167c010000000000000000000000000000000000000000000000000000000002815260040180836000191660001916815260200182815260200192505050600060405180830381600087803b15801561443d57600080fd5b505af1158015614451573d6000803e3d6000fd5b50505050600560009054906101000a900473ffffffffffffffffffffffffffffffffffffffff1673ffffffffffffffffffffffffffffffffffffffff166354c552db8760405160200180807f7175657269657300000000000000000000000000000000000000000000000000815250600701828152602001807f6f6e636861696e537562736372696265720000000000000000000000000000008152506011019150506040516020818303038152906040526040518082805190602001908083835b6020831015156145385780518252602082019150602081019050602083039250614513565b6001836020036101000a038019825116818451168082178552505050505050905001915050604051809103902083614571576000614574565b60015b6040518363ffffffff167c01000000000000000000000000000000000000000000000000000000000281526004018083600019166000191681526020018260ff16815260200192505050600060405180830381600087803b1580156145d857600080fd5b505af11580156145ec573d6000803e3d6000fd5b50505050505050505050565b600560009054906101000a900473ffffffffffffffffffffffffffffffffffffffff1673ffffffffffffffffffffffffffffffffffffffff166354c552db8260405160200180807f7175657269657300000000000000000000000000000000000000000000000000815250600701828152602001807f73746174757300000000000000000000000000000000000000000000000000008152506006019150506040516020818303038152906040526040518082805190602001908083835b6020831015156146db57805182526020820191506020810190506020830392506146b6565b6001836020036101000a03801982511681845116808217855250505050505090500191505060405180910390206001600281111561471557fe5b6040518363ffffffff167c010000000000000000000000000000000000000000000000000000000002815260040180836000191660001916815260200182815260200192505050600060405180830381600087803b15801561477657600080fd5b505af115801561478a573d6000803e3d6000fd5b50505050505600a165627a7a723058206721cf067bb12d61260bff0c93cd5c8a7e462ba07cd3974db9b552a929a2254f0029",
  "source": "pragma solidity ^0.4.24;\r\n// v1.0\r\n\r\nimport \"../../lib/ownership/Upgradable.sol\";\r\nimport \"../../lib/lifecycle/Destructible.sol\";\r\nimport \"../../lib/platform/Client.sol\";\r\nimport \"../../lib/platform/OnChainProvider.sol\";\r\nimport \"../bondage/BondageInterface.sol\";\r\nimport \"./DispatchInterface.sol\";\r\nimport \"../database/DatabaseInterface.sol\";\r\n\r\ncontract Dispatch is Destructible, DispatchInterface, Upgradable {\r\n\r\n    enum Status { Pending, Fulfilled, Canceled }\r\n\r\n    //event data provider is listening for, containing all relevant request parameters\r\n    event Incoming(\r\n        uint256 indexed id,\r\n        address indexed provider,\r\n        address indexed subscriber,\r\n        string query,\r\n        bytes32 endpoint,\r\n        bytes32[] endpointParams,\r\n        bool onchainSubscriber\r\n    );\r\n\r\n    event FulfillQuery(\r\n        address indexed subscriber,\r\n        address indexed provider,\r\n        bytes32 indexed endpoint\r\n    );\r\n\r\n    event OffchainResponse(\r\n        uint256 indexed id,\r\n        address indexed subscriber,\r\n        address indexed provider,\r\n        bytes32[] response\r\n    );\r\n\r\n    event OffchainResponseInt(\r\n        uint256 indexed id,\r\n        address indexed subscriber,\r\n        address indexed provider,\r\n        int[] response\r\n    );\r\n\r\n    event OffchainResult1(\r\n        uint256 indexed id,\r\n        address indexed subscriber,\r\n        address indexed provider,\r\n        string response1\r\n    );\r\n\r\n    event OffchainResult2(\r\n        uint256 indexed id,\r\n        address indexed subscriber,\r\n        address indexed provider,\r\n        string response1,\r\n        string response2\r\n    );\r\n\r\n    event OffchainResult3(\r\n        uint256 indexed id,\r\n        address indexed subscriber,\r\n        address indexed provider,\r\n        string response1,\r\n        string response2,\r\n        string response3\r\n    );\r\n\r\n    event OffchainResult4(\r\n        uint256 indexed id,\r\n        address indexed subscriber,\r\n        address indexed provider,\r\n        string response1,\r\n        string response2,\r\n        string response3,\r\n        string response4\r\n    );\r\n\r\n    event CanceledRequest(\r\n        uint256 indexed id,\r\n        address indexed subscriber,\r\n        address indexed provider\r\n    );\r\n\r\n    event RevertCancelation(\r\n        uint256 indexed id,\r\n        address indexed subscriber,\r\n        address indexed provider\r\n    );\r\n\r\n    BondageInterface public bondage;\r\n    address public bondageAddress;\r\n\r\n    DatabaseInterface public db;\r\n\r\n    constructor(address c) Upgradable(c) public {\r\n        //_updateDependencies();\r\n    }\r\n\r\n    function _updateDependencies() internal {\r\n        address databaseAddress = coordinator.getContract(\"DATABASE\");\r\n        db = DatabaseInterface(databaseAddress);\r\n\r\n        bondageAddress = coordinator.getContract(\"BONDAGE\");\r\n        bondage = BondageInterface(bondageAddress);\r\n    }\r\n\r\n    /// @notice Escrow dot for oracle request\r\n    /// @dev Called by user contract\r\n    function query(\r\n        address provider,           // data provider address\r\n        string userQuery,           // query string\r\n        bytes32 endpoint,           // endpoint specifier ala 'smart_contract'\r\n        bytes32[] endpointParams    // endpoint-specific params\r\n        )\r\n        external\r\n        returns (uint256 id)\r\n    {\r\n        uint256 dots = bondage.getBoundDots(msg.sender, provider, endpoint);\r\n        bool onchainProvider = isContract(provider);\r\n        bool onchainSubscriber = isContract(msg.sender);\r\n        if (dots >= 1) {\r\n            //enough dots\r\n            bondage.escrowDots(msg.sender, provider, endpoint, 1);\r\n\r\n            id = uint256(keccak256(abi.encodePacked(block.number, now, userQuery, msg.sender, provider)));\r\n\r\n            createQuery(id, provider, msg.sender, endpoint, userQuery, onchainSubscriber);\r\n            if (onchainProvider) {\r\n                OnChainProvider(provider).receive(id, userQuery, endpoint, endpointParams, onchainSubscriber);\r\n            } else{\r\n                emit Incoming(id, provider, msg.sender, userQuery, endpoint, endpointParams, onchainSubscriber);\r\n            }\r\n        } else { // NOT ENOUGH DOTS\r\n            revert(\"Subscriber does not have any dots.\");\r\n        }\r\n    }\r\n\r\n    /// @notice Transfer dots from Bondage escrow to data provider's Holder object under its own address\r\n    /// @dev Called upon data-provider request fulfillment\r\n    function fulfillQuery(uint256 id) private returns (bool) {\r\n        Status status = Status(getStatus(id));\r\n\r\n        require(status != Status.Fulfilled, \"Error: Status already fulfilled\");\r\n\r\n        address subscriber = getSubscriber(id);\r\n        address provider = getProvider(id);\r\n        bytes32 endpoint = getEndpoint(id);\r\n\r\n        if (status == Status.Canceled) {\r\n            uint256 canceled = getCancel(id);\r\n\r\n            // Make sure we've canceled in the past,\r\n            // if it's current block ignore the cancel\r\n            require(block.number == canceled, \"Error: Cancel ignored\");\r\n\r\n            // Uncancel the query\r\n            setCanceled(id, false);\r\n\r\n            // Re-escrow the previously returned dots\r\n            bondage.escrowDots(subscriber, provider, endpoint, 1);\r\n\r\n            // Emit the events\r\n            emit RevertCancelation(id, subscriber, provider);\r\n        }\r\n\r\n        setFulfilled(id);\r\n\r\n        bondage.releaseDots(subscriber, provider, endpoint, 1);\r\n\r\n        emit FulfillQuery(subscriber, provider, endpoint);\r\n\r\n        return true;\r\n    }\r\n\r\n    /// @notice Cancel a query.\r\n    /// @dev If responded on the same block, ignore the cancel.\r\n    function cancelQuery(uint256 id) external {\r\n        address subscriber = getSubscriber(id);\r\n        address provider = getProvider(id);\r\n        bytes32 endpoint = getEndpoint(id);\r\n\r\n        require(subscriber == msg.sender, \"Error: Wrong subscriber\");\r\n        require(Status(getStatus(id)) == Status.Pending, \"Error: Query is not pending\");\r\n\r\n        // Cancel the query\r\n        setCanceled(id, true);\r\n\r\n        // Return the dots to the subscriber\r\n        bondage.returnDots(subscriber, provider, endpoint, 1);\r\n\r\n        // Release an event\r\n        emit CanceledRequest(id, getSubscriber(id), getProvider(id));\r\n    }\r\n\r\n    /// @dev Parameter-count specific method called by data provider in response\r\n    function respondBytes32Array(\r\n        uint256 id,\r\n        bytes32[] response\r\n    )\r\n        external\r\n        returns (bool)\r\n    {\r\n        if (getProvider(id) != msg.sender || !fulfillQuery(id))\r\n            revert();\r\n        if (getSubscriberOnchain(id)) {\r\n            ClientBytes32Array(getSubscriber(id)).callback(id, response);\r\n        }\r\n        else {\r\n            emit OffchainResponse(id, getSubscriber(id), msg.sender, response);\r\n        }\r\n        return true;\r\n    }\r\n\r\n    /// @dev Parameter-count specific method called by data provider in response\r\n    function respondIntArray(\r\n        uint256 id,\r\n        int[] response\r\n    )\r\n        external\r\n        returns (bool)\r\n    {\r\n        if (getProvider(id) != msg.sender || !fulfillQuery(id))\r\n            revert();\r\n        if (getSubscriberOnchain(id)) {\r\n            ClientIntArray(getSubscriber(id)).callback(id, response);\r\n        }\r\n        else {\r\n            emit OffchainResponseInt(id, getSubscriber(id), msg.sender, response);\r\n        }\r\n        return true;\r\n    }\r\n\r\n\r\n    /// @dev Parameter-count specific method called by data provider in response\r\n    function respond1(\r\n        uint256 id,\r\n        string response\r\n    )\r\n        external\r\n        returns (bool)\r\n    {\r\n        if (getProvider(id) != msg.sender || !fulfillQuery(id))\r\n            revert();\r\n\r\n        if (getSubscriberOnchain(id)) {\r\n            Client1(getSubscriber(id)).callback(id, response);\r\n        }\r\n        else {\r\n            emit OffchainResult1(id, getSubscriber(id), msg.sender, response);\r\n        }\r\n        return true;\r\n    }\r\n\r\n    /// @dev Parameter-count specific method called by data provider in response\r\n    function respond2(\r\n        uint256 id,\r\n        string response1,\r\n        string response2\r\n    )\r\n        external\r\n        returns (bool)\r\n    {\r\n        if (getProvider(id) != msg.sender || !fulfillQuery(id))\r\n            revert();\r\n\r\n        if (getSubscriberOnchain(id)) {\r\n            Client2(getSubscriber(id)).callback(id, response1, response2);\r\n        }\r\n        else {\r\n            emit OffchainResult2(id, getSubscriber(id), msg.sender, response1, response2);\r\n        }\r\n\r\n        return true;\r\n    }\r\n\r\n    /// @dev Parameter-count specific method called by data provider in response\r\n    function respond3(\r\n        uint256 id,\r\n        string response1,\r\n        string response2,\r\n        string response3\r\n    )\r\n        external\r\n        returns (bool)\r\n    {\r\n        if (getProvider(id) != msg.sender || !fulfillQuery(id))\r\n            revert();\r\n\r\n        if (getSubscriberOnchain(id)) {\r\n            Client3(getSubscriber(id)).callback(id, response1, response2, response3);\r\n        }\r\n        else {\r\n            emit OffchainResult3(id, getSubscriber(id), msg.sender, response1, response2, response3);\r\n        }\r\n\r\n        return true;\r\n    }\r\n\r\n    /// @dev Parameter-count specific method called by data provider in response\r\n    function respond4(\r\n        uint256 id,\r\n        string response1,\r\n        string response2,\r\n        string response3,\r\n        string response4\r\n    )\r\n        external\r\n        returns (bool)\r\n    {\r\n        if (getProvider(id) != msg.sender || !fulfillQuery(id))\r\n            revert();\r\n\r\n        if (getSubscriberOnchain(id)) {\r\n            Client4(getSubscriber(id)).callback(id, response1, response2, response3, response4);\r\n        }\r\n        else {\r\n            emit OffchainResult4(id, getSubscriber(id), msg.sender, response1, response2, response3, response4);\r\n        }\r\n\r\n        return true;\r\n    }\r\n\r\n    /*** STORAGE METHODS ***/\r\n\r\n    /// @dev get provider address of request\r\n    /// @param id request id\r\n    function getProvider(uint256 id) public view returns (address) {\r\n        return address(db.getNumber(keccak256(abi.encodePacked('queries', id, 'provider'))));\r\n    }\r\n\r\n    /// @dev get subscriber address of request\r\n    /// @param id request id\r\n    function getSubscriber(uint256 id) public view returns (address) {\r\n        return address(db.getNumber(keccak256(abi.encodePacked('queries', id, 'subscriber'))));\r\n    }\r\n\r\n    /// @dev get endpoint of request\r\n    /// @param id request id\r\n    function getEndpoint(uint256 id) public view returns (bytes32) {\r\n        return db.getBytes32(keccak256(abi.encodePacked('queries', id, 'endpoint')));\r\n    }\r\n\r\n    /// @dev get status of request\r\n    /// @param id request id\r\n    function getStatus(uint256 id) public view returns (uint256) {\r\n        return db.getNumber(keccak256(abi.encodePacked('queries', id, 'status')));\r\n    }\r\n\r\n    /// @dev get the cancelation block of a request\r\n    /// @param id request id\r\n    function getCancel(uint256 id) public view returns (uint256) {\r\n        return db.getNumber(keccak256(abi.encodePacked('queries', id, 'cancelBlock')));\r\n    }\r\n\r\n    /// @dev get user specified query of request\r\n    /// @param id request id\r\n    function getUserQuery(uint256 id) public view returns (string) {\r\n        return db.getString(keccak256(abi.encodePacked('queries', id, 'userQuery')));\r\n    }\r\n\r\n    /// @dev is subscriber contract or offchain\r\n    /// @param id request id\r\n    function getSubscriberOnchain(uint256 id) public view returns (bool) {\r\n        uint res = db.getNumber(keccak256(abi.encodePacked('queries', id, 'onchainSubscriber')));\r\n        return res == 1 ? true : false;\r\n    }\r\n\r\n    /**** Set Methods ****/\r\n    function createQuery(\r\n        uint256 id,\r\n        address provider,\r\n        address subscriber,\r\n        bytes32 endpoint,\r\n        string userQuery,\r\n        bool onchainSubscriber\r\n    )\r\n        private\r\n    {\r\n        db.setNumber(keccak256(abi.encodePacked('queries', id, 'provider')), uint256(provider));\r\n        db.setNumber(keccak256(abi.encodePacked('queries', id, 'subscriber')), uint256(subscriber));\r\n        db.setBytes32(keccak256(abi.encodePacked('queries', id, 'endpoint')), endpoint);\r\n        db.setString(keccak256(abi.encodePacked('queries', id, 'userQuery')), userQuery);\r\n        db.setNumber(keccak256(abi.encodePacked('queries', id, 'status')), uint256(Status.Pending));\r\n        db.setNumber(keccak256(abi.encodePacked('queries', id, 'onchainSubscriber')), onchainSubscriber ? 1 : 0);\r\n    }\r\n\r\n    function setFulfilled(uint256 id) private {\r\n        db.setNumber(keccak256(abi.encodePacked('queries', id, 'status')), uint256(Status.Fulfilled));\r\n    }\r\n\r\n    function setCanceled(uint256 id, bool canceled) private {\r\n        if (canceled) {\r\n            db.setNumber(keccak256(abi.encodePacked('queries', id, 'cancelBlock')), block.number);\r\n            db.setNumber(keccak256(abi.encodePacked('queries', id, 'status')), uint256(Status.Canceled));\r\n        }\r\n        else {\r\n            db.setNumber(keccak256(abi.encodePacked('queries', id, 'cancelBlock')), 0);\r\n            db.setNumber(keccak256(abi.encodePacked('queries', id, 'status')), uint256(Status.Pending));\r\n        }\r\n    }\r\n\r\n    function isContract(address addr) private view returns (bool) {\r\n        uint size;\r\n        assembly { size := extcodesize(addr) }\r\n        return size > 0;\r\n    }\r\n}\r\n\r\n/*\r\n/* For use in example contract, see TestContracts.sol\r\n/*\r\n/* When User Contract calls ZapDispatch.query(),\r\n/* 1 oracle specific dot is escrowed by ZapBondage and Incoming event is ted.\r\n/*\r\n/* When provider's client hears an Incoming event containing provider's address and responds,\r\n/* the provider calls a ZapDispatch.respondX function corresponding to number of response params.\r\n/*\r\n/* Dots are moved from ZapBondage escrow to data-provider's bond Holder struct,\r\n/* with data provider address set as self's address.\r\n/*/\r\n\r\n/*************************************** STORAGE ****************************************\r\n* 'queries', id, 'provider' => {address} address of provider that this query was sent to\r\n* 'queries', id, 'subscriber' => {address} address of subscriber that this query was sent by\r\n* 'queries', id, 'endpoint' => {bytes32} endpoint that this query was sent to\r\n* 'queries', id, 'status' => {Status} current status of this query\r\n* 'queries', id, 'cancelBlock' => {uint256} the block number of the cancellation request (0 if none)\r\n* 'queries', id, 'userQuery' => {uint256} the query that was sent with this queryId\r\n* 'queries', id, 'onchainSubscriber' => {uint256} 1 -> onchainSubscriber, 0 -> offchainSubscriber\r\n****************************************************************************************/\r\n",
  "sourcePath": "C:\\Users\\min\\auxmarket-\\contracts\\platform\\dispatch\\Dispatch.sol",
  "compiler": {
    "name": "solc",
    "version": "0.4.25+commit.59dbf8f1.Emscripten.clang"
  },
  "schemaVersion": "2.0.2",
  "updatedAt": "2019-07-15T20:22:57.311Z"
}