{
  "contractName": "Market",
  "abi": [
    {
      "constant": true,
      "inputs": [],
      "name": "coordinator",
      "outputs": [
        {
          "name": "",
          "type": "address"
        }
      ],
      "payable": false,
      "stateMutability": "view",
      "type": "function"
    },
    {
      "constant": true,
      "inputs": [],
      "name": "zapToken",
      "outputs": [
        {
          "name": "",
          "type": "address"
        }
      ],
      "payable": false,
      "stateMutability": "view",
      "type": "function"
    },
    {
      "constant": true,
      "inputs": [],
      "name": "fixsupplyaddress",
      "outputs": [
        {
          "name": "",
          "type": "address"
        }
      ],
      "payable": false,
      "stateMutability": "view",
      "type": "function"
    },
    {
      "constant": true,
      "inputs": [],
      "name": "buyPrice",
      "outputs": [
        {
          "name": "",
          "type": "uint256"
        }
      ],
      "payable": false,
      "stateMutability": "view",
      "type": "function"
    },
    {
      "constant": true,
      "inputs": [],
      "name": "oracleAddress",
      "outputs": [
        {
          "name": "",
          "type": "address"
        }
      ],
      "payable": false,
      "stateMutability": "view",
      "type": "function"
    },
    {
      "constant": true,
      "inputs": [],
      "name": "FToken",
      "outputs": [
        {
          "name": "",
          "type": "address"
        }
      ],
      "payable": false,
      "stateMutability": "view",
      "type": "function"
    },
    {
      "inputs": [
        {
          "name": "_coordinator",
          "type": "address"
        },
        {
          "name": "_oracle",
          "type": "address"
        }
      ],
      "payable": false,
      "stateMutability": "nonpayable",
      "type": "constructor"
    },
    {
      "anonymous": false,
      "inputs": [],
      "name": "GetPriceEvent",
      "type": "event"
    },
    {
      "anonymous": false,
      "inputs": [
        {
          "indexed": false,
          "name": "amount",
          "type": "uint256"
        }
      ],
      "name": "PriceUpdated",
      "type": "event"
    },
    {
      "constant": false,
      "inputs": [],
      "name": "getPrice",
      "outputs": [
        {
          "name": "",
          "type": "uint256"
        }
      ],
      "payable": false,
      "stateMutability": "nonpayable",
      "type": "function"
    },
    {
      "constant": true,
      "inputs": [
        {
          "name": "_user",
          "type": "address"
        }
      ],
      "name": "getTokenBalance",
      "outputs": [
        {
          "name": "",
          "type": "uint256"
        }
      ],
      "payable": false,
      "stateMutability": "view",
      "type": "function"
    },
    {
      "constant": true,
      "inputs": [
        {
          "name": "_user",
          "type": "address"
        }
      ],
      "name": "getZapWeiSpent",
      "outputs": [
        {
          "name": "",
          "type": "uint256"
        }
      ],
      "payable": false,
      "stateMutability": "view",
      "type": "function"
    },
    {
      "constant": true,
      "inputs": [
        {
          "name": "_user",
          "type": "address"
        }
      ],
      "name": "getZapBalance",
      "outputs": [
        {
          "name": "",
          "type": "uint256"
        }
      ],
      "payable": false,
      "stateMutability": "view",
      "type": "function"
    },
    {
      "constant": false,
      "inputs": [
        {
          "name": "_price",
          "type": "uint256"
        }
      ],
      "name": "updatePrice",
      "outputs": [],
      "payable": false,
      "stateMutability": "nonpayable",
      "type": "function"
    },
    {
      "constant": false,
      "inputs": [
        {
          "name": "numberoftoken",
          "type": "uint256"
        }
      ],
      "name": "BuyToken",
      "outputs": [
        {
          "name": "",
          "type": "uint256"
        }
      ],
      "payable": false,
      "stateMutability": "nonpayable",
      "type": "function"
    },
    {
      "constant": false,
      "inputs": [
        {
          "name": "withdraw_amount",
          "type": "uint256"
        }
      ],
      "name": "Withdrawn",
      "outputs": [
        {
          "name": "",
          "type": "uint8"
        }
      ],
      "payable": true,
      "stateMutability": "payable",
      "type": "function"
    }
  ],
  "bytecode": "0x608060405234801561001057600080fd5b506040516040806117eb8339810180604052810190808051906020019092919080519060200190929190505050600082600160006101000a81548173ffffffffffffffffffffffffffffffffffffffff021916908373ffffffffffffffffffffffffffffffffffffffff160217905550600160009054906101000a900473ffffffffffffffffffffffffffffffffffffffff1673ffffffffffffffffffffffffffffffffffffffff1663358177736040518163ffffffff167c01000000000000000000000000000000000000000000000000000000000281526004018080602001828103825260098152602001807f5a41505f544f4b454e0000000000000000000000000000000000000000000000815250602001915050602060405180830381600087803b15801561014257600080fd5b505af1158015610156573d6000803e3d6000fd5b505050506040513d602081101561016c57600080fd5b81019080805190602001909291905050509050600160009054906101000a900473ffffffffffffffffffffffffffffffffffffffff1673ffffffffffffffffffffffffffffffffffffffff1663358177736040518163ffffffff167c01000000000000000000000000000000000000000000000000000000000281526004018080602001828103825260108152602001807f4669786564537570706c79546f6b656e00000000000000000000000000000000815250602001915050602060405180830381600087803b15801561024157600080fd5b505af1158015610255573d6000803e3d6000fd5b505050506040513d602081101561026b57600080fd5b8101908080519060200190929190505050600260006101000a81548173ffffffffffffffffffffffffffffffffffffffff021916908373ffffffffffffffffffffffffffffffffffffffff160217905550600260009054906101000a900473ffffffffffffffffffffffffffffffffffffffff16600360006101000a81548173ffffffffffffffffffffffffffffffffffffffff021916908373ffffffffffffffffffffffffffffffffffffffff160217905550806000806101000a81548173ffffffffffffffffffffffffffffffffffffffff021916908373ffffffffffffffffffffffffffffffffffffffff16021790555081600560006101000a81548173ffffffffffffffffffffffffffffffffffffffff021916908373ffffffffffffffffffffffffffffffffffffffff160217905550505050611439806103b26000396000f3006080604052600436106100c5576000357c0100000000000000000000000000000000000000000000000000000000900463ffffffff1680630a009097146100ca5780632b56eb56146101215780632ece100a1461017857806339bdf608146101cf5780633aecd0e314610226578063430648de1461027d5780638620410b146102b75780638d6cc56d146102e257806398d5fdca1461030f578063a89ae4ba1461033a578063a922cf9214610391578063c9d5bedd146103e8578063fcb0368c1461043f575b600080fd5b3480156100d657600080fd5b506100df610480565b604051808273ffffffffffffffffffffffffffffffffffffffff1673ffffffffffffffffffffffffffffffffffffffff16815260200191505060405180910390f35b34801561012d57600080fd5b506101366104a6565b604051808273ffffffffffffffffffffffffffffffffffffffff1673ffffffffffffffffffffffffffffffffffffffff16815260200191505060405180910390f35b34801561018457600080fd5b506101b9600480360381019080803573ffffffffffffffffffffffffffffffffffffffff1690602001909291905050506104cb565b6040518082815260200191505060405180910390f35b3480156101db57600080fd5b506101e46105cb565b604051808273ffffffffffffffffffffffffffffffffffffffff1673ffffffffffffffffffffffffffffffffffffffff16815260200191505060405180910390f35b34801561023257600080fd5b50610267600480360381019080803573ffffffffffffffffffffffffffffffffffffffff1690602001909291905050506105f1565b6040518082815260200191505060405180910390f35b61029b600480360381019080803590602001909291905050506106f2565b604051808260ff1660ff16815260200191505060405180910390f35b3480156102c357600080fd5b506102cc610dc6565b6040518082815260200191505060405180910390f35b3480156102ee57600080fd5b5061030d60048036038101908080359060200190929190505050610dcc565b005b34801561031b57600080fd5b50610324610e69565b6040518082815260200191505060405180910390f35b34801561034657600080fd5b5061034f610ef3565b604051808273ffffffffffffffffffffffffffffffffffffffff1673ffffffffffffffffffffffffffffffffffffffff16815260200191505060405180910390f35b34801561039d57600080fd5b506103a6610f19565b604051808273ffffffffffffffffffffffffffffffffffffffff1673ffffffffffffffffffffffffffffffffffffffff16815260200191505060405180910390f35b3480156103f457600080fd5b50610429600480360381019080803573ffffffffffffffffffffffffffffffffffffffff169060200190929190505050610f3f565b6040518082815260200191505060405180910390f35b34801561044b57600080fd5b5061046a60048036038101908080359060200190929190505050611040565b6040518082815260200191505060405180910390f35b600160009054906101000a900473ffffffffffffffffffffffffffffffffffffffff1681565b6000809054906101000a900473ffffffffffffffffffffffffffffffffffffffff1681565b60008060009054906101000a900473ffffffffffffffffffffffffffffffffffffffff1673ffffffffffffffffffffffffffffffffffffffff166370a08231836040518263ffffffff167c0100000000000000000000000000000000000000000000000000000000028152600401808273ffffffffffffffffffffffffffffffffffffffff1673ffffffffffffffffffffffffffffffffffffffff168152602001915050602060405180830381600087803b15801561058957600080fd5b505af115801561059d573d6000803e3d6000fd5b505050506040513d60208110156105b357600080fd5b81019080805190602001909291905050509050919050565b600260009054906101000a900473ffffffffffffffffffffffffffffffffffffffff1681565b6000600360009054906101000a900473ffffffffffffffffffffffffffffffffffffffff1673ffffffffffffffffffffffffffffffffffffffff166370a08231836040518263ffffffff167c0100000000000000000000000000000000000000000000000000000000028152600401808273ffffffffffffffffffffffffffffffffffffffff1673ffffffffffffffffffffffffffffffffffffffff168152602001915050602060405180830381600087803b1580156106b057600080fd5b505af11580156106c4573d6000803e3d6000fd5b505050506040513d60208110156106da57600080fd5b81019080805190602001909291905050509050919050565b60008060008060008086600360009054906101000a900473ffffffffffffffffffffffffffffffffffffffff1673ffffffffffffffffffffffffffffffffffffffff166370a08231336040518263ffffffff167c0100000000000000000000000000000000000000000000000000000000028152600401808273ffffffffffffffffffffffffffffffffffffffff1673ffffffffffffffffffffffffffffffffffffffff168152602001915050602060405180830381600087803b1580156107b957600080fd5b505af11580156107cd573d6000803e3d6000fd5b505050506040513d60208110156107e357600080fd5b8101908080519060200190929190505050101515610db757610803610e69565b600481905550610a1c600360009054906101000a900473ffffffffffffffffffffffffffffffffffffffff1673ffffffffffffffffffffffffffffffffffffffff166370a08231336040518263ffffffff167c0100000000000000000000000000000000000000000000000000000000028152600401808273ffffffffffffffffffffffffffffffffffffffff1673ffffffffffffffffffffffffffffffffffffffff168152602001915050602060405180830381600087803b1580156108c957600080fd5b505af11580156108dd573d6000803e3d6000fd5b505050506040513d60208110156108f357600080fd5b8101908080519060200190929190505050610a0e600360009054906101000a900473ffffffffffffffffffffffffffffffffffffffff1673ffffffffffffffffffffffffffffffffffffffff16635e00179f336040518263ffffffff167c0100000000000000000000000000000000000000000000000000000000028152600401808273ffffffffffffffffffffffffffffffffffffffff1673ffffffffffffffffffffffffffffffffffffffff168152602001915050602060405180830381600087803b1580156109c457600080fd5b505af11580156109d8573d6000803e3d6000fd5b505050506040513d60208110156109ee57600080fd5b81019080805190602001909291905050508a6113a690919063ffffffff16565b6113d990919063ffffffff16565b9450610a33600454886113a690919063ffffffff16565b93508484101515610a5d57610a5185856113f490919063ffffffff16565b91506004549250610a78565b610a7084866113f490919063ffffffff16565b905060045492505b600360009054906101000a900473ffffffffffffffffffffffffffffffffffffffff1673ffffffffffffffffffffffffffffffffffffffff1663095ea7b330896040518363ffffffff167c0100000000000000000000000000000000000000000000000000000000028152600401808373ffffffffffffffffffffffffffffffffffffffff1673ffffffffffffffffffffffffffffffffffffffff16815260200182815260200192505050602060405180830381600087803b158015610b3d57600080fd5b505af1158015610b51573d6000803e3d6000fd5b505050506040513d6020811015610b6757600080fd5b810190808051906020019092919050505050600360009054906101000a900473ffffffffffffffffffffffffffffffffffffffff1673ffffffffffffffffffffffffffffffffffffffff166323b872dd33308a6040518463ffffffff167c0100000000000000000000000000000000000000000000000000000000028152600401808473ffffffffffffffffffffffffffffffffffffffff1673ffffffffffffffffffffffffffffffffffffffff1681526020018373ffffffffffffffffffffffffffffffffffffffff1673ffffffffffffffffffffffffffffffffffffffff1681526020018281526020019350505050602060405180830381600087803b158015610c7257600080fd5b505af1158015610c86573d6000803e3d6000fd5b505050506040513d6020811015610c9c57600080fd5b8101908080519060200190929190505050506000809054906101000a900473ffffffffffffffffffffffffffffffffffffffff1673ffffffffffffffffffffffffffffffffffffffff1663a9059cbb33856040518363ffffffff167c0100000000000000000000000000000000000000000000000000000000028152600401808373ffffffffffffffffffffffffffffffffffffffff1673ffffffffffffffffffffffffffffffffffffffff16815260200182815260200192505050602060405180830381600087803b158015610d7257600080fd5b505af1158015610d86573d6000803e3d6000fd5b505050506040513d6020811015610d9c57600080fd5b81019080805190602001909291905050505060019550610dbc565b600095505b5050505050919050565b60045481565b600560009054906101000a900473ffffffffffffffffffffffffffffffffffffffff1673ffffffffffffffffffffffffffffffffffffffff163373ffffffffffffffffffffffffffffffffffffffff16141515610e2857600080fd5b806004819055507f66cbca4f3c64fecf1dcb9ce094abcf7f68c3450a1d4e3a8e917dd621edb4ebe0816040518082815260200191505060405180910390a150565b60007f2309e1e9cfe0a2156ced195327abdec4cbed8b31c841c6f15bc67a383594140d60405160405180910390a167016345785d8a000066038d7ea4c68000608342446040518083815260200182815260200192505050604051809103902060019004811515610ed557fe5b0660ff160266ffffffffffffff160167ffffffffffffffff16905090565b600560009054906101000a900473ffffffffffffffffffffffffffffffffffffffff1681565b600360009054906101000a900473ffffffffffffffffffffffffffffffffffffffff1681565b6000600360009054906101000a900473ffffffffffffffffffffffffffffffffffffffff1673ffffffffffffffffffffffffffffffffffffffff16635e00179f836040518263ffffffff167c0100000000000000000000000000000000000000000000000000000000028152600401808273ffffffffffffffffffffffffffffffffffffffff1673ffffffffffffffffffffffffffffffffffffffff168152602001915050602060405180830381600087803b158015610ffe57600080fd5b505af1158015611012573d6000803e3d6000fd5b505050506040513d602081101561102857600080fd5b81019080805190602001909291905050509050919050565b60008061104b610e69565b600481905550611066600454846113a690919063ffffffff16565b90506000809054906101000a900473ffffffffffffffffffffffffffffffffffffffff1673ffffffffffffffffffffffffffffffffffffffff1663095ea7b330836040518363ffffffff167c0100000000000000000000000000000000000000000000000000000000028152600401808373ffffffffffffffffffffffffffffffffffffffff1673ffffffffffffffffffffffffffffffffffffffff16815260200182815260200192505050602060405180830381600087803b15801561112c57600080fd5b505af1158015611140573d6000803e3d6000fd5b505050506040513d602081101561115657600080fd5b8101908080519060200190929190505050506000809054906101000a900473ffffffffffffffffffffffffffffffffffffffff1673ffffffffffffffffffffffffffffffffffffffff166323b872dd3330846040518463ffffffff167c0100000000000000000000000000000000000000000000000000000000028152600401808473ffffffffffffffffffffffffffffffffffffffff1673ffffffffffffffffffffffffffffffffffffffff1681526020018373ffffffffffffffffffffffffffffffffffffffff1673ffffffffffffffffffffffffffffffffffffffff1681526020018281526020019350505050602060405180830381600087803b15801561126057600080fd5b505af1158015611274573d6000803e3d6000fd5b505050506040513d602081101561128a57600080fd5b810190808051906020019092919050505050600360009054906101000a900473ffffffffffffffffffffffffffffffffffffffff1673ffffffffffffffffffffffffffffffffffffffff1663a9059cbb33856040518363ffffffff167c0100000000000000000000000000000000000000000000000000000000028152600401808373ffffffffffffffffffffffffffffffffffffffff1673ffffffffffffffffffffffffffffffffffffffff16815260200182815260200192505050602060405180830381600087803b15801561136157600080fd5b505af1158015611375573d6000803e3d6000fd5b505050506040513d602081101561138b57600080fd5b81019080805190602001909291905050505082915050919050565b600080828402905060008414806113c757508284828115156113c457fe5b04145b15156113cf57fe5b8091505092915050565b60008082848115156113e757fe5b0490508091505092915050565b600082821115151561140257fe5b8183039050929150505600a165627a7a72305820a863cd1279edccfd4c56f46753989dd0185f3085563ae14d3c0aca98e07038b70029",
  "source": "pragma solidity ^0.4.24;\nimport \"./FixedSupplyToken.sol\";\nimport \"../lib/ownership/ZapCoordinatorInterface.sol\";\nimport \"../lib/ownership/ZapCoordinator.sol\";\nimport \"../token/ZapToken.sol\";\n\n\ncontract Market {\n\n\n  using SafeMath for uint256;\n\n  //address public main; // main market address\n\n  ZapToken public zapToken;\n  ZapCoordinatorInterface public coordinator;\n\n  address public fixsupplyaddress;\n  FixedSupplyToken public FToken;\n  uint256  public buyPrice;\n\n  address public oracleAddress; // address of account operating oracle\n\n  event GetPriceEvent();\n  event PriceUpdated(uint256 amount);\n\n  constructor(address _coordinator, address _oracle) public {\n      coordinator = ZapCoordinatorInterface(_coordinator);\n      address zapTokenAddress = coordinator.getContract(\"ZAP_TOKEN\");\n      // main= coordinator.getContract(\"MainMarket\");\n      fixsupplyaddress = coordinator.getContract(\"FixedSupplyToken\");\n      FToken= FixedSupplyToken(fixsupplyaddress);\n      zapToken = ZapToken(zapTokenAddress);\n      oracleAddress = _oracle;\n  }\n\n//returns the current price of zap to token\n  function getPrice () public returns (uint256){\n  //e/btc divided e/zapwe\n    emit GetPriceEvent();\n    return uint8(uint256(keccak256(block.timestamp, block.difficulty))%131) * 1000000000000000 + 100000000000000000 ; //need to change to match oracle\n  }\n\n//return the number of token a person has\n  function getTokenBalance (address _user) public view returns (uint256){\n    return FToken.balanceOf(_user) ;\n  }\n\n//\n  function getZapWeiSpent(address _user) public view returns (uint256) {\n    return FToken.zapWei_spent(_user);\n  }\n\n  function getZapBalance (address _user) public view returns (uint256) {\n    return zapToken.balanceOf(_user);\n  }\n\n// funtion oracle calls to update the price\n  function updatePrice (uint _price) public {\n    require(msg.sender == oracleAddress);\n    buyPrice = _price;\n    emit PriceUpdated(_price);\n  }\n\n//buying token\n  function BuyToken (uint256 numberoftoken) public returns(uint256){\n\n    buyPrice = getPrice();//set it to the new price using oracle ;\n    uint256 zaprequire = numberoftoken.mul(buyPrice);\n  //check if msg.sender has enoughg\n    zapToken.approve(address(this),zaprequire); //address _spender, uint256 _valu\n\n\n    zapToken.transferFrom(msg.sender,address(this),zaprequire);  //transferFrom(address from, address to, uint256 value)\n    FToken.transfer(msg.sender,numberoftoken); // sends token to zap\n\n    return numberoftoken;\n  }\n\n//withrawn an amount of Token\n  function Withdrawn (uint256 withdraw_amount) public payable returns (uint8) {\n    if (FToken.balanceOf(msg.sender) >= withdraw_amount){ //check if msg.sender has enough token\n      buyPrice= getPrice();// set the buy price by usign oracle\n      uint256 previousprice= (withdraw_amount.mul(FToken.zapWei_spent(msg.sender))).div(FToken.balanceOf(msg.sender));\n      uint256 currentprice = withdraw_amount.mul(buyPrice);\n      //uint256 withdrawfee =  (currentprice.mul(15)).div(100); //15% fee\n        uint256 payment;\n      if (currentprice >= previousprice){ //user wins\n        uint256 difference = currentprice.sub(previousprice);//somehow send this to the main to tell them to pay the different\n\n        // call main withdraw function\n        // ask main for difference minus tax\n\n        payment = /*withdraw(difference)*/ buyPrice;\n\n\n      }\n      else {//main market win\n        uint256 gain= previousprice.sub(currentprice);\n\n        // call main withdraw function\n        // give main difference plus tax\n\n        payment = /*withdraw(difference)*/ buyPrice;\n      }\n\n      FToken.approve(address(this),withdraw_amount);\n      FToken.transferFrom(msg.sender, address(this), withdraw_amount);//(address from, address to, uint tokens)\n      zapToken.transfer(msg.sender, payment);\n\n      return 1;\n    }\n    else{\n      return 0;\n    }\n  }\n}\n",
  "sourcePath": "/Users/samfarber/Desktop/auxmarket-/contracts/market/Market.sol",
  "compiler": {
    "name": "solc",
    "version": "0.4.25+commit.59dbf8f1.Emscripten.clang"
  },
  "schemaVersion": "2.0.2",
  "updatedAt": "2019-07-12T18:45:47.974Z"
}