{
  "contractName": "Market",
  "abi": [
    {
      "constant": true,
      "inputs": [],
      "name": "coordinator",
      "outputs": [
        {
          "name": "",
          "type": "address"
        }
      ],
      "payable": false,
      "stateMutability": "view",
      "type": "function"
    },
    {
      "constant": true,
      "inputs": [],
      "name": "zapToken",
      "outputs": [
        {
          "name": "",
          "type": "address"
        }
      ],
      "payable": false,
      "stateMutability": "view",
      "type": "function"
    },
    {
      "constant": true,
      "inputs": [],
      "name": "buyPrice",
      "outputs": [
        {
          "name": "",
          "type": "uint256"
        }
      ],
      "payable": false,
      "stateMutability": "view",
      "type": "function"
    },
    {
      "constant": true,
      "inputs": [],
      "name": "FToken",
      "outputs": [
        {
          "name": "",
          "type": "address"
        }
      ],
      "payable": false,
      "stateMutability": "view",
      "type": "function"
    },
    {
      "inputs": [
        {
          "name": "_coordinator",
          "type": "address"
        }
      ],
      "payable": false,
      "stateMutability": "nonpayable",
      "type": "constructor"
    },
    {
      "constant": true,
      "inputs": [],
      "name": "getPrice",
      "outputs": [
        {
          "name": "",
          "type": "uint256"
        }
      ],
      "payable": false,
      "stateMutability": "pure",
      "type": "function"
    },
    {
      "constant": false,
      "inputs": [
        {
          "name": "numberoftoken",
          "type": "uint256"
        }
      ],
      "name": "BuyToken",
      "outputs": [
        {
          "name": "",
          "type": "uint256"
        }
      ],
      "payable": false,
      "stateMutability": "nonpayable",
      "type": "function"
    },
    {
      "constant": true,
      "inputs": [],
      "name": "getBalance",
      "outputs": [
        {
          "name": "",
          "type": "uint256"
        }
      ],
      "payable": false,
      "stateMutability": "view",
      "type": "function"
    },
    {
      "constant": false,
      "inputs": [
        {
          "name": "withdraw_amount",
          "type": "uint256"
        }
      ],
      "name": "Withdrawn",
      "outputs": [
        {
          "name": "",
          "type": "string"
        }
      ],
      "payable": true,
      "stateMutability": "payable",
      "type": "function"
    }
  ],
  "bytecode": "0x608060405234801561001057600080fd5b5060405160208061185783398101806040528101908080519060200190929190505050600081600260006101000a81548173ffffffffffffffffffffffffffffffffffffffff021916908373ffffffffffffffffffffffffffffffffffffffff160217905550600260009054906101000a900473ffffffffffffffffffffffffffffffffffffffff1673ffffffffffffffffffffffffffffffffffffffff1663358177736040518163ffffffff167c01000000000000000000000000000000000000000000000000000000000281526004018080602001828103825260098152602001807f5a41505f544f4b454e0000000000000000000000000000000000000000000000815250602001915050602060405180830381600087803b15801561013857600080fd5b505af115801561014c573d6000803e3d6000fd5b505050506040513d602081101561016257600080fd5b81019080805190602001909291905050509050600260009054906101000a900473ffffffffffffffffffffffffffffffffffffffff1673ffffffffffffffffffffffffffffffffffffffff1663358177736040518163ffffffff167c01000000000000000000000000000000000000000000000000000000000281526004018080602001828103825260108152602001807f4669786564537570706c79546f6b656e00000000000000000000000000000000815250602001915050602060405180830381600087803b15801561023757600080fd5b505af115801561024b573d6000803e3d6000fd5b505050506040513d602081101561026157600080fd5b8101908080519060200190929190505050600360006101000a81548173ffffffffffffffffffffffffffffffffffffffff021916908373ffffffffffffffffffffffffffffffffffffffff160217905550600360009054906101000a900473ffffffffffffffffffffffffffffffffffffffff16600460006101000a81548173ffffffffffffffffffffffffffffffffffffffff021916908373ffffffffffffffffffffffffffffffffffffffff16021790555080600160006101000a81548173ffffffffffffffffffffffffffffffffffffffff021916908373ffffffffffffffffffffffffffffffffffffffff16021790555050506114f0806103676000396000f30060806040526004361061008e576000357c0100000000000000000000000000000000000000000000000000000000900463ffffffff1680630a0090971461009357806312065fe0146100ea5780632b56eb5614610115578063430648de1461016c5780638620410b1461020557806398d5fdca14610230578063a922cf921461025b578063fcb0368c146102b2575b600080fd5b34801561009f57600080fd5b506100a86102f3565b604051808273ffffffffffffffffffffffffffffffffffffffff1673ffffffffffffffffffffffffffffffffffffffff16815260200191505060405180910390f35b3480156100f657600080fd5b506100ff610319565b6040518082815260200191505060405180910390f35b34801561012157600080fd5b5061012a610418565b604051808273ffffffffffffffffffffffffffffffffffffffff1673ffffffffffffffffffffffffffffffffffffffff16815260200191505060405180910390f35b61018a6004803603810190808035906020019092919050505061043e565b6040518080602001828103825283818151815260200191508051906020019080838360005b838110156101ca5780820151818401526020810190506101af565b50505050905090810190601f1680156101f75780820380516001836020036101000a031916815260200191505b509250505060405180910390f35b34801561021157600080fd5b5061021a6110c0565b6040518082815260200191505060405180910390f35b34801561023c57600080fd5b506102456110c6565b6040518082815260200191505060405180910390f35b34801561026757600080fd5b506102706110cf565b604051808273ffffffffffffffffffffffffffffffffffffffff1673ffffffffffffffffffffffffffffffffffffffff16815260200191505060405180910390f35b3480156102be57600080fd5b506102dd600480360381019080803590602001909291905050506110f5565b6040518082815260200191505060405180910390f35b600260009054906101000a900473ffffffffffffffffffffffffffffffffffffffff1681565b6000600460009054906101000a900473ffffffffffffffffffffffffffffffffffffffff1673ffffffffffffffffffffffffffffffffffffffff166370a08231336040518263ffffffff167c0100000000000000000000000000000000000000000000000000000000028152600401808273ffffffffffffffffffffffffffffffffffffffff1673ffffffffffffffffffffffffffffffffffffffff168152602001915050602060405180830381600087803b1580156103d857600080fd5b505af11580156103ec573d6000803e3d6000fd5b505050506040513d602081101561040257600080fd5b8101908080519060200190929190505050905090565b600160009054906101000a900473ffffffffffffffffffffffffffffffffffffffff1681565b6060600080600080600086600460009054906101000a900473ffffffffffffffffffffffffffffffffffffffff1673ffffffffffffffffffffffffffffffffffffffff166370a08231336040518263ffffffff167c0100000000000000000000000000000000000000000000000000000000028152600401808273ffffffffffffffffffffffffffffffffffffffff1673ffffffffffffffffffffffffffffffffffffffff168152602001915050602060405180830381600087803b15801561050657600080fd5b505af115801561051a573d6000803e3d6000fd5b505050506040513d602081101561053057600080fd5b810190808051906020019092919050505010151561107d576105506110c6565b600581905550610769600460009054906101000a900473ffffffffffffffffffffffffffffffffffffffff1673ffffffffffffffffffffffffffffffffffffffff166370a08231336040518263ffffffff167c0100000000000000000000000000000000000000000000000000000000028152600401808273ffffffffffffffffffffffffffffffffffffffff1673ffffffffffffffffffffffffffffffffffffffff168152602001915050602060405180830381600087803b15801561061657600080fd5b505af115801561062a573d6000803e3d6000fd5b505050506040513d602081101561064057600080fd5b810190808051906020019092919050505061075b600460009054906101000a900473ffffffffffffffffffffffffffffffffffffffff1673ffffffffffffffffffffffffffffffffffffffff16635e00179f336040518263ffffffff167c0100000000000000000000000000000000000000000000000000000000028152600401808273ffffffffffffffffffffffffffffffffffffffff1673ffffffffffffffffffffffffffffffffffffffff168152602001915050602060405180830381600087803b15801561071157600080fd5b505af1158015610725573d6000803e3d6000fd5b505050506040513d602081101561073b57600080fd5b81019080805190602001909291905050508a61145d90919063ffffffff16565b61149090919063ffffffff16565b94506107806005548861145d90919063ffffffff16565b93506107a9606461079b600f8761145d90919063ffffffff16565b61149090919063ffffffff16565b92508484101515610a25576107c785856114ab90919063ffffffff16565b9150600160009054906101000a900473ffffffffffffffffffffffffffffffffffffffff1673ffffffffffffffffffffffffffffffffffffffff1663a9059cbb33876040518363ffffffff167c0100000000000000000000000000000000000000000000000000000000028152600401808373ffffffffffffffffffffffffffffffffffffffff1673ffffffffffffffffffffffffffffffffffffffff16815260200182815260200192505050602060405180830381600087803b15801561088e57600080fd5b505af11580156108a2573d6000803e3d6000fd5b505050506040513d60208110156108b857600080fd5b810190808051906020019092919050505050600160009054906101000a900473ffffffffffffffffffffffffffffffffffffffff1673ffffffffffffffffffffffffffffffffffffffff166323b872dd6000809054906101000a900473ffffffffffffffffffffffffffffffffffffffff1633856040518463ffffffff167c0100000000000000000000000000000000000000000000000000000000028152600401808473ffffffffffffffffffffffffffffffffffffffff1673ffffffffffffffffffffffffffffffffffffffff1681526020018373ffffffffffffffffffffffffffffffffffffffff1673ffffffffffffffffffffffffffffffffffffffff1681526020018281526020019350505050602060405180830381600087803b1580156109e457600080fd5b505af11580156109f8573d6000803e3d6000fd5b505050506040513d6020811015610a0e57600080fd5b810190808051906020019092919050505050610c92565b610a3884866114ab90919063ffffffff16565b9050600160009054906101000a900473ffffffffffffffffffffffffffffffffffffffff1673ffffffffffffffffffffffffffffffffffffffff1663a9059cbb33866040518363ffffffff167c0100000000000000000000000000000000000000000000000000000000028152600401808373ffffffffffffffffffffffffffffffffffffffff1673ffffffffffffffffffffffffffffffffffffffff16815260200182815260200192505050602060405180830381600087803b158015610aff57600080fd5b505af1158015610b13573d6000803e3d6000fd5b505050506040513d6020811015610b2957600080fd5b810190808051906020019092919050505050600160009054906101000a900473ffffffffffffffffffffffffffffffffffffffff1673ffffffffffffffffffffffffffffffffffffffff166323b872dd306000809054906101000a900473ffffffffffffffffffffffffffffffffffffffff16846040518463ffffffff167c0100000000000000000000000000000000000000000000000000000000028152600401808473ffffffffffffffffffffffffffffffffffffffff1673ffffffffffffffffffffffffffffffffffffffff1681526020018373ffffffffffffffffffffffffffffffffffffffff1673ffffffffffffffffffffffffffffffffffffffff1681526020018281526020019350505050602060405180830381600087803b158015610c5557600080fd5b505af1158015610c69573d6000803e3d6000fd5b505050506040513d6020811015610c7f57600080fd5b8101908080519060200190929190505050505b600460009054906101000a900473ffffffffffffffffffffffffffffffffffffffff1673ffffffffffffffffffffffffffffffffffffffff1663095ea7b330896040518363ffffffff167c0100000000000000000000000000000000000000000000000000000000028152600401808373ffffffffffffffffffffffffffffffffffffffff1673ffffffffffffffffffffffffffffffffffffffff16815260200182815260200192505050602060405180830381600087803b158015610d5757600080fd5b505af1158015610d6b573d6000803e3d6000fd5b505050506040513d6020811015610d8157600080fd5b810190808051906020019092919050505050600460009054906101000a900473ffffffffffffffffffffffffffffffffffffffff1673ffffffffffffffffffffffffffffffffffffffff166323b872dd33600360009054906101000a900473ffffffffffffffffffffffffffffffffffffffff168a6040518463ffffffff167c0100000000000000000000000000000000000000000000000000000000028152600401808473ffffffffffffffffffffffffffffffffffffffff1673ffffffffffffffffffffffffffffffffffffffff1681526020018373ffffffffffffffffffffffffffffffffffffffff1673ffffffffffffffffffffffffffffffffffffffff1681526020018281526020019350505050602060405180830381600087803b158015610eae57600080fd5b505af1158015610ec2573d6000803e3d6000fd5b505050506040513d6020811015610ed857600080fd5b810190808051906020019092919050505050600160009054906101000a900473ffffffffffffffffffffffffffffffffffffffff1673ffffffffffffffffffffffffffffffffffffffff166323b872dd336000809054906101000a900473ffffffffffffffffffffffffffffffffffffffff16866040518463ffffffff167c0100000000000000000000000000000000000000000000000000000000028152600401808473ffffffffffffffffffffffffffffffffffffffff1673ffffffffffffffffffffffffffffffffffffffff1681526020018373ffffffffffffffffffffffffffffffffffffffff1673ffffffffffffffffffffffffffffffffffffffff1681526020018281526020019350505050602060405180830381600087803b15801561100457600080fd5b505af1158015611018573d6000803e3d6000fd5b505050506040513d602081101561102e57600080fd5b8101908080519060200190929190505050506040805190810160405280601381526020017f776974686472617720636f6d706c6574652e200000000000000000000000000081525095506110b6565b6040805190810160405280601e81526020017f6e6f7420612076616c696420616d6f756e7420746f207769746864726177000081525095505b5050505050919050565b60055481565b60006002905090565b600460009054906101000a900473ffffffffffffffffffffffffffffffffffffffff1681565b6000806111006110c6565b60058190555061111b6005548461145d90919063ffffffff16565b9050600160009054906101000a900473ffffffffffffffffffffffffffffffffffffffff1673ffffffffffffffffffffffffffffffffffffffff1663095ea7b330836040518363ffffffff167c0100000000000000000000000000000000000000000000000000000000028152600401808373ffffffffffffffffffffffffffffffffffffffff1673ffffffffffffffffffffffffffffffffffffffff16815260200182815260200192505050602060405180830381600087803b1580156111e257600080fd5b505af11580156111f6573d6000803e3d6000fd5b505050506040513d602081101561120c57600080fd5b810190808051906020019092919050505050600160009054906101000a900473ffffffffffffffffffffffffffffffffffffffff1673ffffffffffffffffffffffffffffffffffffffff166323b872dd3330846040518463ffffffff167c0100000000000000000000000000000000000000000000000000000000028152600401808473ffffffffffffffffffffffffffffffffffffffff1673ffffffffffffffffffffffffffffffffffffffff1681526020018373ffffffffffffffffffffffffffffffffffffffff1673ffffffffffffffffffffffffffffffffffffffff1681526020018281526020019350505050602060405180830381600087803b15801561131757600080fd5b505af115801561132b573d6000803e3d6000fd5b505050506040513d602081101561134157600080fd5b810190808051906020019092919050505050600460009054906101000a900473ffffffffffffffffffffffffffffffffffffffff1673ffffffffffffffffffffffffffffffffffffffff1663a9059cbb33856040518363ffffffff167c0100000000000000000000000000000000000000000000000000000000028152600401808373ffffffffffffffffffffffffffffffffffffffff1673ffffffffffffffffffffffffffffffffffffffff16815260200182815260200192505050602060405180830381600087803b15801561141857600080fd5b505af115801561142c573d6000803e3d6000fd5b505050506040513d602081101561144257600080fd5b81019080805190602001909291905050505082915050919050565b6000808284029050600084148061147e575082848281151561147b57fe5b04145b151561148657fe5b8091505092915050565b600080828481151561149e57fe5b0490508091505092915050565b60008282111515156114b957fe5b8183039050929150505600a165627a7a72305820d2eea5677b8eca2ce81a1c7474a9afd3879ad617ddd47224b5ebd46a9cb89a9a0029",
  "source": "\r\npragma solidity ^0.4.24;\r\nimport \"./FixedSupplyToken.sol\";\r\nimport \"../lib/ownership/ZapCoordinatorInterface.sol\";\r\nimport \"../lib/ownership/ZapCoordinator.sol\";\r\nimport \"../token/ZapToken.sol\";\r\n\r\n\r\ncontract Market {\r\n\r\n\r\n  using SafeMath for uint256;\r\n  address main; // main market address\r\n  ZapToken public zapToken;\r\n  ZapCoordinatorInterface public coordinator;\r\n  address fixsupplyaddress;\r\n  FixedSupplyToken public FToken;\r\n  uint256  public buyPrice ;\r\n\r\n  constructor(address _coordinator) public {\r\n      coordinator = ZapCoordinatorInterface(_coordinator);\r\n      address zapTokenAddress = coordinator.getContract(\"ZAP_TOKEN\");\r\n      /* main= coordinator.getContract(\"MainMarket\"); */\r\n      fixsupplyaddress = coordinator.getContract(\"FixedSupplyToken\");\r\n      FToken= FixedSupplyToken(fixsupplyaddress);\r\n      zapToken = ZapToken(zapTokenAddress);\r\n\r\n  }\r\n\r\n//returns the current price of zap to token\r\n  function getPrice () public pure returns (uint256){\r\n  //e/btc divided e/zapwe\r\n    return 2; //need to change to match oracle\r\n  }\r\n\r\n//buying token\r\n  function BuyToken (uint256 numberoftoken) public returns(uint256){\r\n\r\n    buyPrice = getPrice();//set it to the new price using oracle ;\r\n    uint256 zaprequire = numberoftoken.mul(buyPrice);\r\n  //check if msg.sender has enough zap\r\n    zapToken.approve(address(this),zaprequire); //address _spender, uint256 _valu\r\n    zapToken.transferFrom(msg.sender,address(this),zaprequire);  //transferFrom(address from, address to, uint256 value)\r\n    FToken.transfer(msg.sender,numberoftoken); // sends token to zap\r\n\r\n      return numberoftoken;\r\n    }\r\n\r\n\r\n//return the number of token a person has\r\n  function getBalance () public view returns (uint256){\r\n    return FToken.balanceOf(msg.sender) ;\r\n  }\r\n\r\n//withrawn an amount of Token\r\n  function Withdrawn (uint256 withdraw_amount) public payable returns (string memory ) {\r\n    if (FToken.balanceOf(msg.sender) >= withdraw_amount){ //check if msg.sender has enough token\r\n    buyPrice= getPrice();// set the buy price by usign oracle\r\n    uint256 previousprice= (withdraw_amount.mul(FToken.zapWei_spent(msg.sender))).div(FToken.balanceOf(msg.sender));\r\n    uint256 currentprice = withdraw_amount.mul(buyPrice) ;\r\n    uint256 withdrawfee =  (currentprice.mul(15)).div(100); //15% fee\r\n    if (currentprice >= previousprice){ //user wins\r\n      uint256 difference = currentprice.sub( previousprice);//somehow send this to the main to tell them to pay the different\r\n      zapToken.transfer(msg.sender,previousprice);\r\n\r\n      zapToken.transferFrom(main,msg.sender,difference);\r\n\r\n    }\r\n    else {//main market win\r\n      uint256 gain= previousprice.sub(currentprice);\r\n      zapToken.transfer(msg.sender,currentprice);\r\n      zapToken.transferFrom(address(this),main,gain);\r\n\r\n\r\n\r\n    }\r\n    FToken.approve(address(this),withdraw_amount);\r\n    FToken.transferFrom(msg.sender, fixsupplyaddress,withdraw_amount);//(address from, address to, uint tokens)\r\n    zapToken.transferFrom(msg.sender,main,withdrawfee);\r\n\r\n    return \"withdraw complete. \";\r\n    }\r\n\r\n    else{\r\n      return \"not a valid amount to withdraw\";\r\n    }\r\n  }\r\n}\r\n",
  "sourcePath": "C:\\Users\\min\\auxmarket-\\contracts\\market\\Market.sol",
  "compiler": {
    "name": "solc",
    "version": "0.4.25+commit.59dbf8f1.Emscripten.clang"
  },
  "schemaVersion": "2.0.2",
  "updatedAt": "2019-07-10T20:55:35.405Z"
}