{
  "contractName": "Market",
  "abi": [
    {
      "constant": true,
      "inputs": [],
      "name": "coordinator",
      "outputs": [
        {
          "name": "",
          "type": "address"
        }
      ],
      "payable": false,
      "stateMutability": "view",
      "type": "function"
    },
    {
      "constant": true,
      "inputs": [],
      "name": "zapToken",
      "outputs": [
        {
          "name": "",
          "type": "address"
        }
      ],
      "payable": false,
      "stateMutability": "view",
      "type": "function"
    },
    {
      "constant": true,
      "inputs": [],
      "name": "FToken",
      "outputs": [
        {
          "name": "",
          "type": "address"
        }
      ],
      "payable": false,
      "stateMutability": "view",
      "type": "function"
    },
    {
      "inputs": [
        {
          "name": "_coordinator",
          "type": "address"
        }
      ],
      "payable": false,
      "stateMutability": "nonpayable",
      "type": "constructor"
    },
    {
      "constant": true,
      "inputs": [],
      "name": "getPrice",
      "outputs": [
        {
          "name": "",
          "type": "uint256"
        }
      ],
      "payable": false,
      "stateMutability": "pure",
      "type": "function"
    },
    {
      "constant": false,
      "inputs": [
        {
          "name": "numberoftoken",
          "type": "uint256"
        }
      ],
      "name": "BuyToken",
      "outputs": [
        {
          "name": "",
          "type": "uint256"
        }
      ],
      "payable": true,
      "stateMutability": "payable",
      "type": "function"
    },
    {
      "constant": true,
      "inputs": [],
      "name": "getBalance",
      "outputs": [
        {
          "name": "",
          "type": "uint256"
        }
      ],
      "payable": false,
      "stateMutability": "view",
      "type": "function"
    },
    {
      "constant": false,
      "inputs": [
        {
          "name": "withdraw_amount",
          "type": "uint256"
        }
      ],
      "name": "Withdrawn",
      "outputs": [
        {
          "name": "",
          "type": "string"
        }
      ],
      "payable": true,
      "stateMutability": "payable",
      "type": "function"
    }
  ],
  "bytecode": "0x608060405234801561001057600080fd5b5060405160208061176b83398101806040528101908080519060200190929190505050600081600460006101000a81548173ffffffffffffffffffffffffffffffffffffffff021916908373ffffffffffffffffffffffffffffffffffffffff160217905550600460009054906101000a900473ffffffffffffffffffffffffffffffffffffffff1673ffffffffffffffffffffffffffffffffffffffff1663358177736040518163ffffffff167c01000000000000000000000000000000000000000000000000000000000281526004018080602001828103825260098152602001807f5a41505f544f4b454e0000000000000000000000000000000000000000000000815250602001915050602060405180830381600087803b15801561013857600080fd5b505af115801561014c573d6000803e3d6000fd5b505050506040513d602081101561016257600080fd5b81019080805190602001909291905050509050600460009054906101000a900473ffffffffffffffffffffffffffffffffffffffff1673ffffffffffffffffffffffffffffffffffffffff1663358177736040518163ffffffff167c01000000000000000000000000000000000000000000000000000000000281526004018080602001828103825260108152602001807f4669786564537570706c79546f6b656e00000000000000000000000000000000815250602001915050602060405180830381600087803b15801561023757600080fd5b505af115801561024b573d6000803e3d6000fd5b505050506040513d602081101561026157600080fd5b8101908080519060200190929190505050600560006101000a81548173ffffffffffffffffffffffffffffffffffffffff021916908373ffffffffffffffffffffffffffffffffffffffff160217905550600560009054906101000a900473ffffffffffffffffffffffffffffffffffffffff16600660006101000a81548173ffffffffffffffffffffffffffffffffffffffff021916908373ffffffffffffffffffffffffffffffffffffffff16021790555080600360006101000a81548173ffffffffffffffffffffffffffffffffffffffff021916908373ffffffffffffffffffffffffffffffffffffffff1602179055505050611404806103676000396000f300608060405260043610610083576000357c0100000000000000000000000000000000000000000000000000000000900463ffffffff1680630a0090971461008857806312065fe0146100df5780632b56eb561461010a578063430648de1461016157806398d5fdca146101fa578063a922cf9214610225578063fcb0368c1461027c575b600080fd5b34801561009457600080fd5b5061009d6102b0565b604051808273ffffffffffffffffffffffffffffffffffffffff1673ffffffffffffffffffffffffffffffffffffffff16815260200191505060405180910390f35b3480156100eb57600080fd5b506100f46102d6565b6040518082815260200191505060405180910390f35b34801561011657600080fd5b5061011f6103d5565b604051808273ffffffffffffffffffffffffffffffffffffffff1673ffffffffffffffffffffffffffffffffffffffff16815260200191505060405180910390f35b61017f600480360381019080803590602001909291905050506103fb565b6040518080602001828103825283818151815260200191508051906020019080838360005b838110156101bf5780820151818401526020810190506101a4565b50505050905090810190601f1680156101ec5780820380516001836020036101000a031916815260200191505b509250505060405180910390f35b34801561020657600080fd5b5061020f610f1e565b6040518082815260200191505060405180910390f35b34801561023157600080fd5b5061023a610f27565b604051808273ffffffffffffffffffffffffffffffffffffffff1673ffffffffffffffffffffffffffffffffffffffff16815260200191505060405180910390f35b61029a60048036038101908080359060200190929190505050610f4d565b6040518082815260200191505060405180910390f35b600460009054906101000a900473ffffffffffffffffffffffffffffffffffffffff1681565b6000600660009054906101000a900473ffffffffffffffffffffffffffffffffffffffff1673ffffffffffffffffffffffffffffffffffffffff166370a08231336040518263ffffffff167c0100000000000000000000000000000000000000000000000000000000028152600401808273ffffffffffffffffffffffffffffffffffffffff1673ffffffffffffffffffffffffffffffffffffffff168152602001915050602060405180830381600087803b15801561039557600080fd5b505af11580156103a9573d6000803e3d6000fd5b505050506040513d60208110156103bf57600080fd5b8101908080519060200190929190505050905090565b600360009054906101000a900473ffffffffffffffffffffffffffffffffffffffff1681565b606060008060008060008087600660009054906101000a900473ffffffffffffffffffffffffffffffffffffffff1673ffffffffffffffffffffffffffffffffffffffff166370a08231336040518263ffffffff167c0100000000000000000000000000000000000000000000000000000000028152600401808273ffffffffffffffffffffffffffffffffffffffff1673ffffffffffffffffffffffffffffffffffffffff168152602001915050602060405180830381600087803b1580156104c457600080fd5b505af11580156104d8573d6000803e3d6000fd5b505050506040513d60208110156104ee57600080fd5b8101908080519060200190929190505050101515610eda5761050e610f1e565b60028190555061061e600660009054906101000a900473ffffffffffffffffffffffffffffffffffffffff1673ffffffffffffffffffffffffffffffffffffffff166370a08231336040518263ffffffff167c0100000000000000000000000000000000000000000000000000000000028152600401808273ffffffffffffffffffffffffffffffffffffffff1673ffffffffffffffffffffffffffffffffffffffff168152602001915050602060405180830381600087803b1580156105d457600080fd5b505af11580156105e8573d6000803e3d6000fd5b505050506040513d60208110156105fe57600080fd5b81019080805190602001909291905050508961135390919063ffffffff16565b9550610672600160003373ffffffffffffffffffffffffffffffffffffffff1673ffffffffffffffffffffffffffffffffffffffff168152602001908152602001600020548761136e90919063ffffffff16565b94506106896002548961136e90919063ffffffff16565b935061069f60018561136e90919063ffffffff16565b9250848410151561094f576106bd85856113a190919063ffffffff16565b9150600360009054906101000a900473ffffffffffffffffffffffffffffffffffffffff1673ffffffffffffffffffffffffffffffffffffffff166323b872dd3033886040518463ffffffff167c0100000000000000000000000000000000000000000000000000000000028152600401808473ffffffffffffffffffffffffffffffffffffffff1673ffffffffffffffffffffffffffffffffffffffff1681526020018373ffffffffffffffffffffffffffffffffffffffff1673ffffffffffffffffffffffffffffffffffffffff1681526020018281526020019350505050602060405180830381600087803b1580156107b857600080fd5b505af11580156107cc573d6000803e3d6000fd5b505050506040513d60208110156107e257600080fd5b810190808051906020019092919050505050600360009054906101000a900473ffffffffffffffffffffffffffffffffffffffff1673ffffffffffffffffffffffffffffffffffffffff166323b872dd6000809054906101000a900473ffffffffffffffffffffffffffffffffffffffff1633856040518463ffffffff167c0100000000000000000000000000000000000000000000000000000000028152600401808473ffffffffffffffffffffffffffffffffffffffff1673ffffffffffffffffffffffffffffffffffffffff1681526020018373ffffffffffffffffffffffffffffffffffffffff1673ffffffffffffffffffffffffffffffffffffffff1681526020018281526020019350505050602060405180830381600087803b15801561090e57600080fd5b505af1158015610922573d6000803e3d6000fd5b505050506040513d602081101561093857600080fd5b810190808051906020019092919050505050610bf0565b61096284866113a190919063ffffffff16565b9050600360009054906101000a900473ffffffffffffffffffffffffffffffffffffffff1673ffffffffffffffffffffffffffffffffffffffff166323b872dd3033876040518463ffffffff167c0100000000000000000000000000000000000000000000000000000000028152600401808473ffffffffffffffffffffffffffffffffffffffff1673ffffffffffffffffffffffffffffffffffffffff1681526020018373ffffffffffffffffffffffffffffffffffffffff1673ffffffffffffffffffffffffffffffffffffffff1681526020018281526020019350505050602060405180830381600087803b158015610a5d57600080fd5b505af1158015610a71573d6000803e3d6000fd5b505050506040513d6020811015610a8757600080fd5b810190808051906020019092919050505050600360009054906101000a900473ffffffffffffffffffffffffffffffffffffffff1673ffffffffffffffffffffffffffffffffffffffff166323b872dd306000809054906101000a900473ffffffffffffffffffffffffffffffffffffffff16846040518463ffffffff167c0100000000000000000000000000000000000000000000000000000000028152600401808473ffffffffffffffffffffffffffffffffffffffff1673ffffffffffffffffffffffffffffffffffffffff1681526020018373ffffffffffffffffffffffffffffffffffffffff1673ffffffffffffffffffffffffffffffffffffffff1681526020018281526020019350505050602060405180830381600087803b158015610bb357600080fd5b505af1158015610bc7573d6000803e3d6000fd5b505050506040513d6020811015610bdd57600080fd5b8101908080519060200190929190505050505b600660009054906101000a900473ffffffffffffffffffffffffffffffffffffffff1673ffffffffffffffffffffffffffffffffffffffff166323b872dd33600560009054906101000a900473ffffffffffffffffffffffffffffffffffffffff168b6040518463ffffffff167c0100000000000000000000000000000000000000000000000000000000028152600401808473ffffffffffffffffffffffffffffffffffffffff1673ffffffffffffffffffffffffffffffffffffffff1681526020018373ffffffffffffffffffffffffffffffffffffffff1673ffffffffffffffffffffffffffffffffffffffff1681526020018281526020019350505050602060405180830381600087803b158015610d0b57600080fd5b505af1158015610d1f573d6000803e3d6000fd5b505050506040513d6020811015610d3557600080fd5b810190808051906020019092919050505050600360009054906101000a900473ffffffffffffffffffffffffffffffffffffffff1673ffffffffffffffffffffffffffffffffffffffff166323b872dd336000809054906101000a900473ffffffffffffffffffffffffffffffffffffffff16866040518463ffffffff167c0100000000000000000000000000000000000000000000000000000000028152600401808473ffffffffffffffffffffffffffffffffffffffff1673ffffffffffffffffffffffffffffffffffffffff1681526020018373ffffffffffffffffffffffffffffffffffffffff1673ffffffffffffffffffffffffffffffffffffffff1681526020018281526020019350505050602060405180830381600087803b158015610e6157600080fd5b505af1158015610e75573d6000803e3d6000fd5b505050506040513d6020811015610e8b57600080fd5b8101908080519060200190929190505050506040805190810160405280601381526020017f776974686472617720636f6d706c6574652e20000000000000000000000000008152509650610f13565b6040805190810160405280601e81526020017f6e6f7420612076616c696420616d6f756e7420746f207769746864726177000081525096505b505050505050919050565b60006002905090565b600660009054906101000a900473ffffffffffffffffffffffffffffffffffffffff1681565b600080610f58610f1e565b600281905550610f736002548461136e90919063ffffffff16565b905080600360009054906101000a900473ffffffffffffffffffffffffffffffffffffffff1673ffffffffffffffffffffffffffffffffffffffff166370a08231336040518263ffffffff167c0100000000000000000000000000000000000000000000000000000000028152600401808273ffffffffffffffffffffffffffffffffffffffff1673ffffffffffffffffffffffffffffffffffffffff168152602001915050602060405180830381600087803b15801561103357600080fd5b505af1158015611047573d6000803e3d6000fd5b505050506040513d602081101561105d57600080fd5b810190808051906020019092919050505010151561134857600360009054906101000a900473ffffffffffffffffffffffffffffffffffffffff1673ffffffffffffffffffffffffffffffffffffffff166323b872dd3330846040518463ffffffff167c0100000000000000000000000000000000000000000000000000000000028152600401808473ffffffffffffffffffffffffffffffffffffffff1673ffffffffffffffffffffffffffffffffffffffff1681526020018373ffffffffffffffffffffffffffffffffffffffff1673ffffffffffffffffffffffffffffffffffffffff1681526020018281526020019350505050602060405180830381600087803b15801561116e57600080fd5b505af1158015611182573d6000803e3d6000fd5b505050506040513d602081101561119857600080fd5b8101908080519060200190929190505050506111fc81600160003373ffffffffffffffffffffffffffffffffffffffff1673ffffffffffffffffffffffffffffffffffffffff168152602001908152602001600020546113ba90919063ffffffff16565b600160003373ffffffffffffffffffffffffffffffffffffffff1673ffffffffffffffffffffffffffffffffffffffff16815260200190815260200160002081905550600660009054906101000a900473ffffffffffffffffffffffffffffffffffffffff1673ffffffffffffffffffffffffffffffffffffffff1663a9059cbb33856040518363ffffffff167c0100000000000000000000000000000000000000000000000000000000028152600401808373ffffffffffffffffffffffffffffffffffffffff1673ffffffffffffffffffffffffffffffffffffffff16815260200182815260200192505050602060405180830381600087803b15801561130457600080fd5b505af1158015611318573d6000803e3d6000fd5b505050506040513d602081101561132e57600080fd5b81019080805190602001909291905050505082915061134d565b600091505b50919050565b600080828481151561136157fe5b0490508091505092915050565b6000808284029050600084148061138f575082848281151561138c57fe5b04145b151561139757fe5b8091505092915050565b60008282111515156113af57fe5b818303905092915050565b60008082840190508381101515156113ce57fe5b80915050929150505600a165627a7a72305820894f3117036b9ad6dab2f8c1dffedfba3199a0dfb8bc0d6e3d33d69e6e38cb4f0029",
  "source": "\r\npragma solidity ^0.4.24;\r\nimport \"./FixedSupplyToken.sol\";\r\nimport \"../lib/ownership/ZapCoordinatorInterface.sol\";\r\nimport \"../lib/ownership/ZapCoordinator.sol\";\r\nimport \"../token/ZapToken.sol\";\r\n\r\n\r\ncontract Market {\r\n\r\n\r\n  using SafeMath for uint256;\r\n  address main; // main market address\r\n  mapping (address => uint256) private zapspent; //amount of zap that a msg.sender has spent in buying Token\r\n  uint256 buyPrice; //current price per zap/btc\r\n  ZapToken public zapToken;\r\n  ZapCoordinatorInterface public coordinator;\r\n  address fixsupplyaddress;\r\n  FixedSupplyToken public FToken;\r\n\r\n\r\n\r\n  constructor(address _coordinator) public {\r\n      coordinator = ZapCoordinatorInterface(_coordinator);\r\n      address zapTokenAddress = coordinator.getContract(\"ZAP_TOKEN\");\r\n      /* main= coordinator.getContract(\"MainMarket\"); */\r\n      fixsupplyaddress = coordinator.getContract(\"FixedSupplyToken\");\r\n      FToken= FixedSupplyToken(fixsupplyaddress);\r\n      zapToken = ZapToken(zapTokenAddress);\r\n\r\n  }\r\n\r\n//returns the current price of zap to bitcoing\r\n  function getPrice () public pure returns (uint256){\r\n    return 2; //need to change to match oracle\r\n  }\r\n//buying token\r\n  function BuyToken (uint256 numberoftoken) public payable returns(uint256){\r\n\r\n    buyPrice = getPrice();//set it to the new price using oracle ;\r\n    uint256 zaprequire = numberoftoken.mul(buyPrice);\r\n    if (zapToken.balanceOf(msg.sender) >= zaprequire){  //check if msg.sender has enough zap\r\n      zapToken.transferFrom(msg.sender,address(this),zaprequire);  //transferFrom(address from, address to, uint256 value)\r\n      zapspent[msg.sender]= zapspent[msg.sender].add(zaprequire);  //add the amount spent to the msg.sender\r\n      FToken.transfer(msg.sender,numberoftoken); // sends token to zap\r\n\r\n      return numberoftoken;\r\n    }\r\n    else{\r\n      return 0;\r\n    }\r\n\r\n  }\r\n\r\n//return the number of token a person has\r\n  function getBalance () public view returns (uint256){\r\n    return FToken.balanceOf(msg.sender) ;\r\n  }\r\n\r\n//withrawn an amount of Token\r\n  function Withdrawn (uint256 withdraw_amount) public payable returns (string memory ) {\r\n    if (FToken.balanceOf(msg.sender) >= withdraw_amount){ //check if msg.sender has enough token\r\n    buyPrice= getPrice();// set the buy price by usign oracle\r\n    uint256 ratio = withdraw_amount.div(FToken.balanceOf(msg.sender));\r\n    uint256 previousprice= ratio.mul(zapspent[msg.sender]);\r\n    uint256 currentprice = withdraw_amount.mul(buyPrice) ;\r\n    uint256 withdrawfee =  currentprice.mul(1); //WITHDRAWN FEE IS CURRENTLY INCORRECT OKAY\r\n    if (currentprice >= previousprice){\r\n      uint256 difference = currentprice.sub( previousprice);//somehow send this to the main to tell them to pay the different\r\n      zapToken.transferFrom(address(this),msg.sender,previousprice);\r\n      zapToken.transferFrom(main,msg.sender,difference);\r\n\r\n    }\r\n    else {\r\n      uint256 gain= previousprice.sub(currentprice);\r\n      zapToken.transferFrom(address(this),msg.sender,currentprice);\r\n      zapToken.transferFrom(address(this),main,gain);\r\n\r\n\r\n\r\n    }\r\n    FToken.transferFrom(msg.sender, fixsupplyaddress,withdraw_amount);//(address from, address to, uint tokens)\r\n    zapToken.transferFrom(msg.sender,main,withdrawfee);\r\n\r\n    return \"withdraw complete. \";\r\n    }\r\n\r\n    else{\r\n      return \"not a valid amount to withdraw\";\r\n    }\r\n  }\r\n}\r\n",
  "sourcePath": "C:\\Users\\min\\auxmarket-\\contracts\\market\\Market.sol",
  "compiler": {
    "name": "solc",
    "version": "0.4.25+commit.59dbf8f1.Emscripten.clang"
  },
  "schemaVersion": "2.0.2",
  "updatedAt": "2019-07-10T17:29:17.997Z"
}