{
  "contractName": "Market",
  "abi": [
    {
      "constant": true,
      "inputs": [],
      "name": "coordinator",
      "outputs": [
        {
          "name": "",
          "type": "address"
        }
      ],
      "payable": false,
      "stateMutability": "view",
      "type": "function"
    },
    {
      "constant": true,
      "inputs": [],
      "name": "zapToken",
      "outputs": [
        {
          "name": "",
          "type": "address"
        }
      ],
      "payable": false,
      "stateMutability": "view",
      "type": "function"
    },
    {
      "constant": true,
      "inputs": [],
      "name": "fixsupplyaddress",
      "outputs": [
        {
          "name": "",
          "type": "address"
        }
      ],
      "payable": false,
      "stateMutability": "view",
      "type": "function"
    },
    {
      "constant": true,
      "inputs": [],
      "name": "buyPrice",
      "outputs": [
        {
          "name": "",
          "type": "uint256"
        }
      ],
      "payable": false,
      "stateMutability": "view",
      "type": "function"
    },
    {
      "constant": true,
      "inputs": [],
      "name": "FToken",
      "outputs": [
        {
          "name": "",
          "type": "address"
        }
      ],
      "payable": false,
      "stateMutability": "view",
      "type": "function"
    },
    {
      "inputs": [
        {
          "name": "_coordinator",
          "type": "address"
        }
      ],
      "payable": false,
      "stateMutability": "nonpayable",
      "type": "constructor"
    },
    {
      "anonymous": false,
      "inputs": [],
      "name": "GetPriceEvent",
      "type": "event"
    },
    {
      "anonymous": false,
      "inputs": [
        {
          "indexed": false,
          "name": "amount",
          "type": "uint256"
        }
      ],
      "name": "PriceUpdated",
      "type": "event"
    },
    {
      "constant": false,
      "inputs": [],
      "name": "getPrice",
      "outputs": [
        {
          "name": "",
          "type": "uint256"
        }
      ],
      "payable": false,
      "stateMutability": "nonpayable",
      "type": "function"
    },
    {
      "constant": true,
      "inputs": [
        {
          "name": "_user",
          "type": "address"
        }
      ],
      "name": "getAMTBalance",
      "outputs": [
        {
          "name": "",
          "type": "uint256"
        }
      ],
      "payable": false,
      "stateMutability": "view",
      "type": "function"
    },
    {
      "constant": true,
      "inputs": [
        {
          "name": "_user",
          "type": "address"
        }
      ],
      "name": "getZapWeiSpent",
      "outputs": [
        {
          "name": "",
          "type": "uint256"
        }
      ],
      "payable": false,
      "stateMutability": "view",
      "type": "function"
    },
    {
      "constant": true,
      "inputs": [
        {
          "name": "_user",
          "type": "address"
        }
      ],
      "name": "getZapBalance",
      "outputs": [
        {
          "name": "",
          "type": "uint256"
        }
      ],
      "payable": false,
      "stateMutability": "view",
      "type": "function"
    },
    {
      "constant": false,
      "inputs": [
        {
          "name": "_price",
          "type": "uint256"
        }
      ],
      "name": "updatePrice",
      "outputs": [],
      "payable": false,
      "stateMutability": "nonpayable",
      "type": "function"
    },
    {
      "constant": false,
      "inputs": [
        {
          "name": "numberoftoken",
          "type": "uint256"
        }
      ],
      "name": "buy",
      "outputs": [
        {
          "name": "",
          "type": "uint256"
        }
      ],
      "payable": false,
      "stateMutability": "nonpayable",
      "type": "function"
    },
    {
      "constant": false,
      "inputs": [
        {
          "name": "withdraw_amount",
          "type": "uint256"
        }
      ],
      "name": "Withdrawn",
      "outputs": [
        {
          "name": "",
          "type": "uint8"
        }
      ],
      "payable": true,
      "stateMutability": "payable",
      "type": "function"
    }
  ],
  "bytecode": "0x608060405234801561001057600080fd5b506040516020806116bb83398101806040528101908080519060200190929190505050600081600160006101000a81548173ffffffffffffffffffffffffffffffffffffffff021916908373ffffffffffffffffffffffffffffffffffffffff160217905550600160009054906101000a900473ffffffffffffffffffffffffffffffffffffffff1673ffffffffffffffffffffffffffffffffffffffff1663358177736040518163ffffffff167c01000000000000000000000000000000000000000000000000000000000281526004018080602001828103825260098152602001807f5a41505f544f4b454e0000000000000000000000000000000000000000000000815250602001915050602060405180830381600087803b15801561013857600080fd5b505af115801561014c573d6000803e3d6000fd5b505050506040513d602081101561016257600080fd5b81019080805190602001909291905050509050600160009054906101000a900473ffffffffffffffffffffffffffffffffffffffff1673ffffffffffffffffffffffffffffffffffffffff1663358177736040518163ffffffff167c01000000000000000000000000000000000000000000000000000000000281526004018080602001828103825260108152602001807f4669786564537570706c79546f6b656e00000000000000000000000000000000815250602001915050602060405180830381600087803b15801561023757600080fd5b505af115801561024b573d6000803e3d6000fd5b505050506040513d602081101561026157600080fd5b8101908080519060200190929190505050600260006101000a81548173ffffffffffffffffffffffffffffffffffffffff021916908373ffffffffffffffffffffffffffffffffffffffff160217905550600260009054906101000a900473ffffffffffffffffffffffffffffffffffffffff16600360006101000a81548173ffffffffffffffffffffffffffffffffffffffff021916908373ffffffffffffffffffffffffffffffffffffffff160217905550806000806101000a81548173ffffffffffffffffffffffffffffffffffffffff021916908373ffffffffffffffffffffffffffffffffffffffff1602179055505050611355806103666000396000f3006080604052600436106100ba576000357c0100000000000000000000000000000000000000000000000000000000900463ffffffff1680630a009097146100bf5780632b56eb56146101165780632ece100a1461016d57806339bdf608146101c4578063430648de1461021b5780638620410b146102555780638d6cc56d1461028057806398d5fdca146102ad578063a922cf92146102d8578063c9d5bedd1461032f578063d07c9f8414610386578063d96a094a146103dd575b600080fd5b3480156100cb57600080fd5b506100d461041e565b604051808273ffffffffffffffffffffffffffffffffffffffff1673ffffffffffffffffffffffffffffffffffffffff16815260200191505060405180910390f35b34801561012257600080fd5b5061012b610444565b604051808273ffffffffffffffffffffffffffffffffffffffff1673ffffffffffffffffffffffffffffffffffffffff16815260200191505060405180910390f35b34801561017957600080fd5b506101ae600480360381019080803573ffffffffffffffffffffffffffffffffffffffff169060200190929190505050610469565b6040518082815260200191505060405180910390f35b3480156101d057600080fd5b506101d9610569565b604051808273ffffffffffffffffffffffffffffffffffffffff1673ffffffffffffffffffffffffffffffffffffffff16815260200191505060405180910390f35b6102396004803603810190808035906020019092919050505061058f565b604051808260ff1660ff16815260200191505060405180910390f35b34801561026157600080fd5b5061026a610c63565b6040518082815260200191505060405180910390f35b34801561028c57600080fd5b506102ab60048036038101908080359060200190929190505050610c69565b005b3480156102b957600080fd5b506102c2610caa565b6040518082815260200191505060405180910390f35b3480156102e457600080fd5b506102ed610d34565b604051808273ffffffffffffffffffffffffffffffffffffffff1673ffffffffffffffffffffffffffffffffffffffff16815260200191505060405180910390f35b34801561033b57600080fd5b50610370600480360381019080803573ffffffffffffffffffffffffffffffffffffffff169060200190929190505050610d5a565b6040518082815260200191505060405180910390f35b34801561039257600080fd5b506103c7600480360381019080803573ffffffffffffffffffffffffffffffffffffffff169060200190929190505050610e5b565b6040518082815260200191505060405180910390f35b3480156103e957600080fd5b5061040860048036038101908080359060200190929190505050610f5c565b6040518082815260200191505060405180910390f35b600160009054906101000a900473ffffffffffffffffffffffffffffffffffffffff1681565b6000809054906101000a900473ffffffffffffffffffffffffffffffffffffffff1681565b60008060009054906101000a900473ffffffffffffffffffffffffffffffffffffffff1673ffffffffffffffffffffffffffffffffffffffff166370a08231836040518263ffffffff167c0100000000000000000000000000000000000000000000000000000000028152600401808273ffffffffffffffffffffffffffffffffffffffff1673ffffffffffffffffffffffffffffffffffffffff168152602001915050602060405180830381600087803b15801561052757600080fd5b505af115801561053b573d6000803e3d6000fd5b505050506040513d602081101561055157600080fd5b81019080805190602001909291905050509050919050565b600260009054906101000a900473ffffffffffffffffffffffffffffffffffffffff1681565b60008060008060008086600360009054906101000a900473ffffffffffffffffffffffffffffffffffffffff1673ffffffffffffffffffffffffffffffffffffffff166370a08231336040518263ffffffff167c0100000000000000000000000000000000000000000000000000000000028152600401808273ffffffffffffffffffffffffffffffffffffffff1673ffffffffffffffffffffffffffffffffffffffff168152602001915050602060405180830381600087803b15801561065657600080fd5b505af115801561066a573d6000803e3d6000fd5b505050506040513d602081101561068057600080fd5b8101908080519060200190929190505050101515610c54576106a0610caa565b6004819055506108b9600360009054906101000a900473ffffffffffffffffffffffffffffffffffffffff1673ffffffffffffffffffffffffffffffffffffffff166370a08231336040518263ffffffff167c0100000000000000000000000000000000000000000000000000000000028152600401808273ffffffffffffffffffffffffffffffffffffffff1673ffffffffffffffffffffffffffffffffffffffff168152602001915050602060405180830381600087803b15801561076657600080fd5b505af115801561077a573d6000803e3d6000fd5b505050506040513d602081101561079057600080fd5b81019080805190602001909291905050506108ab600360009054906101000a900473ffffffffffffffffffffffffffffffffffffffff1673ffffffffffffffffffffffffffffffffffffffff16635e00179f336040518263ffffffff167c0100000000000000000000000000000000000000000000000000000000028152600401808273ffffffffffffffffffffffffffffffffffffffff1673ffffffffffffffffffffffffffffffffffffffff168152602001915050602060405180830381600087803b15801561086157600080fd5b505af1158015610875573d6000803e3d6000fd5b505050506040513d602081101561088b57600080fd5b81019080805190602001909291905050508a6112c290919063ffffffff16565b6112f590919063ffffffff16565b94506108d0600454886112c290919063ffffffff16565b935084841015156108fa576108ee858561131090919063ffffffff16565b91506004549250610915565b61090d848661131090919063ffffffff16565b905060045492505b600360009054906101000a900473ffffffffffffffffffffffffffffffffffffffff1673ffffffffffffffffffffffffffffffffffffffff1663095ea7b330896040518363ffffffff167c0100000000000000000000000000000000000000000000000000000000028152600401808373ffffffffffffffffffffffffffffffffffffffff1673ffffffffffffffffffffffffffffffffffffffff16815260200182815260200192505050602060405180830381600087803b1580156109da57600080fd5b505af11580156109ee573d6000803e3d6000fd5b505050506040513d6020811015610a0457600080fd5b810190808051906020019092919050505050600360009054906101000a900473ffffffffffffffffffffffffffffffffffffffff1673ffffffffffffffffffffffffffffffffffffffff166323b872dd33308a6040518463ffffffff167c0100000000000000000000000000000000000000000000000000000000028152600401808473ffffffffffffffffffffffffffffffffffffffff1673ffffffffffffffffffffffffffffffffffffffff1681526020018373ffffffffffffffffffffffffffffffffffffffff1673ffffffffffffffffffffffffffffffffffffffff1681526020018281526020019350505050602060405180830381600087803b158015610b0f57600080fd5b505af1158015610b23573d6000803e3d6000fd5b505050506040513d6020811015610b3957600080fd5b8101908080519060200190929190505050506000809054906101000a900473ffffffffffffffffffffffffffffffffffffffff1673ffffffffffffffffffffffffffffffffffffffff1663a9059cbb33856040518363ffffffff167c0100000000000000000000000000000000000000000000000000000000028152600401808373ffffffffffffffffffffffffffffffffffffffff1673ffffffffffffffffffffffffffffffffffffffff16815260200182815260200192505050602060405180830381600087803b158015610c0f57600080fd5b505af1158015610c23573d6000803e3d6000fd5b505050506040513d6020811015610c3957600080fd5b81019080805190602001909291905050505060019550610c59565b600095505b5050505050919050565b60045481565b806004819055507f66cbca4f3c64fecf1dcb9ce094abcf7f68c3450a1d4e3a8e917dd621edb4ebe0816040518082815260200191505060405180910390a150565b60007f2309e1e9cfe0a2156ced195327abdec4cbed8b31c841c6f15bc67a383594140d60405160405180910390a167016345785d8a000066038d7ea4c68000608342446040518083815260200182815260200192505050604051809103902060019004811515610d1657fe5b0660ff160266ffffffffffffff160167ffffffffffffffff16905090565b600360009054906101000a900473ffffffffffffffffffffffffffffffffffffffff1681565b6000600360009054906101000a900473ffffffffffffffffffffffffffffffffffffffff1673ffffffffffffffffffffffffffffffffffffffff16635e00179f836040518263ffffffff167c0100000000000000000000000000000000000000000000000000000000028152600401808273ffffffffffffffffffffffffffffffffffffffff1673ffffffffffffffffffffffffffffffffffffffff168152602001915050602060405180830381600087803b158015610e1957600080fd5b505af1158015610e2d573d6000803e3d6000fd5b505050506040513d6020811015610e4357600080fd5b81019080805190602001909291905050509050919050565b6000600360009054906101000a900473ffffffffffffffffffffffffffffffffffffffff1673ffffffffffffffffffffffffffffffffffffffff166370a08231836040518263ffffffff167c0100000000000000000000000000000000000000000000000000000000028152600401808273ffffffffffffffffffffffffffffffffffffffff1673ffffffffffffffffffffffffffffffffffffffff168152602001915050602060405180830381600087803b158015610f1a57600080fd5b505af1158015610f2e573d6000803e3d6000fd5b505050506040513d6020811015610f4457600080fd5b81019080805190602001909291905050509050919050565b600080610f67610caa565b600481905550610f82600454846112c290919063ffffffff16565b90506000809054906101000a900473ffffffffffffffffffffffffffffffffffffffff1673ffffffffffffffffffffffffffffffffffffffff1663095ea7b330836040518363ffffffff167c0100000000000000000000000000000000000000000000000000000000028152600401808373ffffffffffffffffffffffffffffffffffffffff1673ffffffffffffffffffffffffffffffffffffffff16815260200182815260200192505050602060405180830381600087803b15801561104857600080fd5b505af115801561105c573d6000803e3d6000fd5b505050506040513d602081101561107257600080fd5b8101908080519060200190929190505050506000809054906101000a900473ffffffffffffffffffffffffffffffffffffffff1673ffffffffffffffffffffffffffffffffffffffff166323b872dd3330846040518463ffffffff167c0100000000000000000000000000000000000000000000000000000000028152600401808473ffffffffffffffffffffffffffffffffffffffff1673ffffffffffffffffffffffffffffffffffffffff1681526020018373ffffffffffffffffffffffffffffffffffffffff1673ffffffffffffffffffffffffffffffffffffffff1681526020018281526020019350505050602060405180830381600087803b15801561117c57600080fd5b505af1158015611190573d6000803e3d6000fd5b505050506040513d60208110156111a657600080fd5b810190808051906020019092919050505050600360009054906101000a900473ffffffffffffffffffffffffffffffffffffffff1673ffffffffffffffffffffffffffffffffffffffff1663a9059cbb33856040518363ffffffff167c0100000000000000000000000000000000000000000000000000000000028152600401808373ffffffffffffffffffffffffffffffffffffffff1673ffffffffffffffffffffffffffffffffffffffff16815260200182815260200192505050602060405180830381600087803b15801561127d57600080fd5b505af1158015611291573d6000803e3d6000fd5b505050506040513d60208110156112a757600080fd5b81019080805190602001909291905050505082915050919050565b600080828402905060008414806112e357508284828115156112e057fe5b04145b15156112eb57fe5b8091505092915050565b600080828481151561130357fe5b0490508091505092915050565b600082821115151561131e57fe5b8183039050929150505600a165627a7a7230582024f8e829ccaf8ddfa4875f51ceae1a5a69e31588e4ffabf5047afa421e4880530029",
  "source": "pragma solidity ^0.4.24;\r\nimport \"./FixedSupplyToken.sol\";\r\nimport \"../lib/ownership/ZapCoordinatorInterface.sol\";\r\nimport \"../lib/ownership/ZapCoordinator.sol\";\r\nimport \"../token/ZapToken.sol\";\r\n\r\n\r\ncontract Market {\r\n\r\n\r\n  using SafeMath for uint256;\r\n\r\n  //address public main; // main market address\r\n\r\n  ZapToken public zapToken;\r\n  ZapCoordinatorInterface public coordinator;\r\n\r\n  address public fixsupplyaddress;\r\n  FixedSupplyToken public FToken;\r\n  uint256  public buyPrice;\r\n\r\n  //address public oracleAddress; // address of account operating oracle\r\n\r\n  event GetPriceEvent();\r\n  event PriceUpdated(uint256 amount);\r\n\r\n  constructor(address _coordinator) public {\r\n      coordinator = ZapCoordinatorInterface(_coordinator);\r\n      address zapTokenAddress = coordinator.getContract(\"ZAP_TOKEN\");\r\n      // main= coordinator.getContract(\"MainMarket\");\r\n      fixsupplyaddress = coordinator.getContract(\"FixedSupplyToken\");\r\n      FToken= FixedSupplyToken(fixsupplyaddress);\r\n      zapToken = ZapToken(zapTokenAddress);\r\n\r\n  }\r\n\r\n//returns the current price of zap to token\r\n  function getPrice () public returns (uint256){\r\n  //e/btc divided e/zapwe\r\n    emit GetPriceEvent();\r\n    return uint8(uint256(keccak256(block.timestamp, block.difficulty))%131) * 1000000000000000 + 100000000000000000 ; //need to change to match oracle\r\n  }\r\n\r\n//return the number of token a person has\r\n  function getAMTBalance (address _user) public view returns (uint256){\r\n    return FToken.balanceOf(_user) ;\r\n  }\r\n\r\n//\r\n  function getZapWeiSpent(address _user) public view returns (uint256) {\r\n    return FToken.zapWei_spent(_user);\r\n  }\r\n\r\n  function getZapBalance (address _user) public view returns (uint256) {\r\n    return zapToken.balanceOf(_user);\r\n  }\r\n\r\n// funtion oracle calls to update the price\r\n  function updatePrice (uint _price) public {\r\n\r\n    buyPrice = _price;\r\n    emit PriceUpdated(_price);\r\n  }\r\n\r\n//buying token\r\n  function buy (uint256 numberoftoken) public returns(uint256){\r\n\r\n    buyPrice = getPrice();//set it to the new price using oracle ;\r\n    uint256 zaprequire = numberoftoken.mul(buyPrice);\r\n  //check if msg.sender has enoughg\r\n    zapToken.approve(address(this),zaprequire); //address _spender, uint256 _valu\r\n\r\n\r\n    zapToken.transferFrom(msg.sender,address(this),zaprequire);  //transferFrom(address from, address to, uint256 value)\r\n    FToken.transfer(msg.sender,numberoftoken); // sends token to zap\r\n\r\n    return numberoftoken;\r\n  }\r\n\r\n//withrawn an amount of Token\r\n  function Withdrawn (uint256 withdraw_amount) public payable returns (uint8) {\r\n    if (FToken.balanceOf(msg.sender) >= withdraw_amount){ //check if msg.sender has enough token\r\n      buyPrice= getPrice();// set the buy price by usign oracle\r\n      uint256 previousprice= (withdraw_amount.mul(FToken.zapWei_spent(msg.sender))).div(FToken.balanceOf(msg.sender));\r\n      uint256 currentprice = withdraw_amount.mul(buyPrice);\r\n      //uint256 withdrawfee =  (currentprice.mul(15)).div(100); //15% fee\r\n        uint256 payment;\r\n      if (currentprice >= previousprice){ //user wins\r\n        uint256 difference = currentprice.sub(previousprice);//somehow send this to the main to tell them to pay the different\r\n\r\n        // call main withdraw function\r\n        // ask main for difference minus tax\r\n\r\n        payment = /*withdraw(difference)*/ buyPrice;\r\n\r\n\r\n      }\r\n      else {//main market win\r\n        uint256 gain= previousprice.sub(currentprice);\r\n\r\n        // call main withdraw function\r\n        // give main difference plus tax\r\n\r\n        payment = /*withdraw(difference)*/ buyPrice;\r\n      }\r\n\r\n      FToken.approve(address(this),withdraw_amount);\r\n      FToken.transferFrom(msg.sender, address(this), withdraw_amount);//(address from, address to, uint tokens)\r\n      zapToken.transfer(msg.sender, payment);\r\n\r\n      return 1;\r\n    }\r\n    else{\r\n      return 0;\r\n    }\r\n  }\r\n}\r\n",
  "sourcePath": "C:\\Users\\min\\auxmarket-\\contracts\\market\\Market.sol",
  "compiler": {
    "name": "solc",
    "version": "0.4.25+commit.59dbf8f1.Emscripten.clang"
  },
  "schemaVersion": "2.0.2",
  "updatedAt": "2019-07-15T20:23:02.017Z"
}