{
  "contractName": "TestClient",
  "abi": [
    {
      "inputs": [
        {
          "name": "tokenAddress",
          "type": "address"
        },
        {
          "name": "dispatchAddress",
          "type": "address"
        },
        {
          "name": "bondageAddress",
          "type": "address"
        },
        {
          "name": "registryAddress",
          "type": "address"
        }
      ],
      "payable": false,
      "stateMutability": "nonpayable",
      "type": "constructor"
    },
    {
      "anonymous": false,
      "inputs": [
        {
          "indexed": false,
          "name": "oracle",
          "type": "address"
        },
        {
          "indexed": false,
          "name": "query",
          "type": "string"
        },
        {
          "indexed": false,
          "name": "id",
          "type": "uint256"
        }
      ],
      "name": "MadeQuery",
      "type": "event"
    },
    {
      "anonymous": false,
      "inputs": [
        {
          "indexed": false,
          "name": "id",
          "type": "uint256"
        },
        {
          "indexed": false,
          "name": "response1",
          "type": "string"
        }
      ],
      "name": "Result1",
      "type": "event"
    },
    {
      "anonymous": false,
      "inputs": [
        {
          "indexed": false,
          "name": "id",
          "type": "uint256"
        },
        {
          "indexed": false,
          "name": "response1",
          "type": "bytes32"
        }
      ],
      "name": "Result1",
      "type": "event"
    },
    {
      "anonymous": false,
      "inputs": [
        {
          "indexed": false,
          "name": "id",
          "type": "uint256"
        },
        {
          "indexed": false,
          "name": "response1",
          "type": "string"
        },
        {
          "indexed": false,
          "name": "response2",
          "type": "string"
        }
      ],
      "name": "Result2",
      "type": "event"
    },
    {
      "constant": false,
      "inputs": [
        {
          "name": "id",
          "type": "uint256"
        },
        {
          "name": "response",
          "type": "bytes32[]"
        }
      ],
      "name": "callback",
      "outputs": [],
      "payable": false,
      "stateMutability": "nonpayable",
      "type": "function"
    },
    {
      "constant": false,
      "inputs": [
        {
          "name": "id",
          "type": "uint256"
        },
        {
          "name": "response1",
          "type": "string"
        }
      ],
      "name": "callback",
      "outputs": [],
      "payable": false,
      "stateMutability": "nonpayable",
      "type": "function"
    },
    {
      "constant": false,
      "inputs": [
        {
          "name": "id",
          "type": "uint256"
        },
        {
          "name": "response1",
          "type": "string"
        },
        {
          "name": "response2",
          "type": "string"
        }
      ],
      "name": "callback",
      "outputs": [],
      "payable": false,
      "stateMutability": "nonpayable",
      "type": "function"
    },
    {
      "constant": false,
      "inputs": [
        {
          "name": "oracleAddr",
          "type": "address"
        },
        {
          "name": "query",
          "type": "string"
        },
        {
          "name": "specifier",
          "type": "bytes32"
        },
        {
          "name": "params",
          "type": "bytes32[]"
        }
      ],
      "name": "testQuery",
      "outputs": [
        {
          "name": "",
          "type": "uint256"
        }
      ],
      "payable": false,
      "stateMutability": "nonpayable",
      "type": "function"
    },
    {
      "constant": false,
      "inputs": [
        {
          "name": "id",
          "type": "uint256"
        }
      ],
      "name": "cancelQuery",
      "outputs": [],
      "payable": false,
      "stateMutability": "nonpayable",
      "type": "function"
    }
  ],
  "bytecode": "0x608060405234801561001057600080fd5b5060405160808061081183398101806040528101908080519060200190929190805190602001909291908051906020019092919080519060200190929190505050836000806101000a81548173ffffffffffffffffffffffffffffffffffffffff021916908373ffffffffffffffffffffffffffffffffffffffff16021790555082600160006101000a81548173ffffffffffffffffffffffffffffffffffffffff021916908373ffffffffffffffffffffffffffffffffffffffff16021790555081600260006101000a81548173ffffffffffffffffffffffffffffffffffffffff021916908373ffffffffffffffffffffffffffffffffffffffff16021790555080600360006101000a81548173ffffffffffffffffffffffffffffffffffffffff021916908373ffffffffffffffffffffffffffffffffffffffff160217905550505050506106aa806101676000396000f30060806040526004361061006d576000357c0100000000000000000000000000000000000000000000000000000000900463ffffffff16806363b41fe9146100725780637237dc0b146100b7578063b69a375d146100e4578063d075f20f14610129578063f5795cd5146101be575b600080fd5b34801561007e57600080fd5b506100b56004803603810190808035906020019092919080359060200190820180359060200191909192939192939050505061021b565b005b3480156100c357600080fd5b506100e260048036038101908080359060200190929190505050610280565b005b3480156100f057600080fd5b506101276004803603810190808035906020019092919080359060200190820180359060200191909192939192939050505061032c565b005b34801561013557600080fd5b506101a8600480360381019080803573ffffffffffffffffffffffffffffffffffffffff169060200190929190803590602001908201803590602001919091929391929390803560001916906020019092919080359060200190820180359060200191909192939192939050505061040d565b6040518082815260200191505060405180910390f35b3480156101ca57600080fd5b50610219600480360381019080803590602001909291908035906020019082018035906020019190919293919293908035906020019082018035906020019190919293919293905050506105fc565b005b7f5eef7b8de70c44e7326d1d7baa155450f5b38fc8d41309c12b2fc81817606b818383836000818110151561024c57fe5b90506020020135600019166040518083815260200182600019166000191681526020019250505060405180910390a1505050565b600160009054906101000a900473ffffffffffffffffffffffffffffffffffffffff1673ffffffffffffffffffffffffffffffffffffffff16637237dc0b826040518263ffffffff167c010000000000000000000000000000000000000000000000000000000002815260040180828152602001915050600060405180830381600087803b15801561031157600080fd5b505af1158015610325573d6000803e3d6000fd5b5050505050565b606082828080601f01602080910402602001604051908101604052809392919081815260200183838082843782019150505050505090507f5d599109d8427016e4c93bff9b5f27e4cd24a83316a010d9ef7e15b7105d30e784826040518083815260200180602001828103825283818151815260200191508051906020019080838360005b838110156103cc5780820151818401526020810190506103b1565b50505050905090810190601f1680156103f95780820380516001836020036101000a031916815260200191505b50935050505060405180910390a150505050565b600080600160009054906101000a900473ffffffffffffffffffffffffffffffffffffffff1673ffffffffffffffffffffffffffffffffffffffff16637de7cc668989898989896040518763ffffffff167c0100000000000000000000000000000000000000000000000000000000028152600401808773ffffffffffffffffffffffffffffffffffffffff1673ffffffffffffffffffffffffffffffffffffffff16815260200180602001856000191660001916815260200180602001838103835288888281815260200192508082843782019150508381038252858582818152602001925060200280828437820191505098505050505050505050602060405180830381600087803b15801561052457600080fd5b505af1158015610538573d6000803e3d6000fd5b505050506040513d602081101561054e57600080fd5b810190808051906020019092919050505090507f50b551167947510d4c64636aac23b675db7849e6e7c824e4cf5830c3400e98a088888884604051808573ffffffffffffffffffffffffffffffffffffffff1673ffffffffffffffffffffffffffffffffffffffff16815260200180602001838152602001828103825285858281815260200192508082843782019150509550505050505060405180910390a1809150509695505050505050565b7f0c98c7262dfd083f4b7cd58bc095ed2ef00c31ad4e6859d16be4c2b0f7fadeae8585858585604051808681526020018060200180602001838103835287878281815260200192508082843782019150508381038252858582818152602001925080828437820191505097505050505050505060405180910390a150505050505600a165627a7a72305820f28b798a5faae2b6dcb18da372a210a6dc69f42921aac847bf484094a56463230029",
  "source": "pragma solidity ^0.4.24;\r\n\r\nimport \"./Client.sol\";\r\nimport \"../../platform/dispatch/DispatchInterface.sol\";\r\nimport \"../../platform/bondage/BondageInterface.sol\";\r\nimport \"../../platform/registry/RegistryInterface.sol\";\r\nimport \"./OnChainProvider.sol\";\r\nimport \"../ERC20.sol\";\r\n\r\ncontract TestProvider is OnChainProvider {\r\n    event RecievedQuery(string query, bytes32 endpoint, bytes32[] params);\r\n\r\n    event TEST(uint res, bytes32 b, string s);\r\n\r\n    bytes32 public spec1 = \"Hello?\";\r\n    bytes32 public spec2 = \"Reverse\";\r\n    bytes32 public spec3 = \"Add\";\r\n    bytes32 public spec4 = \"Double\";\r\n\r\n    bool AM_A_BAD_ORACLE;\r\n\r\n    /* Endpoints to Functions:\r\n    spec1: Hello? -> returns \"Hello World\"\r\n    spec2: Reverse -> returns the query string in reverse\r\n    spec3: Add -> Adds up the values in endpointParams\r\n    */\r\n\r\n    // curve 2x^2\r\n    int[] curve = [3, 0, 0, 2, 1000000000];\r\n\r\n    RegistryInterface registry;\r\n\r\n    // middleware function for handling queries\r\n    function receive(uint256 id, string userQuery, bytes32 endpoint, bytes32[] endpointParams, bool onchainSubscriber) external {\r\n        emit RecievedQuery(userQuery, endpoint, endpointParams);\r\n        if(AM_A_BAD_ORACLE) return;\r\n        bytes32 _endpoint = endpoint;\r\n        if(onchainSubscriber) {\r\n            bytes32 hash = keccak256(abi.encodePacked(_endpoint));\r\n\r\n            if(hash == keccak256(abi.encodePacked(spec1))){\r\n                endpoint1(id, userQuery, endpointParams);\r\n            } else if (hash == keccak256(abi.encodePacked(spec2))){\r\n                endpoint2(id, userQuery, endpointParams);\r\n            } else if (hash == keccak256(abi.encodePacked(spec3))){\r\n                endpoint3(id, userQuery, endpointParams);\r\n            } else if (hash == keccak256(abi.encodePacked(spec4))){\r\n                endpoint4(id, userQuery, endpointParams);\r\n            } else {\r\n                revert(\"Invalid endpoint\");\r\n            }\r\n        } // else: Do nothing (onchain only)\r\n    }\r\n\r\n    constructor(address registryAddress, bool isBad) public{\r\n        registry = RegistryInterface(registryAddress);\r\n        AM_A_BAD_ORACLE = isBad;\r\n\r\n        // initialize in registry\r\n        bytes32 title = \"TestContract\";\r\n\r\n        bytes32[] memory params = new bytes32[](2);\r\n        params[0] = \"p1\";\r\n        params[1] = \"p2\";\r\n\r\n        registry.initiateProvider(12345, title);\r\n\r\n        registry.initiateProviderCurve(spec1, curve, address(0));\r\n        registry.initiateProviderCurve(spec2, curve, address(0));\r\n        registry.initiateProviderCurve(spec3, curve, address(0));\r\n        registry.initiateProviderCurve(spec4, curve, address(0));\r\n    }\r\n\r\n\r\n    // return Hello World to query-maker\r\n    function endpoint1(uint256 id, string /* userQuery */, bytes32[] /* endpointParams */) internal{\r\n        DispatchInterface(msg.sender).respond1(id, \"Hello World\");\r\n    }\r\n\r\n    // return the hash of the query\r\n    function endpoint2(uint256 id, string userQuery, bytes32[] /* endpointParams */) internal{\r\n        // endpointParams\r\n        string memory reversed = reverseString(userQuery);\r\n        DispatchInterface(msg.sender).respond1(id, reversed);\r\n    }\r\n\r\n     // returns the sum of all values in endpointParams\r\n    function endpoint3(uint256 id, string /* userQuery */, bytes32[] endpointParams) internal{\r\n        uint sum = 0;\r\n        for(uint i = 0; i<endpointParams.length; i++){\r\n            uint value = uint(endpointParams[i]);\r\n            sum += value;\r\n        }\r\n\r\n        bytes32[] memory res = new bytes32[](1);\r\n        res[0] = bytes32(sum);\r\n\r\n        DispatchInterface(msg.sender).respondBytes32Array(id, res);\r\n    }\r\n\r\n    // returns the sum of all values in endpointParams\r\n    function endpoint4(uint256 id, string /* userQuery */, bytes32[] /* endpointParams */) internal{\r\n        DispatchInterface(msg.sender).respond2(id, \"Hello\", \"World\");\r\n    }\r\n\r\n    function reverseString(string _base) internal pure returns (string){\r\n        bytes memory _baseBytes = bytes(_base);\r\n        string memory _tempValue = new string(_baseBytes.length);\r\n        bytes memory _newValue = bytes(_tempValue);\r\n\r\n        for(uint i=0;i<_baseBytes.length;i++){\r\n            _newValue[ _baseBytes.length - i - 1] = _baseBytes[i];\r\n        }\r\n\r\n        return string(_newValue);\r\n    }\r\n\r\n\r\n    function bytes32ToString (bytes32 data) internal pure returns (string) {\r\n        bytes memory bytesString = new bytes(32);\r\n        for (uint j=0; j<32; j++) {\r\n            byte char = byte(bytes32(uint(data) * 2 ** (8 * j)));\r\n            if (char != 0) {\r\n                bytesString[j] = char;\r\n            }\r\n        }\r\n        return string(bytesString);\r\n    }\r\n\r\n}\r\n\r\n/* Test Subscriber Client */\r\ncontract TestClient is Client1, Client2{\r\n\r\n    event MadeQuery(address oracle, string query, uint256 id);\r\n    event Result1(uint256 id, string response1);\r\n    event Result1(uint256 id, bytes32 response1);\r\n    event Result2(uint256 id, string response1, string response2);\r\n\r\n    ERC20 token;\r\n    DispatchInterface dispatch;\r\n    BondageInterface bondage;\r\n    RegistryInterface registry;\r\n\r\n    constructor(address tokenAddress, address dispatchAddress, address bondageAddress, address registryAddress) public {\r\n        token = ERC20(tokenAddress);\r\n        dispatch = DispatchInterface(dispatchAddress);\r\n        bondage = BondageInterface(bondageAddress);\r\n        registry = RegistryInterface(registryAddress);\r\n    }\r\n\r\n    /*\r\n    Implements overloaded callback functions for Client1\r\n    */\r\n    function callback(uint256 id, string response1) external {\r\n        string memory _response1 = response1;\r\n        emit Result1(id, _response1);\r\n        // do something with result\r\n    }\r\n\r\n    function callback(uint256 id, bytes32[] response) external {\r\n        emit Result1(id, response[0]);\r\n        // do something with result\r\n    }\r\n\r\n    // Client2 callback\r\n    function callback(uint256 id, string response1, string response2) external {\r\n        emit Result2(id, response1, response2);\r\n        // do something with result\r\n    }\r\n\r\n    function testQuery(address oracleAddr, string query, bytes32 specifier, bytes32[] params) external returns (uint256) {\r\n        uint256 id = dispatch.query(oracleAddr, query, specifier, params);\r\n        emit MadeQuery(oracleAddr, query, id);\r\n        return id;\r\n    }\r\n\r\n    function stringToBytes32(string memory source) internal pure returns (bytes32 result) {\r\n        bytes memory tempEmptyStringTest = bytes(source);\r\n\r\n        if (tempEmptyStringTest.length == 0) {\r\n            return 0x0;\r\n        }\r\n        assembly {\r\n            result := mload(add(source, 32))\r\n        }\r\n    }\r\n\r\n    // attempts to cancel an existing query\r\n    function cancelQuery(uint256 id) external {\r\n        dispatch.cancelQuery(id);\r\n    }\r\n\r\n}\r\n",
  "sourcePath": "C:\\Users\\min\\auxmarket-\\contracts\\lib\\platform\\TestContracts.sol",
  "compiler": {
    "name": "solc",
    "version": "0.4.25+commit.59dbf8f1.Emscripten.clang"
  },
  "schemaVersion": "2.0.2",
  "updatedAt": "2019-07-10T17:29:18.353Z"
}