{
  "contractName": "TokenDotFactory",
  "abi": [
    {
      "constant": true,
      "inputs": [
        {
          "name": "",
          "type": "bytes32"
        }
      ],
      "name": "curves",
      "outputs": [
        {
          "name": "",
          "type": "address"
        }
      ],
      "payable": false,
      "stateMutability": "view",
      "type": "function"
    },
    {
      "constant": true,
      "inputs": [],
      "name": "owner",
      "outputs": [
        {
          "name": "",
          "type": "address"
        }
      ],
      "payable": false,
      "stateMutability": "view",
      "type": "function"
    },
    {
      "constant": true,
      "inputs": [],
      "name": "coord",
      "outputs": [
        {
          "name": "",
          "type": "address"
        }
      ],
      "payable": false,
      "stateMutability": "view",
      "type": "function"
    },
    {
      "constant": true,
      "inputs": [],
      "name": "tokenFactory",
      "outputs": [
        {
          "name": "",
          "type": "address"
        }
      ],
      "payable": false,
      "stateMutability": "view",
      "type": "function"
    },
    {
      "constant": false,
      "inputs": [
        {
          "name": "newOwner",
          "type": "address"
        }
      ],
      "name": "transferOwnership",
      "outputs": [],
      "payable": false,
      "stateMutability": "nonpayable",
      "type": "function"
    },
    {
      "constant": true,
      "inputs": [],
      "name": "reserveToken",
      "outputs": [
        {
          "name": "",
          "type": "address"
        }
      ],
      "payable": false,
      "stateMutability": "view",
      "type": "function"
    },
    {
      "inputs": [
        {
          "name": "coordinator",
          "type": "address"
        },
        {
          "name": "factory",
          "type": "address"
        },
        {
          "name": "providerPubKey",
          "type": "uint256"
        },
        {
          "name": "providerTitle",
          "type": "bytes32"
        }
      ],
      "payable": false,
      "stateMutability": "nonpayable",
      "type": "constructor"
    },
    {
      "anonymous": false,
      "inputs": [
        {
          "indexed": false,
          "name": "tokenAddress",
          "type": "address"
        }
      ],
      "name": "DotTokenCreated",
      "type": "event"
    },
    {
      "anonymous": false,
      "inputs": [
        {
          "indexed": true,
          "name": "specifier",
          "type": "bytes32"
        },
        {
          "indexed": true,
          "name": "numDots",
          "type": "uint256"
        },
        {
          "indexed": true,
          "name": "sender",
          "type": "address"
        }
      ],
      "name": "Bonded",
      "type": "event"
    },
    {
      "anonymous": false,
      "inputs": [
        {
          "indexed": true,
          "name": "specifier",
          "type": "bytes32"
        },
        {
          "indexed": true,
          "name": "numDots",
          "type": "uint256"
        },
        {
          "indexed": true,
          "name": "sender",
          "type": "address"
        }
      ],
      "name": "Unbonded",
      "type": "event"
    },
    {
      "anonymous": false,
      "inputs": [
        {
          "indexed": true,
          "name": "previousOwner",
          "type": "address"
        },
        {
          "indexed": true,
          "name": "newOwner",
          "type": "address"
        }
      ],
      "name": "OwnershipTransferred",
      "type": "event"
    },
    {
      "constant": false,
      "inputs": [
        {
          "name": "specifier",
          "type": "bytes32"
        },
        {
          "name": "symbol",
          "type": "bytes32"
        },
        {
          "name": "curve",
          "type": "int256[]"
        }
      ],
      "name": "initializeCurve",
      "outputs": [
        {
          "name": "",
          "type": "address"
        }
      ],
      "payable": false,
      "stateMutability": "nonpayable",
      "type": "function"
    },
    {
      "constant": false,
      "inputs": [
        {
          "name": "specifier",
          "type": "bytes32"
        },
        {
          "name": "numDots",
          "type": "uint256"
        }
      ],
      "name": "bond",
      "outputs": [],
      "payable": false,
      "stateMutability": "nonpayable",
      "type": "function"
    },
    {
      "constant": false,
      "inputs": [
        {
          "name": "specifier",
          "type": "bytes32"
        },
        {
          "name": "numDots",
          "type": "uint256"
        }
      ],
      "name": "unbond",
      "outputs": [],
      "payable": false,
      "stateMutability": "nonpayable",
      "type": "function"
    },
    {
      "constant": false,
      "inputs": [
        {
          "name": "name",
          "type": "string"
        },
        {
          "name": "symbol",
          "type": "string"
        }
      ],
      "name": "newToken",
      "outputs": [
        {
          "name": "tokenAddress",
          "type": "address"
        }
      ],
      "payable": false,
      "stateMutability": "nonpayable",
      "type": "function"
    },
    {
      "constant": true,
      "inputs": [
        {
          "name": "specifier",
          "type": "bytes32"
        }
      ],
      "name": "getTokenAddress",
      "outputs": [
        {
          "name": "",
          "type": "address"
        }
      ],
      "payable": false,
      "stateMutability": "view",
      "type": "function"
    },
    {
      "constant": true,
      "inputs": [
        {
          "name": "x",
          "type": "address"
        }
      ],
      "name": "toBytes",
      "outputs": [
        {
          "name": "b",
          "type": "bytes"
        }
      ],
      "payable": false,
      "stateMutability": "pure",
      "type": "function"
    },
    {
      "constant": true,
      "inputs": [
        {
          "name": "x",
          "type": "bytes32"
        }
      ],
      "name": "bytes32ToString",
      "outputs": [
        {
          "name": "",
          "type": "string"
        }
      ],
      "payable": false,
      "stateMutability": "pure",
      "type": "function"
    },
    {
      "constant": true,
      "inputs": [
        {
          "name": "b",
          "type": "bytes"
        }
      ],
      "name": "bytesToAddr",
      "outputs": [
        {
          "name": "",
          "type": "address"
        }
      ],
      "payable": false,
      "stateMutability": "pure",
      "type": "function"
    }
  ],
  "bytecode": "0x60806040523480156200001157600080fd5b5060405160808062002f30833981018060405281019080805190602001909291908051906020019092919080519060200190929190805190602001909291905050506000336000806101000a81548173ffffffffffffffffffffffffffffffffffffffff021916908373ffffffffffffffffffffffffffffffffffffffff16021790555084600360006101000a81548173ffffffffffffffffffffffffffffffffffffffff021916908373ffffffffffffffffffffffffffffffffffffffff160217905550600360009054906101000a900473ffffffffffffffffffffffffffffffffffffffff1673ffffffffffffffffffffffffffffffffffffffff1663358177736040518163ffffffff167c01000000000000000000000000000000000000000000000000000000000281526004018080602001828103825260098152602001807f5a41505f544f4b454e0000000000000000000000000000000000000000000000815250602001915050602060405180830381600087803b1580156200019957600080fd5b505af1158015620001ae573d6000803e3d6000fd5b505050506040513d6020811015620001c557600080fd5b8101908080519060200190929190505050600260006101000a81548173ffffffffffffffffffffffffffffffffffffffff021916908373ffffffffffffffffffffffffffffffffffffffff160217905550600260009054906101000a900473ffffffffffffffffffffffffffffffffffffffff1673ffffffffffffffffffffffffffffffffffffffff1663095ea7b3600360009054906101000a900473ffffffffffffffffffffffffffffffffffffffff1673ffffffffffffffffffffffffffffffffffffffff1663358177736040518163ffffffff167c01000000000000000000000000000000000000000000000000000000000281526004018080602001828103825260078152602001807f424f4e4441474500000000000000000000000000000000000000000000000000815250602001915050602060405180830381600087803b1580156200031757600080fd5b505af11580156200032c573d6000803e3d6000fd5b505050506040513d60208110156200034357600080fd5b81019080805190602001909291905050506000196040518363ffffffff167c0100000000000000000000000000000000000000000000000000000000028152600401808373ffffffffffffffffffffffffffffffffffffffff1673ffffffffffffffffffffffffffffffffffffffff16815260200182815260200192505050602060405180830381600087803b158015620003dd57600080fd5b505af1158015620003f2573d6000803e3d6000fd5b505050506040513d60208110156200040957600080fd5b81019080805190602001909291905050505083600460006101000a81548173ffffffffffffffffffffffffffffffffffffffff021916908373ffffffffffffffffffffffffffffffffffffffff160217905550600360009054906101000a900473ffffffffffffffffffffffffffffffffffffffff1673ffffffffffffffffffffffffffffffffffffffff1663358177736040518163ffffffff167c01000000000000000000000000000000000000000000000000000000000281526004018080602001828103825260088152602001807f5245474953545259000000000000000000000000000000000000000000000000815250602001915050602060405180830381600087803b1580156200051f57600080fd5b505af115801562000534573d6000803e3d6000fd5b505050506040513d60208110156200054b57600080fd5b810190808051906020019092919050505090508073ffffffffffffffffffffffffffffffffffffffff1663af87c83384846040518363ffffffff167c010000000000000000000000000000000000000000000000000000000002815260040180838152602001826000191660001916815260200192505050602060405180830381600087803b158015620005de57600080fd5b505af1158015620005f3573d6000803e3d6000fd5b505050506040513d60208110156200060a57600080fd5b81019080805190602001909291905050505050505050506128ff80620006316000396000f3006080604052600436106100d0576000357c0100000000000000000000000000000000000000000000000000000000900463ffffffff16806306af0650146100d55780634629ffea146101975780634d8de4fc1461028657806351f93215146102c1578063593b79fe146102fc5780635ef6228c146103b857806366903e80146104615780638da5cb5b146104d25780639201de55146105295780639495c25a146105d3578063b12e44101461062a578063e77772fe1461069b578063f2fde38b146106f2578063f4325d6714610735575b600080fd5b3480156100e157600080fd5b50610155600480360381019080803560001916906020019092919080356000191690602001909291908035906020019082018035906020019080806020026020016040519081016040528093929190818152602001838360200280828437820191505050505050919291929050505061078c565b604051808273ffffffffffffffffffffffffffffffffffffffff1673ffffffffffffffffffffffffffffffffffffffff16815260200191505060405180910390f35b3480156101a357600080fd5b50610244600480360381019080803590602001908201803590602001908080601f0160208091040260200160405190810160405280939291908181526020018383808284378201915050505050509192919290803590602001908201803590602001908080601f0160208091040260200160405190810160405280939291908181526020018383808284378201915050505050509192919290505050610e67565b604051808273ffffffffffffffffffffffffffffffffffffffff1673ffffffffffffffffffffffffffffffffffffffff16815260200191505060405180910390f35b34801561029257600080fd5b506102bf600480360381019080803560001916906020019092919080359060200190929190505050611017565b005b3480156102cd57600080fd5b506102fa600480360381019080803560001916906020019092919080359060200190929190505050611890565b005b34801561030857600080fd5b5061033d600480360381019080803573ffffffffffffffffffffffffffffffffffffffff169060200190929190505050612245565b6040518080602001828103825283818151815260200191508051906020019080838360005b8381101561037d578082015181840152602081019050610362565b50505050905090810190601f1680156103aa5780820380516001836020036101000a031916815260200191505b509250505060405180910390f35b3480156103c457600080fd5b5061041f600480360381019080803590602001908201803590602001908080601f016020809104026020016040519081016040528093929190818152602001838380828437820191505050505050919291929050505061232c565b604051808273ffffffffffffffffffffffffffffffffffffffff1673ffffffffffffffffffffffffffffffffffffffff16815260200191505060405180910390f35b34801561046d57600080fd5b5061049060048036038101908080356000191690602001909291905050506123f9565b604051808273ffffffffffffffffffffffffffffffffffffffff1673ffffffffffffffffffffffffffffffffffffffff16815260200191505060405180910390f35b3480156104de57600080fd5b506104e761242c565b604051808273ffffffffffffffffffffffffffffffffffffffff1673ffffffffffffffffffffffffffffffffffffffff16815260200191505060405180910390f35b34801561053557600080fd5b506105586004803603810190808035600019169060200190929190505050612451565b6040518080602001828103825283818151815260200191508051906020019080838360005b8381101561059857808201518184015260208101905061057d565b50505050905090810190601f1680156105c55780820380516001836020036101000a031916815260200191505b509250505060405180910390f35b3480156105df57600080fd5b506105e86124be565b604051808273ffffffffffffffffffffffffffffffffffffffff1673ffffffffffffffffffffffffffffffffffffffff16815260200191505060405180910390f35b34801561063657600080fd5b5061065960048036038101908080356000191690602001909291905050506124e4565b604051808273ffffffffffffffffffffffffffffffffffffffff1673ffffffffffffffffffffffffffffffffffffffff16815260200191505060405180910390f35b3480156106a757600080fd5b506106b0612732565b604051808273ffffffffffffffffffffffffffffffffffffffff1673ffffffffffffffffffffffffffffffffffffffff16815260200191505060405180910390f35b3480156106fe57600080fd5b50610733600480360381019080803573ffffffffffffffffffffffffffffffffffffffff169060200190929190505050612758565b005b34801561074157600080fd5b5061074a6128ad565b604051808273ffffffffffffffffffffffffffffffffffffffff1673ffffffffffffffffffffffffffffffffffffffff16815260200191505060405180910390f35b600080600060066000876000191660001916815260200190815260200160002060009054906101000a900473ffffffffffffffffffffffffffffffffffffffff1673ffffffffffffffffffffffffffffffffffffffff16141515610858576040517f08c379a000000000000000000000000000000000000000000000000000000000815260040180806020018281038252601e8152602001807f43757276652073706563696669657220616c726561647920657869737473000081525060200191505060405180910390fd5b600360009054906101000a900473ffffffffffffffffffffffffffffffffffffffff1673ffffffffffffffffffffffffffffffffffffffff1663358177736040518163ffffffff167c01000000000000000000000000000000000000000000000000000000000281526004018080602001828103825260088152602001807f5245474953545259000000000000000000000000000000000000000000000000815250602001915050602060405180830381600087803b15801561091a57600080fd5b505af115801561092e573d6000803e3d6000fd5b505050506040513d602081101561094457600080fd5b810190808051906020019092919050505090508073ffffffffffffffffffffffffffffffffffffffff1663186b79c9306040518263ffffffff167c0100000000000000000000000000000000000000000000000000000000028152600401808273ffffffffffffffffffffffffffffffffffffffff1673ffffffffffffffffffffffffffffffffffffffff168152602001915050602060405180830381600087803b1580156109f257600080fd5b505af1158015610a06573d6000803e3d6000fd5b505050506040513d6020811015610a1c57600080fd5b81019080805190602001909291905050501515610aa1576040517f08c379a00000000000000000000000000000000000000000000000000000000081526004018080602001828103825260188152602001807f50726f7669646572206e6f7420696e746969616c697a6564000000000000000081525060200191505060405180910390fd5b8073ffffffffffffffffffffffffffffffffffffffff1663238b3aed8685306040518463ffffffff167c0100000000000000000000000000000000000000000000000000000000028152600401808460001916600019168152602001806020018373ffffffffffffffffffffffffffffffffffffffff1673ffffffffffffffffffffffffffffffffffffffff168152602001828103825284818151815260200191508051906020019060200280838360005b83811015610b6e578082015181840152602081019050610b53565b50505050905001945050505050602060405180830381600087803b158015610b9557600080fd5b505af1158015610ba9573d6000803e3d6000fd5b505050506040513d6020811015610bbf57600080fd5b810190808051906020019092919050505050610beb610bdd86612451565b610be686612451565b610e67565b60066000876000191660001916815260200190815260200160002060006101000a81548173ffffffffffffffffffffffffffffffffffffffff021916908373ffffffffffffffffffffffffffffffffffffffff1602179055508073ffffffffffffffffffffffffffffffffffffffff16635750644a86610ca5600660008a6000191660001916815260200190815260200160002060009054906101000a900473ffffffffffffffffffffffffffffffffffffffff16612245565b6040518363ffffffff167c010000000000000000000000000000000000000000000000000000000002815260040180836000191660001916815260200180602001828103825283818151815260200191508051906020019080838360005b83811015610d1e578082015181840152602081019050610d03565b50505050905090810190601f168015610d4b5780820380516001836020036101000a031916815260200191505b509350505050600060405180830381600087803b158015610d6b57600080fd5b505af1158015610d7f573d6000803e3d6000fd5b505050507f6c98c7e1fb155d4c2c1f008682fd94fb74d1c9667207aaaa9ab65cee2b38ea7a60066000876000191660001916815260200190815260200160002060009054906101000a900473ffffffffffffffffffffffffffffffffffffffff16604051808273ffffffffffffffffffffffffffffffffffffffff1673ffffffffffffffffffffffffffffffffffffffff16815260200191505060405180910390a160066000866000191660001916815260200190815260200160002060009054906101000a900473ffffffffffffffffffffffffffffffffffffffff169150509392505050565b600080600460009054906101000a900473ffffffffffffffffffffffffffffffffffffffff1673ffffffffffffffffffffffffffffffffffffffff1663198e2b8a85856040518363ffffffff167c0100000000000000000000000000000000000000000000000000000000028152600401808060200180602001838103835285818151815260200191508051906020019080838360005b83811015610f19578082015181840152602081019050610efe565b50505050905090810190601f168015610f465780820380516001836020036101000a031916815260200191505b50838103825284818151815260200191508051906020019080838360005b83811015610f7f578082015181840152602081019050610f64565b50505050905090810190601f168015610fac5780820380516001836020036101000a031916815260200191505b50945050505050602060405180830381600087803b158015610fcd57600080fd5b505af1158015610fe1573d6000803e3d6000fd5b505050506040513d6020811015610ff757600080fd5b810190808051906020019092919050505090508091508191505092915050565b6000806000600360009054906101000a900473ffffffffffffffffffffffffffffffffffffffff1673ffffffffffffffffffffffffffffffffffffffff1663358177736040518163ffffffff167c01000000000000000000000000000000000000000000000000000000000281526004018080602001828103825260078152602001807f424f4e4441474500000000000000000000000000000000000000000000000000815250602001915050602060405180830381600087803b1580156110de57600080fd5b505af11580156110f2573d6000803e3d6000fd5b505050506040513d602081101561110857600080fd5b8101908080519060200190929190505050600560006101000a81548173ffffffffffffffffffffffffffffffffffffffff021916908373ffffffffffffffffffffffffffffffffffffffff160217905550600560009054906101000a900473ffffffffffffffffffffffffffffffffffffffff1673ffffffffffffffffffffffffffffffffffffffff16631d7b5e2230876040518363ffffffff167c0100000000000000000000000000000000000000000000000000000000028152600401808373ffffffffffffffffffffffffffffffffffffffff1673ffffffffffffffffffffffffffffffffffffffff168152602001826000191660001916815260200192505050602060405180830381600087803b15801561122657600080fd5b505af115801561123a573d6000803e3d6000fd5b505050506040513d602081101561125057600080fd5b81019080805190602001909291905050509250600360009054906101000a900473ffffffffffffffffffffffffffffffffffffffff1673ffffffffffffffffffffffffffffffffffffffff1663358177736040518163ffffffff167c010000000000000000000000000000000000000000000000000000000002815260040180806020018281038252600c8152602001807f43555252454e545f434f53540000000000000000000000000000000000000000815250602001915050602060405180830381600087803b15801561132557600080fd5b505af1158015611339573d6000803e3d6000fd5b505050506040513d602081101561134f57600080fd5b8101908080519060200190929190505050600160006101000a81548173ffffffffffffffffffffffffffffffffffffffff021916908373ffffffffffffffffffffffffffffffffffffffff160217905550600160009054906101000a900473ffffffffffffffffffffffffffffffffffffffff1673ffffffffffffffffffffffffffffffffffffffff1663197d66d53087876001880103600189036040518563ffffffff167c0100000000000000000000000000000000000000000000000000000000028152600401808573ffffffffffffffffffffffffffffffffffffffff1673ffffffffffffffffffffffffffffffffffffffff1681526020018460001916600019168152602001838152602001828152602001945050505050602060405180830381600087803b15801561148557600080fd5b505af1158015611499573d6000803e3d6000fd5b505050506040513d60208110156114af57600080fd5b81019080805190602001909291905050509150600560009054906101000a900473ffffffffffffffffffffffffffffffffffffffff1673ffffffffffffffffffffffffffffffffffffffff1663a06fe7753087876040518463ffffffff167c0100000000000000000000000000000000000000000000000000000000028152600401808473ffffffffffffffffffffffffffffffffffffffff1673ffffffffffffffffffffffffffffffffffffffff16815260200183600019166000191681526020018281526020019350505050602060405180830381600087803b15801561159757600080fd5b505af11580156115ab573d6000803e3d6000fd5b505050506040513d60208110156115c157600080fd5b81019080805190602001909291905050505060066000866000191660001916815260200190815260200160002060009054906101000a900473ffffffffffffffffffffffffffffffffffffffff1690508073ffffffffffffffffffffffffffffffffffffffff166379cc679033866040518363ffffffff167c0100000000000000000000000000000000000000000000000000000000028152600401808373ffffffffffffffffffffffffffffffffffffffff1673ffffffffffffffffffffffffffffffffffffffff16815260200182815260200192505050600060405180830381600087803b1580156116b457600080fd5b505af11580156116c8573d6000803e3d6000fd5b50505050600260009054906101000a900473ffffffffffffffffffffffffffffffffffffffff1673ffffffffffffffffffffffffffffffffffffffff1663a9059cbb33846040518363ffffffff167c0100000000000000000000000000000000000000000000000000000000028152600401808373ffffffffffffffffffffffffffffffffffffffff1673ffffffffffffffffffffffffffffffffffffffff16815260200182815260200192505050602060405180830381600087803b15801561179157600080fd5b505af11580156117a5573d6000803e3d6000fd5b505050506040513d60208110156117bb57600080fd5b81019080805190602001909291905050501515611840576040517f08c379a00000000000000000000000000000000000000000000000000000000081526004018080602001828103825260168152602001807f4572726f723a205472616e73666572206661696c65640000000000000000000081525060200191505060405180910390fd5b3373ffffffffffffffffffffffffffffffffffffffff168486600019167f11a44cb23d594705c95aa35553bec5a6572ef7d08fbd468f29c5392ee1d214e360405160405180910390a45050505050565b6000806000600360009054906101000a900473ffffffffffffffffffffffffffffffffffffffff1673ffffffffffffffffffffffffffffffffffffffff1663358177736040518163ffffffff167c01000000000000000000000000000000000000000000000000000000000281526004018080602001828103825260078152602001807f424f4e4441474500000000000000000000000000000000000000000000000000815250602001915050602060405180830381600087803b15801561195757600080fd5b505af115801561196b573d6000803e3d6000fd5b505050506040513d602081101561198157600080fd5b8101908080519060200190929190505050600560006101000a81548173ffffffffffffffffffffffffffffffffffffffff021916908373ffffffffffffffffffffffffffffffffffffffff160217905550600560009054906101000a900473ffffffffffffffffffffffffffffffffffffffff1673ffffffffffffffffffffffffffffffffffffffff16631d7b5e2230876040518363ffffffff167c0100000000000000000000000000000000000000000000000000000000028152600401808373ffffffffffffffffffffffffffffffffffffffff1673ffffffffffffffffffffffffffffffffffffffff168152602001826000191660001916815260200192505050602060405180830381600087803b158015611a9f57600080fd5b505af1158015611ab3573d6000803e3d6000fd5b505050506040513d6020811015611ac957600080fd5b81019080805190602001909291905050509250600360009054906101000a900473ffffffffffffffffffffffffffffffffffffffff1673ffffffffffffffffffffffffffffffffffffffff1663358177736040518163ffffffff167c010000000000000000000000000000000000000000000000000000000002815260040180806020018281038252600c8152602001807f43555252454e545f434f53540000000000000000000000000000000000000000815250602001915050602060405180830381600087803b158015611b9e57600080fd5b505af1158015611bb2573d6000803e3d6000fd5b505050506040513d6020811015611bc857600080fd5b810190808051906020019092919050505091508173ffffffffffffffffffffffffffffffffffffffff1663197d66d5308760018701600189036040518563ffffffff167c0100000000000000000000000000000000000000000000000000000000028152600401808573ffffffffffffffffffffffffffffffffffffffff1673ffffffffffffffffffffffffffffffffffffffff1681526020018460001916600019168152602001838152602001828152602001945050505050602060405180830381600087803b158015611c9c57600080fd5b505af1158015611cb0573d6000803e3d6000fd5b505050506040513d6020811015611cc657600080fd5b81019080805190602001909291905050509050600260009054906101000a900473ffffffffffffffffffffffffffffffffffffffff1673ffffffffffffffffffffffffffffffffffffffff166323b872dd3330846040518463ffffffff167c0100000000000000000000000000000000000000000000000000000000028152600401808473ffffffffffffffffffffffffffffffffffffffff1673ffffffffffffffffffffffffffffffffffffffff1681526020018373ffffffffffffffffffffffffffffffffffffffff1673ffffffffffffffffffffffffffffffffffffffff1681526020018281526020019350505050602060405180830381600087803b158015611dd257600080fd5b505af1158015611de6573d6000803e3d6000fd5b505050506040513d6020811015611dfc57600080fd5b81019080805190602001909291905050501515611ea7576040517f08c379a00000000000000000000000000000000000000000000000000000000081526004018080602001828103825260398152602001807f696e73756666696369656e7420616363657074656420746f6b656e206e756d4481526020017f6f747320617070726f76656420666f72207472616e736665720000000000000081525060400191505060405180910390fd5b600260009054906101000a900473ffffffffffffffffffffffffffffffffffffffff1673ffffffffffffffffffffffffffffffffffffffff1663095ea7b3600560009054906101000a900473ffffffffffffffffffffffffffffffffffffffff16836040518363ffffffff167c0100000000000000000000000000000000000000000000000000000000028152600401808373ffffffffffffffffffffffffffffffffffffffff1673ffffffffffffffffffffffffffffffffffffffff16815260200182815260200192505050602060405180830381600087803b158015611f8e57600080fd5b505af1158015611fa2573d6000803e3d6000fd5b505050506040513d6020811015611fb857600080fd5b810190808051906020019092919050505050600560009054906101000a900473ffffffffffffffffffffffffffffffffffffffff1673ffffffffffffffffffffffffffffffffffffffff166399275cc73087876040518463ffffffff167c0100000000000000000000000000000000000000000000000000000000028152600401808473ffffffffffffffffffffffffffffffffffffffff1673ffffffffffffffffffffffffffffffffffffffff16815260200183600019166000191681526020018281526020019350505050602060405180830381600087803b15801561209f57600080fd5b505af11580156120b3573d6000803e3d6000fd5b505050506040513d60208110156120c957600080fd5b81019080805190602001909291905050505060066000866000191660001916815260200190815260200160002060009054906101000a900473ffffffffffffffffffffffffffffffffffffffff1673ffffffffffffffffffffffffffffffffffffffff166340c10f1933866040518363ffffffff167c0100000000000000000000000000000000000000000000000000000000028152600401808373ffffffffffffffffffffffffffffffffffffffff1673ffffffffffffffffffffffffffffffffffffffff16815260200182815260200192505050602060405180830381600087803b1580156121b957600080fd5b505af11580156121cd573d6000803e3d6000fd5b505050506040513d60208110156121e357600080fd5b8101908080519060200190929190505050503373ffffffffffffffffffffffffffffffffffffffff168486600019167f9738427d867a8b08540015120042d5a5ab1244297c70f40cb29fa7ba3458715360405160405180910390a45050505050565b6060600060146040519080825280601f01601f19166020018201604052801561227d5781602001602082028038833980820191505090505b509150600090505b6014811015612326578060130360080260020a8373ffffffffffffffffffffffffffffffffffffffff168115156122b857fe5b047f01000000000000000000000000000000000000000000000000000000000000000282828151811015156122e957fe5b9060200101907effffffffffffffffffffffffffffffffffffffffffffffffffffffffffffff1916908160001a9053508080600101915050612285565b50919050565b6000806000806000809350600186510392505b60006001840111156123ed57858381518110151561235957fe5b9060200101517f010000000000000000000000000000000000000000000000000000000000000090047f0100000000000000000000000000000000000000000000000000000000000000027f0100000000000000000000000000000000000000000000000000000000000000900491506002600184885103030260100a82029050808401935082806001900393505061233f565b83945050505050919050565b60066020528060005260406000206000915054906101000a900473ffffffffffffffffffffffffffffffffffffffff1681565b6000809054906101000a900473ffffffffffffffffffffffffffffffffffffffff1681565b60608060206040519080825280601f01601f1916602001820160405280156124885781602001602082028038833980820191505090505b50905082604051602001808260001916600019168152602001915050604051602081830303815290604052905080915050919050565b600360009054906101000a900473ffffffffffffffffffffffffffffffffffffffff1681565b600080600360009054906101000a900473ffffffffffffffffffffffffffffffffffffffff1673ffffffffffffffffffffffffffffffffffffffff1663358177736040518163ffffffff167c01000000000000000000000000000000000000000000000000000000000281526004018080602001828103825260088152602001807f5245474953545259000000000000000000000000000000000000000000000000815250602001915050602060405180830381600087803b1580156125a957600080fd5b505af11580156125bd573d6000803e3d6000fd5b505050506040513d60208110156125d357600080fd5b8101908080519060200190929190505050905061272a8173ffffffffffffffffffffffffffffffffffffffff16634d9bcac430866040518363ffffffff167c0100000000000000000000000000000000000000000000000000000000028152600401808373ffffffffffffffffffffffffffffffffffffffff1673ffffffffffffffffffffffffffffffffffffffff168152602001826000191660001916815260200192505050600060405180830381600087803b15801561269457600080fd5b505af11580156126a8573d6000803e3d6000fd5b505050506040513d6000823e3d601f19601f8201168201806040525060208110156126d257600080fd5b8101908080516401000000008111156126ea57600080fd5b8281019050602081018481111561270057600080fd5b815185600182028301116401000000008211171561271d57600080fd5b505092919050505061232c565b915050919050565b600460009054906101000a900473ffffffffffffffffffffffffffffffffffffffff1681565b6000809054906101000a900473ffffffffffffffffffffffffffffffffffffffff1673ffffffffffffffffffffffffffffffffffffffff163373ffffffffffffffffffffffffffffffffffffffff161415156127b357600080fd5b600073ffffffffffffffffffffffffffffffffffffffff168173ffffffffffffffffffffffffffffffffffffffff16141515156127ef57600080fd5b8073ffffffffffffffffffffffffffffffffffffffff166000809054906101000a900473ffffffffffffffffffffffffffffffffffffffff1673ffffffffffffffffffffffffffffffffffffffff167f8be0079c531659141344cd1fd0a4f28419497f9722a3daafe3b4186f6b6457e060405160405180910390a3806000806101000a81548173ffffffffffffffffffffffffffffffffffffffff021916908373ffffffffffffffffffffffffffffffffffffffff16021790555050565b600260009054906101000a900473ffffffffffffffffffffffffffffffffffffffff16815600a165627a7a7230582027dd4421e9d6f19dfb14d4cff2d9323318fd3b07197a9566d823b22eebc0f9aa0029",
  "source": "pragma solidity ^0.4.25;\nimport \"../token/TokenFactoryInterface.sol\";\nimport \"../token/FactoryTokenInterface.sol\";\nimport \"../ownership/ZapCoordinatorInterface.sol\";\nimport \"../../platform/bondage/BondageInterface.sol\";\nimport \"../../platform/bondage/currentCost/CurrentCostInterface.sol\";\nimport \"../../platform/registry/RegistryInterface.sol\";\nimport \"../../platform/bondage/currentCost/CurrentCostInterface.sol\";\n\ncontract TokenDotFactory is Ownable {\n\n    CurrentCostInterface currentCost;\n    FactoryTokenInterface public reserveToken;\n    ZapCoordinatorInterface public coord;\n    TokenFactoryInterface public tokenFactory;\n    BondageInterface bondage;\n\n    mapping(bytes32 => address) public curves;\n\n    event DotTokenCreated(address tokenAddress);\n\n    constructor(\n        address coordinator,\n        address factory,\n        uint256 providerPubKey,\n        bytes32 providerTitle\n    ){\n        coord = ZapCoordinatorInterface(coordinator);\n        reserveToken = FactoryTokenInterface(coord.getContract(\"ZAP_TOKEN\"));\n        //always allow bondage to transfer from wallet\n        reserveToken.approve(coord.getContract(\"BONDAGE\"), ~uint256(0));\n        tokenFactory = TokenFactoryInterface(factory);\n\n        RegistryInterface registry = RegistryInterface(coord.getContract(\"REGISTRY\"));\n        registry.initiateProvider(providerPubKey, providerTitle);\n    }\n\n    function initializeCurve(\n        bytes32 specifier,\n        bytes32 symbol,\n        int256[] curve\n    ) public returns(address) {\n\n        require(curves[specifier] == 0, \"Curve specifier already exists\");\n\n        RegistryInterface registry = RegistryInterface(coord.getContract(\"REGISTRY\"));\n        require(registry.isProviderInitiated(address(this)), \"Provider not intiialized\");\n\n        registry.initiateProviderCurve(specifier, curve, address(this));\n        curves[specifier] = newToken(bytes32ToString(specifier), bytes32ToString(symbol));\n\n        registry.setProviderParameter(specifier, toBytes(curves[specifier]));\n\n        DotTokenCreated(curves[specifier]);\n        return curves[specifier];\n    }\n\n\n    event Bonded(bytes32 indexed specifier, uint256 indexed numDots, address indexed sender);\n\n    //whether this contract holds tokens or coming from msg.sender,etc\n    function bond(bytes32 specifier, uint numDots) public  {\n\n        bondage = BondageInterface(coord.getContract(\"BONDAGE\"));\n        uint256 issued = bondage.getDotsIssued(address(this), specifier);\n\n        CurrentCostInterface cost = CurrentCostInterface(coord.getContract(\"CURRENT_COST\"));\n        uint256 numReserve = cost._costOfNDots(address(this), specifier, issued + 1, numDots - 1);\n\n        require(\n            reserveToken.transferFrom(msg.sender, address(this), numReserve),\n            \"insufficient accepted token numDots approved for transfer\"\n        );\n\n        reserveToken.approve(address(bondage), numReserve);\n        bondage.bond(address(this), specifier, numDots);\n        FactoryTokenInterface(curves[specifier]).mint(msg.sender, numDots);\n        Bonded(specifier, numDots, msg.sender);\n\n    }\n\n    event Unbonded(bytes32 indexed specifier, uint256 indexed numDots, address indexed sender);\n\n    //whether this contract holds tokens or coming from msg.sender,etc\n    function unbond(bytes32 specifier, uint numDots) public {\n\n        bondage = BondageInterface(coord.getContract(\"BONDAGE\"));\n        uint issued = bondage.getDotsIssued(address(this), specifier);\n\n        currentCost = CurrentCostInterface(coord.getContract(\"CURRENT_COST\"));\n        uint reserveCost = currentCost._costOfNDots(address(this), specifier, issued + 1 - numDots, numDots - 1);\n\n        //unbond dots\n        bondage.unbond(address(this), specifier, numDots);\n        //burn dot backed token\n        FactoryTokenInterface curveToken = FactoryTokenInterface(curves[specifier]);\n        curveToken.burnFrom(msg.sender, numDots);\n\n        require(reserveToken.transfer(msg.sender, reserveCost), \"Error: Transfer failed\");\n        Unbonded(specifier, numDots, msg.sender);\n\n    }\n\n    function newToken(\n        string name,\n        string symbol\n    )\n        public\n        returns (address tokenAddress)\n    {\n        FactoryTokenInterface token = tokenFactory.create(name, symbol);\n        tokenAddress = address(token);\n        return tokenAddress;\n    }\n\n    function getTokenAddress(bytes32 specifier) public view returns(address) {\n        RegistryInterface registry = RegistryInterface(coord.getContract(\"REGISTRY\"));\n        return bytesToAddr(registry.getProviderParameter(address(this), specifier));\n    }\n\n    // https://ethereum.stackexchange.com/questions/884/how-to-convert-an-address-to-bytes-in-solidity\n    function toBytes(address x) public pure returns (bytes b) {\n        b = new bytes(20);\n        for (uint i = 0; i < 20; i++)\n            b[i] = byte(uint8(uint(x) / (2**(8*(19 - i)))));\n    }\n\n    //https://ethereum.stackexchange.com/questions/2519/how-to-convert-a-bytes32-to-string\n    function bytes32ToString(bytes32 x) public pure returns (string) {\n        bytes memory bytesString = new bytes(32);\n\n        bytesString = abi.encodePacked(x);\n\n        return string(bytesString);\n    }\n\n    //https://ethereum.stackexchange.com/questions/15350/how-to-convert-an-bytes-to-address-in-solidity\n    function bytesToAddr (bytes b) public pure returns (address) {\n        uint result = 0;\n        for (uint i = b.length-1; i+1 > 0; i--) {\n            uint c = uint(b[i]);\n            uint to_inc = c * ( 16 ** ((b.length - i-1) * 2));\n            result += to_inc;\n        }\n        return address(result);\n    }\n\n\n}\n",
  "sourcePath": "/Users/samfarber/Desktop/auxmarket-/contracts/lib/platform/TokenDotFactory.sol",
  "compiler": {
    "name": "solc",
    "version": "0.4.25+commit.59dbf8f1.Emscripten.clang"
  },
  "schemaVersion": "2.0.2",
  "updatedAt": "2019-07-12T18:45:47.825Z"
}